:020000040800F2
:100000006011002029020008172800080D260008AA
:100010001528000859050008872D00080000000079
:100020000000000000000000000000001B28000885
:10003000CF05000800000000192800081D2800084E
:10004000430200084302000843020008430200087C
:10005000430200084302000843020008430200086C
:10006000430200084302000843020008430200085C
:10007000430200084302000843020008430200084C
:10008000430200084302000843020008430200083C
:10009000430200084302000843020008430200082C
:1000A000430200084302000843020008430200081C
:1000B000430200084302000843020008430200080C
:1000C00043020008430200084302000843020008FC
:1000D00043020008430200084302000843020008EC
:1000E00043020008430200084302000843020008DC
:1000F000AD2800084302000843020008430200083C
:1001000000000000000000000000000043020008A2
:1001100043020008430200084302000843020008AB
:10012000430200084302000843020008430200089B
:100130005D05000843020008000000000000000008
:1001400043020008430200084302000800000000C8
:10015000000000000000000000000000000000009F
:1001600000000000000000004302000843020008F5
:100170004302000800000000000000000000000032
:10018000000000004302000800F002F800F03CF814
:100190000AA090E8000C82448344AAF10107DA45E2
:1001A00001D100F031F8AFF2090EBAE80F0013F0F8
:1001B000010F18BFFB1A43F001031847B82D0000C8
:1001C000D82D0000103A24BF78C878C1FAD8520759
:1001D00024BF30C830C144BF04680C6070470000C1
:1001E0000023002400250026103A28BF78C1FBD840
:1001F000520728BF30C148BF0B6070471FB502F0DF
:1002000097FE1FBD10B510BD00F0CFF81146FFF7E7
:10021000F5FF02F0C9FD00F0EDF803B4FFF7F2FFBF
:1002200003BC00F0F5F80000094880470948004782
:10023000FEE7FEE7FEE7FEE7FEE7FEE7FEE7FEE796
:10024000FEE7FEE704480549054A064B70470000F3
:100250009D28000889010008600B00206011002023
:10026000600D0020600D002053EA020C00F0698050
:100270002DE9F04B4FF00006002B1FBFB3FA83F5BA
:1002800003FA05F424FA05F65E4012BF1643B2FAEB
:1002900082F502FA05F4C5F120051EBF22FA05FC1D
:1002A00044EA0C04203556EA044C4FEA144418BFC3
:1002B000641C4FF000084FF00009904271EB030CF2
:1002C00039D3002919BFB1FA81F701FA07F6B0FA5C
:1002D00080F700FA07F6C7F120071EBF20FA07FCD7
:1002E00046EA0C062037B6FBF4FCA7EB0507103FE7
:1002F00007F01F0BCBF120060CFA0BFB2CFA06F6CD
:1003000044BFB3460026202FA4BF5E464FF0000B2B
:100310005BEA060C08BF4FF0010B19EB0B09ABFBB6
:10032000027C48EB0608C01B06FB02CC0BFB03CC8F
:1003300071EB0C01C1E70B46024641464846BDE859
:10034000F08B13B54FF000004FF00001AFF30080C9
:10035000BDE81C4070474FF0000200B513469446BC
:100360009646203922BFA0E80C50A0E80C50B1F10D
:100370002001BFF4F7AF090728BFA0E80C5048BF21
:100380000CC05DF804EB890028BF40F8042B08BFBF
:10039000704748BF20F8022B11F0804F18BF00F8BB
:1003A000012B7047704770477047754600F02CF876
:1003B000AE4605006946534620F00700854618B052
:1003C00020B5FFF73FFFBDE820404FF000064FF09B
:1003D00000074FF000084FF0000B21F00701AC467A
:1003E000ACE8C009ACE8C009ACE8C009ACE8C00999
:1003F0008D46704710B50446AFF300802046BDE837
:100400001040FFF70ABF000000487047FC0A0020B8
:1004100001491820ABBEFEE72600020070470146E6
:10042000406A026C12F0500F03D0806B026B0846DA
:100430001047016C41F4007101640168C96811F44E
:10044000406F0CD1417E51B9016C21F4807101647F
:10045000016CC90403D4016C41F00101016400F096
:10046000E9BB406A016C41F040010164416C41F01C
:100470000401416400F0E0BB406A00F0DCBB000016
:1004800070B504460068816801F0030101292AD192
:100490000168C90727D0816801F00D01012914D135
:1004A000816841F00201816021680320086000F04A
:1004B000DBFF054613E000BF00F0D6FF401B02281B
:1004C0000DD920688068C00709D0206C40F010006A
:1004D0002064606C40F001006064012070BD206801
:1004E0008068C007E8D1002070BD000070B50446E8
:1004F0000068816801F00301012902D10168C90780
:1005000025D18168134A114212D1816841F001015D
:10051000816000F0A9FF054614E000BF00F0A4FFD1
:10052000401B02280ED920680068C043C00709D0CC
:10053000206C40F010002064606C40F001006064AA
:10054000012070BD20680068C043C007E6D10020CC
:1005500070BD00003F000080FEE70000014800F091
:10056000E7BD0000B80A00200B4B01681422994235
:1005700007D20A4B1944B1FBF2F189000164084922
:1005800008E0054B5B421944B1FBF2F189000164BC
:1005900001490839C163704708040240F8FFFDBFF4
:1005A0000000024030B590F840500124AC40C56BCB
:1005B0006C60046863604368102B036803D0996023
:1005C0000068C26030BD9A600068C16030BD70478D
:1005D00072B6FEE72DE9F041044690F83C008846EB
:1005E00001280AD0012584F83C502046FFF748FF37
:1005F00006004FF0000703D037E00220BDE8F0818D
:1006000025642068816821F080418160B8F1010F84
:1006100004D12068816841F0804181602068816850
:1006200041F00041816000F01FFF054613E000BF6C
:1006300000F01AFF401B0A280DD9206880680028A6
:1006400009DA206C20F0020040F01000206484F8E9
:100650003C700120D2E7206880680028E8DB206C2D
:1006600020F0020040F00100206484F83C70304625
:10067000C4E70000F0B5002302684FF0A04C3E4CE8
:1006800094B01F46624501D100940DE0A24202D110
:10069000CDF800C008E0394D394EAA4201D100968C
:1006A00002E0B24214D1009590F83C50012D12D0D6
:1006B000012580F83C5095686D0753D4009DAD68C6
:1006C0006D074FD4624501D0A24206D12D4A05E004
:1006D000012014B0F0BD0220FBE72B4A0D6840F664
:1006E0001F7425B3956890F8306025F4604545EA9D
:1006F00046354E68354395600568AE6806F00306DA
:10070000012E02D12D68ED0731D1009DAD6805F0B5
:100710000305012D03D1009D2D68ED0727D10D683C
:1007200089680D439168A1430D4395601FE091686E
:1007300021F46041916001688D6805F00305012D89
:1007400002D10968C90712D10099896801F0030133
:10075000012903D100990968C90708D19168A1430B
:10076000916004E0016C41F020010164012380F8F4
:100770003C701846ADE70000000100500004005036
:100780000005005000030050000700502DE9F0471D
:1007900094B08A460446914650216846FFF7DBFD37
:1007A00094F83C0001280ED0012084F83C00206819
:1007B000816849075ED44FF0A048304F002540457E
:1007C00005D1009708E0022014B0BDE8F0872C495D
:1007D000884207D12B4800902046FFF787FE06008D
:1007E00009D00DE00095206C40F02000206484F8D2
:1007F0003C500120E8E76846FFF778FE060002D08B
:1008000084F83C5037E0206C1F49084040F4807069
:1008100020642068C068800105D5206C20F4005059
:1008200040F48050206484F83C506564A16B174804
:100830008862A16B1648C862A16B164808632068DD
:10084000404501D0B84201D1134900E013491C22B0
:1008500002602068426842F0100242604B465246F5
:100860000C31A06B00F0DFFC2068816841F00401CE
:10087000816000E002263046A6E70000000100503B
:100880000004005000050050FEF1EFFF1F040008B7
:1008900079040008630400080003005000070050BA
:1008A000F0B594B00024009490F83C202546012A2D
:1008B00019D0012780F83C7003689A6852077CD4ED
:1008C0004A681F26052A11D2D3F830C002EB420233
:1008D000520096402CEA060C0E6896404CEA060C34
:1008E000C3F830C035E0022014B0F0BD0A2A0FD2A0
:1008F000D3F834C0521F02EB4202520096402CEA59
:10090000060C0E6896404CEA060CC3F834C020E092
:100910000F2A0FD2D3F838C00A3A02EB4202520033
:1009200096402CEA060C0E6896404CEA060CC3F87A
:1009300038C00EE0D3F83CC00F3A02EB420252003E
:1009400096402CEA060C0E6896404CEA060CC3F85A
:100950003CC00268936813F00C0F4FF0070374D18A
:10096000D1F800E0BEF10A0F10D39669AEF10A0E7D
:100970000EEB4E0C03FA0CFE26EA0E06D1F808E048
:100980000EFA0CFE46EA0E0696610FE0D2F814C08D
:100990000EEB4E0603FA06FE2CEA0E0CD1F808E028
:1009A0000EFA06FE4CEA0E0CC2F814C002684E693C
:1009B000D2F80CC0CCF3C10C00E0FDE04FEA4C0CC7
:1009C00006FA0CF6D1F810E0DFF848C2BEF1010FCC
:1009D00042D0BEF1020F4DD0BEF1030F58D0BEF190
:1009E000040F63D0166E91F800C006F0F846B6EB1F
:1009F0008C6F03D1166E26F0004616660268566E9E
:100A000091F800C006F0F846B6EB8C6F03D1566E35
:100A100026F0004656660268966E91F800C006F011
:100A2000F846B6EB8C6F03D1966E26F000469666BC
:100A30000268D66E91F800C006F0F846B6EB8C6FEF
:100A400003D1D66E26F00046D6660268966806F098
:100A50000306012E3AD136E0D2F860E00EEA0C0E21
:100A600091F800C046EA8C664EEA060E4EF000464B
:100A70001666EAE7D2F864E00EEA0C0E91F800C0C0
:100A800046EA8C664EEA060E4EF000465666DCE7F5
:100A9000D2F868E00EEA0C0E91F800C046EA8C66C7
:100AA0004EEA060E4EF000469666CEE7D2F86CE0AF
:100AB0000EEA0C0E91F800C046EA8C664EEA060E6D
:100AC0004EF00046C0E71668F6077AD1CE68012ED0
:100AD00006D052F8B03F0E78B740BB43136021E018
:100AE00052F8B06F91F800C007FA0CF73E43166059
:100AF0000A680A2A0BD30668B769093A02EB420270
:100B000093409F438B6893401F43B7610AE0076897
:100B10007E69521C02EB420293409E438B689340D5
:100B20001E437E6103684FF0A0473B4EBB4201D09D
:100B3000B34201D1394A00E0394A0968102904D08A
:100B4000112907D012290AD03BE0D2F808C04FEA99
:100B50000C2C08E0D2F808C04FEACC1C03E0D2F815
:100B600008C04FEA4C2CBCF1000F2ADBBB420DD071
:100B7000B34201D100970CE02A4EDFF8ACC0B3427B
:100B800002D1CDF800C004E0634501D1009600E039
:100B900000959E6806F00306012E02D11E68F60736
:100BA0000AD1009E8EB1B66806F00306012E0CD164
:100BB000009E3668F60708D0016C41F02001016400
:100BC000012480F83C5020468EE6102908D01129D7
:100BD0001AD01229F5D1916841F480019160F0E7B3
:100BE000BB42EED1916841F4000191600F49104A77
:100BF0000968B1FBF2F101EB8101490000E0491EF7
:100C000000910029FBD1DCE7BB42DAD1916841F0C9
:100C10008071E3E700F0FF83000100500003005003
:100C20000007005000040050000500501400002090
:100C300040420F007047704770470000F0B54FF01A
:100C4000000695B0040037463546009605D0206C66
:100C5000C00648D4206C18B133E0012015B0F0BDB7
:100C60006564E564A56484F83C50204600F00CF906
:100C700020688068C00024D42046FFF701FC0646A7
:100C8000206CC0061DD4E6B9206C20F4885040F0DA
:100C9000020020642068816821F040518160206852
:100CA000816841F0805181606E486F490068B0FBF7
:100CB000F1F000EB8000400000E0401E00900028B2
:100CC000FBD120688168C90002D5806880000AD500
:100CD000206C20F0020040F010002064606C40F0B6
:100CE000010060640126206CC00676D4002E74D109
:100CF00020688168490770D4216C21F4807141F02B
:100D0000020121644FF0A04E584B704501D098422B
:100D100001D1574A00E0574ADFF85CC15749704596
:100D200001D100930EE0984202D1CDF800E009E035
:100D3000884202D1CDF800C004E0604501D10091A5
:100D400000E00095836803F00303012B02D10068E3
:100D5000C00710D1009840B1806800F0030001285E
:100D600003D100980068C00705D19068636820F43B
:100D7000403018439060D4E902201043626B012A8E
:100D800002D04FF4805300E00023627E43EA4233F6
:100D9000184394F820303843012B0AD1F2B1226C69
:100DA00022F0020242F020022264626C42F0010250
:100DB0006264A26A012A21D023688B4201D0634574
:100DC00018D14FF430774FF4E071BA4213D04FF49A
:100DD00080739A420AD139460DE039E0A28C284B43
:100DE00003EB4242024342F48030E2E78A4201D1FF
:100DF000194600E011460143E06A084321688A6809
:100E000012F00C0F0BD1CA6844F202039A43CA6075
:100E1000217E94F83020890341EA42010843226888
:100E2000D168184B19400143D1602069012820681E
:100E3000016B21F00F0102D1E269521E11430163DF
:100E40006564206C20F0020040F00100206406E0A0
:100E5000206C20F0020040F0100020640126304693
:100E6000FCE600001400002040420F00000100508A
:100E7000000300500007005000050050000400501F
:100E80000000FEFF07C0F0FF38B51E4A05461C4CA7
:100E9000116803681C48491CA34222D11160012932
:100EA00007D1416941F000514161406900F00050B3
:100EB0000090174C15488021206000206060C4E934
:100EC000020149002161890061612021C4E9061005
:100ED000204600F081F908B1FFF77AFBAC63656248
:100EE00038BD0C4CA342FBD111600129F8D14169F6
:100EF00041F000514161406900F00050009038BD60
:100F00000004005004000020001002405804024079
:100F1000B80A0020000500502DE9F04104460068A1
:100F20008068400770D494F83C0001280CD0012060
:100F300084F83C002046FFF7D9FA03004FF0000682
:100F400005D084F83C6086E00220BDE8F081206C8A
:100F500040F60161884340F48070206420684FF0BF
:100F6000A0413E4A3E4D884201D0904202D1D1F884
:100F7000087300E02F6817F01F0F3A4F03D0884224
:100F800001D0B8420BD1D4F840C02CF4801CC4F876
:100F900040C0D0F80CC05FEA8C1C14D41BE0D4F81D
:100FA00040C04CF4801CC4F840C0904202D1D1F83B
:100FB0000CC005E0DFF8ACC00CF10C0CDCF800C094
:100FC0001CF0007F07D0D4F840C02CF4005C4CF437
:100FD000805CC4F840C0D4F840C05FEACC4C06D571
:100FE000D4F844C02CF0060CC4F844C000E0666499
:100FF00084F83C601C2606602068884201D090423C
:1010000003D1D1F8084301E024E02C6814F01F0F4D
:101010001BD0884201D0904202D1D1F8084300E0B1
:101020002C6804F01F04052C0FD0884201D0904298
:1010300002D1D1F8082300E02A6802F01F02092A31
:1010400003D0884201D0B84205D1816841F0040143
:10105000816000E00223184677E70000000100509D
:10106000080700500004005070B54379012B1AD0D6
:10107000012646710223037105682C6840F6FE7351
:1010800093409C43D1E900310B43934023432B60B1
:1010900001680B68C0249440A3430B6006710021D3
:1010A0004171084670BD022070BD70B5040003D0C8
:1010B0002079002510B105E0012070BD6571204642
:1010C00000F008F802202071256101202071002025
:1010D00070BD000010B586B0044614216846FFF7C5
:1010E0003AF91149206888421BD11048C16941F082
:1010F0000051C161C16901F000510591416941F49C
:10110000003141614069694600F4003005901020CB
:10111000009003200190002002904FF0904000F0DA
:10112000BBF806B010BD0000007400400010024083
:10113000F0B4C16B0D6801680C68066C042202FAF9
:1011400006F32B420FD063070DD50B689B0603D423
:101150000B6823F004030B6090F840108A40C16BC9
:101160004A60C16A1BE0022303FA06F72F424FF0E0
:10117000000C4FF0010216D0A70714D50C68A40686
:1011800005D40C6824F00A040C6080F8212090F843
:1011900040108B40C16B4B6080F820C0816A0029F1
:1011A00018D0F0BC08470823B3402B4212D02307C5
:1011B00010D50B6823F00E030B6090F84010C36B42
:1011C00002FA01F15960826380F8212080F820C082
:1011D000016BE4E7F0BC704770B5040021D0022039
:1011E00084F821002268116843F6F0708143D4E945
:1011F00001031843D4E903352B43184363691843AB
:10120000A3691843E3691843084310602046FFF7B9
:10121000ABF90020A063012184F8211084F820009C
:1012200070BD012070BD70B5044690F82000002507
:1012300001280CD0012084F8200094F821600020BF
:10124000012E06D084F820000225284670BD022019
:1012500070BD022684F82160A0632068066826F02D
:10126000010606602046FFF79DF9E06A0028206825
:10127000016802D041F00E0106E041F00A01016070
:101280002068016821F0040101602068016841F0D4
:1012900001010160D9E700002DE9F04FDFF8AC91C2
:1012A000002309F1040A03250AF1040B85B04FF06D
:1012B000010C0F270BF1040EBFE000BF0CFA03F680
:1012C000324075D00C7904F00304012C01D0022CBB
:1012D0001BD1846800945C0005FA04F80494009C17
:1012E00024EA08040094D1F80C80049C08FA04F85D
:1012F000009C48EA0408C0F808804468B4430E79AA
:10130000C6F300169E40264346600C79E443A407CA
:101310000AD0C4684FEA430805FA08F6B4438E6859
:1013200006FA08F62643C6600C7904F00304022C82
:1013300010D1DC0800EB84040294246A5E074FEAB3
:10134000D66807FA08F6B4430E6906FA08F626438B
:10135000029C266204684FEA430805FA08F6B44383
:101360000E7906F0030606FA08F6264306604C6876
:1013700014F4403F60D0364CA66946F00106A661E1
:10138000A46923F0030604F001040094314C3444B2
:101390000294A4689E074FEA167807FA08F6B44349
:1013A000B0F1904F05D02C4EB04204D1012612E08E
:1013B00042E000260FE0294EB04201D102260AE0A9
:1013C000274EB04201D1032605E0264EB04201D19E
:1013D000042600E0052606FA08F62643029CA660CD
:1013E000D9F800604C46D1F8048096435FEAC838CB
:1013F00000D516432660DAF800405646D1F804803E
:1014000094435FEA883800D514433460DBF8004029
:101410005E46D1F8048094435FEAC82800D514439F
:101420003460DEF800407646D1F8048094435FEAE9
:10143000882800D5144334605B1C0A6832FA03F430
:101440007FF43CAF05B0BDE8F08F00000004014020
:10145000001002400000014000040048000800485D
:10146000000C0048001000480148806870470000E8
:1014700008000020024881680278114481607047AA
:1014800008000020074810B5016841F01001016014
:10149000032000F06DF80F2000F006F800F024F8AB
:1014A000002010BD0020024070B50D4D04464FF4E1
:1014B0007A712878B1FBF0F00A490968B1FBF0F0C5
:1014C00000F010FE48B9102C07D200222146501E11
:1014D00000F02EF800206C6070BD012070BD00008F
:1014E0000800002014000020094808B5816941F077
:1014F00001018161816901F001010091C16941F03F
:101500008051C161C06900F08050009008BD0000AA
:1015100000100240002809DB00F01F020121914069
:101520004009800000F1E020C0F800117047000081
:10153000F0B40E4B1B680C46C3F30223C3F107053E
:10154000042D00D90425191D072901D2002300E02C
:10155000DB1E012606FA05F1491E214099409E40F6
:10156000761E16403143F0BC01F00EBC0CED00E0DD
:10157000064900F0070208684FF6FF03184040EAEA
:101580000220034A10430860704700000CED00E0A1
:101590000000FA0538B504004FF0000514D094F8A7
:1015A0003200052810D094F8320002280CD02348CD
:1015B000816941F001018161806900F001000090C2
:1015C00094F8320010B104E0012038BD002084F806
:1015D0003100204600F036F860681949402821D0D3
:1015E00060281FD0A2681043D4E903231A43104394
:1015F00062691043A2691043E2691043226A1043F2
:10160000626A1043228D40EAC24094F82C2040EADE
:101610000262206803680B401A43026094F83200AB
:1016200030B108E0E268A369104322691A43E2E797
:10163000012084F83200284638BD00000010024026
:10164000113800E030B587B0044614216846FEF733
:1016500082FE2468234D0023234903224FF090404B
:10166000AC4209D14C6944F400344C61496901F43D
:10167000003105910E210CE01A4D2D1DAC420FD109
:101680004C6944F400344C61496901F4003105911E
:10169000E0218DE80E006946FFF7FEFD07B030BD82
:1016A000104D12480835AC420CD14C6944F48024EA
:1016B0004C614969009201F4802105916946CDE9A8
:1016C0000123E9E7074D0C35AC42E7D14C6944F4FE
:1016D00080244C61496901F4802105914FF4C05187
:1016E000D7E7000038000140001002400004004825
:1016F0002DE9F84F044600680026804DC0036ED5E2
:10170000E869C00008D4E86940F08050E861E86901
:10171000012600F08050009079480168C90512D474
:101720000168804641F480710160FFF79DFE074625
:1017300005E000BFFFF798FEC01B642835D8D8F835
:101740000000C005F6D5286A10F4407053D0A18877
:1017500001F4407181424ED0286A4FF4803191FAF1
:10176000A1F2B2FA82F29700664A4FF001081744DC
:1017700020F44070C7F8008491FAA1F1B1FA81F128
:1017800002EB81010023C1F800342862C00732D087
:10179000FFF76AFE074641F2883A4FF0020907E078
:1017A000FFF762FEC11B514502D90320BDE8F88F47
:1017B00099FAA9F0B0FA80F040F040024946B8EB3F
:1017C000521F01D12A680CE091FAA1F2B2FA82F21A
:1017D00042F04002B1EB521F02D12A6A01E015E04B
:1017E0006A6A99FAA9F1B1FA81F101F01F0108FAC8
:1017F00001F00242D4D0286A616820F440700843A6
:1018000028621EB1E86920F08050E8612078C007A6
:1018100005D0286BA16820F00300084328632078D6
:10182000800705D5286BE16820F440300843286321
:101830002078400705D5286B216920F44020084313
:1018400028632078800605D5286BE16920F0100018
:10185000084328632068800305D56868A16B20F4DD
:101860008000084368602078400605D5286B216A0F
:1018700020F02000084328632078000705D5286B56
:10188000616920F44010084328632078C00605D51C
:10189000286BA16920F44000084328632088800554
:1018A00005D56868E16A20F4000008436860207884
:1018B000000605D5E86A616A20F4F8700843E8621A
:1018C0002088C00505D5E86AA16A20F4785008434D
:1018D000E8622088C00405D5286B216B20F4807055
:1018E000084328632088800405D5286B616B20F4A9
:1018F000007008432863002058E7000000100240F1
:1019000000700040000042422DE9F0470F460500FC
:1019100069D04A4E306800F00700B84209D23068FA
:1019200020F0070038433060306800F00700B8420C
:1019300059D12878424C800705D56068A96820F005
:10194000F000084360602878C0073DD06968012036
:1019500001290DD0022923D05FF0020393FAA3F2EC
:10196000B2FA82F242F02002520904D0226803E067
:101970004FF40033F2E7626A93FAA3F3B3FA83F306
:1019800003F01F03984002422DD0606820F003004E
:1019900008436060FFF768FD804641F288390CE03B
:1019A0004FF00073DAE700BFFFF75EFDA0EB080120
:1019B000494502D90320BDE8F0876068696800F0F6
:1019C0000C00B0EB810FEFD1306800F00700B84297
:1019D0000BD9306820F0070038433060306800F0E1
:1019E0000700B84201D00120E5E72878400705D577
:1019F0006068E96820F4E0600843606028780007C8
:101A000006D56068296920F4605040EAC100606032
:101A100000F04EF86168F02292FAA2F201F0F001B3
:101A2000B2FA82F2D140074A515CC84006490860C8
:101A300006480068FFF738FD0020BCE700200240A0
:101A4000001002405A2F0008140000200C00002053
:101A500008480949006849684FF4E06292FAA2F226
:101A600001F4E061B2FA82F2D140044A515CC8400C
:101A70007047000014000020001002406A2F000888
:101A800008480949006849684FF4605292FAA2F286
:101A900001F46051B2FA82F2D140044A515CC8406C
:101AA0007047000014000020001002406A2F000858
:101AB000164A10B55168164801F00C03042B20D0CB
:101AC000082B1ED14FF4701494FAA4F401F470138F
:101AD000B4FA84F4E3400F4CD26AE45C0F2393FA27
:101AE000A3F302F00F02B3FA83F3DA40094B103389
:101AF000C9039A5C06D500231946FEF7B5FBA0FB87
:101B0000040110BD0448A4FB000110BD00100240F8
:101B100000127A003A2F000800093D002DE9F84F25
:101B2000050071D02878FC4EC0074FF0010425D085
:101B300070686704C0F38100012807D07068C0F3A3
:101B4000810002281BD17068C00318D597FAA7F04E
:101B5000B0FA80F040F02000400901D0306800E089
:101B6000706A97FAA7F1B1FA81F101F01F0104FA46
:101B700001F1084265D068680028D2D061E0686849
:101B8000B0F5803F0BD010B1B0F5A02F17D0306862
:101B900020F480303060306820F4802002E030682B
:101BA00040F480303060F06AA96820F00F000843EC
:101BB000F062686820B3FFF757FC80460AE030689F
:101BC00040F480203060EAE7FFF74EFCA0EB08000D
:101BD000642871D897FAA7F0B0FA80F040F020009E
:101BE000400901D0306800E0706A97FAA7F1B1FAB5
:101BF00081F101F01F0104FA01F10842E4D020E074
:101C0000FFF732FC804607E0C2E000BFFFF72CFC84
:101C1000A0EB08006428DCD897FAA7F0B0FA80F0AF
:101C200040F02000400901D0306800E0706A97FA67
:101C3000A7F1B1FA81F101F01F0104FA01F10842A4
:101C4000E4D12878DFF8D48280074FF0000A4FF003
:101C5000020730D570684FF0F80B10F00C0F07D06A
:101C60007068C0F38100022827D17068C00324D4B3
:101C700097FAA7F0B0FA80F040F02000400901D0B8
:101C8000306800E0706A97FAA7F1B1FA81F101F0CB
:101C90001F0104FA01F1084202D02869012877D116
:101CA00030689BFAABF220F0F8016869B2FA82F270
:101CB0009040014331605AE064E1286988B394FAA6
:101CC000A4F0B0FA80F048F82040FFF7CDFB814641
:101CD00006E000BFFFF7C8FBA0EB090002289AD876
:101CE00097FAA7F0B0FA80F040F02000400901D048
:101CF000306800E0706A97FAA7F1B1FA81F101F05B
:101D00001F0104FA01F10842E4D030689BFAABF2FB
:101D10006969B2FA82F220F0F8009140084330601D
:101D200025E0FFE794FAA4F0B0FA80F048F820A08C
:101D3000FFF79AFB814605E0FFF796FBA0EB090051
:101D40000228CCD897FAA7F0B0FA80F040F0200033
:101D5000400901D0306800E0706A97FAA7F1B1FA43
:101D600081F101F01F0104FA01F10842E4D1287861
:101D700000076CD5A869A8B394FAA4F0B0FA80F073
:101D800008EB8000C0F88044FFF76EFB814607E057
:101D9000A4E100BFFFF768FBA0EB090002289ED872
:101DA00097FAA7F0B0FA80F040F06000B4EB501F53
:101DB00001D130680BE097FAA7F0B0FA80F040F05C
:101DC0006000B7EB501F01D1306A00E0706A97FAEB
:101DD000A7F1B1FA81F101F01F0104FA01F21042FA
:101DE000D8D034E0FFE794FAA4F1B1FA81F108EB1E
:101DF0008101C1F880A4FFF737FB814606E000BFF0
:101E0000FFF732FBA0EB090002289AD897FAA7F057
:101E1000B0FA80F040F06000B4EB501F01D13068A0
:101E20000BE097FAA7F0B0FA80F040F06000B7EB53
:101E3000501F01D1306A00E0706A97FAA7F1B1FA39
:101E400081F101F01F0104FA01F21042D8D1287883
:101E5000400768D5F0694FF00009C00009D4F06967
:101E600040F08050F061F0694FF0010900F08050BF
:101E700000902B480168C90512D4016841F48071B3
:101E80000160FFF7F1FA834606E000BFFFF7ECFAC6
:101E9000A0EB0B00642875D821480068C005F5D573
:101EA000E86801280AD008B1052811D0306A20F06E
:101EB00001003062306A20F0040002E0306A40F035
:101EC00001003062E86868B3FFF7CEFA83460DE0A0
:101ED000306A40F004003062F0E700BFFFF7C4FA58
:101EE000A0EB0B0141F2883081424BD897FAA7F062
:101EF000B0FA80F040F04000B4EB501F01D13068E0
:101F000013E097FAA7F0B0FA80F040F04000B7EB8A
:101F1000501F09D1306A08E0001002400000424220
:101F2000007000400CE040E0706A97FAA7F1B1FA47
:101F300081F101F01F0104FA01F21042CED02DE030
:101F4000FFF792FA834607E0FFF78EFAA0EB0B014A
:101F500041F28830814215D897FAA7F0B0FA80F0A4
:101F600040F04000B4EB501F01D130680CE097FA0C
:101F7000A7F0B0FA80F040F04000B7EB501F02D15C
:101F8000306A01E083E0706A97FAA7F1B1FA81F153
:101F900001F01F0104FA01F21042D5D1B9F1000F8E
:101FA00003D0F06920F08050F061E86980B3716877
:101FB000C1F38101022977D04FF080714F000228D0
:101FC000504609D091FAA1F1B1FA81F148F8210007
:101FD000FFF74AFA05465DE0894691FAA1F1B1FAA8
:101FE00081F1C24648F82100FFF73EFA804605E03D
:101FF000FFF73AFAA0EB0800022848D897FAA7F0B2
:10200000B0FA80F040F02000400902D0306801E0D2
:1020100066E0706A97FAA7F1B1FA81F101F01F0149
:1020200004FA01F10842E3D1D5E9081008437168C8
:1020300021F474110843706099FAA9F0B0FA80F0A5
:102040004AF82040FFF710FA054604E0FFF70CFAC3
:10205000401B02281BD897FAA7F0B0FA80F040F096
:102060002000400901D0306800E0706A97FAA7F1BB
:10207000B1FA81F101F01F0104FA01F10842E5D043
:102080002EE000BFFFF7F0F9401B022802D9032021
:10209000BDE8F88F97FAA7F0B0FA80F040F0200082
:1020A000400902D0306801E00BE0706A97FAA7F1AE
:1020B000B1FA81F101F01F0104FA01F10842E1D106
:1020C0000EE00128E4D070682A6A00F48031914261
:1020D00004D1696A00F47010884201D00120D7E76A
:1020E0000020D5E710B5401EB0F1807F01D301205C
:1020F00010BD4FF0E02460610F21601700F044FE36
:102100000020A06107202061002010BD70477047AB
:1021100070470000F0B590F83C20012A36D0012429
:1021200080F83C40022280F83D20026853689568A0
:10213000174E184FB24201D0BA4204D123F4700CAA
:102140004B6843EA0C0323F0700C0B6843EA0C0362
:1021500053600268B2420DD0B2F1804F0AD00E4BEC
:102160009A4207D00D4B9A4204D0BA4202D00C4B8F
:102170009A4204D1896825F080031943916080F860
:102180003D40002180F83C100846F0BD0220F0BD23
:10219000002C0140003401400004004000080040D1
:1021A0000040014010B5040003D094F83D0010B188
:1021B00007E0012010BD002084F83C00204600F01C
:1021C00023F8022084F83D00211D206800F074FBF4
:1021D000012084F8480084F83E0084F83F0084F829
:1021E000400084F8410084F8420084F8430084F8F9
:1021F000440084F8450084F8460084F8470084F8D9
:102200003D00002010BD000008B5114A01681148CA
:10221000914208D1C16941F00401C161C06900F077
:102220000400009008BD0C4A9142FBD1816941F441
:10223000005181618069002200F400500090114635
:102240002C20FFF775F9BDE808402C20FFF762B994
:1022500000080040001002400034014090F83D109A
:10226000012901D001207047022180F83D1001684A
:10227000CA6842F00102CA600068104988420ED064
:10228000B0F1804F0BD00E49884208D00D498842EA
:1022900005D00D49884202D00C49884207D1816897
:1022A0000B4A1140062906D0B1F5803F03D00168E2
:1022B00041F001010160002070470000002C014046
:1022C000000400400008004000340140004001408C
:1022D0000700010070B5044690F83C000025012875
:1022E00017D0012684F83C60022084F83D00226863
:1022F00090682F4B184020F47F4090600868502869
:1023000038D00DDC20284FD005DC90B3102811D137
:102310004AE0022070BD302846D040280AD13BE078
:1023200060282FD070280DD0B0F5805F03D0B0F5B5
:10233000005F12D0012584F83D60002084F83C0045
:10234000284670BDCB68D1E90121206800F00CFB64
:102350002068816841F0770109E0CB68D1E901216B
:10236000206800F001FB2068816841F480418160B1
:10237000E1E719E0CA684968206800F007FB5021CE
:10238000206806E0CA684968206800F010FB6021F8
:10239000206800F0F3FACEE7CA684968206800F0C8
:1023A000F5FA40212068F4E7226801461046F0E77C
:1023B00088FFFEFF704770B50446006801694FF062
:1023C0000005C943890715D4C168C943890711D4D9
:1023D000E91E01610120207720688069800720467E
:1023E00002D0FFF7E7FF04E000F0A7F8204600F076
:1023F000A5F8257720680169C943490717D4C16842
:10240000C943490713D46FF004010161022020770A
:102410002068806910F4407F204602D0FFF7CAFF91
:1024200004E000F08AF8204600F088F8257720685C
:102430000169C943090716D4C168C943090712D401
:102440006FF008010161042020772068C0698007CF
:10245000204602D0FFF7AEFF04E000F06EF8204601
:1024600000F06CF8257720680169C943C90617D4C4
:10247000C168C943C90613D46FF010010161082077
:1024800020772068C06910F4407F204602D0FFF713
:1024900091FF04E000F051F8204600F04FF8257756
:1024A00020680169C943C90708D1C168C943C90780
:1024B00004D1891E0161204600F041F820680169BD
:1024C000C943090609D4C168C943090605D46FF098
:1024D000800101612046FFF71AFE20680169C943A7
:1024E000C90509D4C168C943090605D46FF48071D0
:1024F00001612046FFF70AFE20680169C9434906C9
:1025000009D4C168C943490605D46FF0400101618F
:10251000204600F015F820680169C94389060BD4EC
:10252000C168C943890607D46FF0200101612046C4
:10253000BDE87040FFF7ECBD70BD70477047704755
:10254000704710B5040002D0A06F10B107E0012061
:1025500010BD002084F87400204600F025F82420E7
:10256000A0672068016821F001010160204600F0A9
:10257000C3FA0128ECD0606A10B1204600F029FAB5
:102580002068416821F4904141602068816821F011
:102590002A0181602068016841F001010160204644
:1025A000BDE8104000F079BA10B586B00446142199
:1025B0006846FDF7D0FE13492068884220D11248B2
:1025C000816941F480418161816901F48041059113
:1025D000416941F4003141614069694600F40030CD
:1025E00005904FF4C06000900220019000200290FE
:1025F00003200390072004904FF09040FEF74CFE1C
:1026000006B010BD0038014000100240FEE7000097
:1026100030B589B0002406940794182168460894C0
:10262000FDF799FE1C481B4901250160C901C0E95D
:1026300001140461447680F82040C0E90A54C56161
:10264000C46080F830400421416104764463FEF7A1
:10265000F5FA08B172B6FEE7062006904FF4004086
:10266000CDE9070406A90C48FEF704F808B172B6D4
:10267000FEE70520CDE90204009501950494694622
:1026800005480594FEF70CF9002801D072B6FEE764
:1026900009B030BD000400501808002030B587B0E4
:1026A00018216846FDF757FE1648154900240160B9
:1026B0004FF40031C0E901140461447680F82040F1
:1026C0000125C561C46080F8304004214161047671
:1026D0004463FEF7B3FA08B172B6FEE70320CDE912
:1026E00000050520CDE902040494694605480594D7
:1026F000FEF7D6F8002801D072B6FEE707B030BD6D
:10270000000500506808002010B588B00024174864
:10271000009401940294039404940594124906943D
:10272000C0E900144FF6FF71C0E902410461846101
:10273000FFF738FD08B172B6FEE74FF48050009005
:1027400069460A48FFF7C6FD08B172B6FEE7049471
:1027500004A906480694FFF7DDFC002801D072B6F4
:10276000FEE708B010BD0000000800409C090020F2
:1027700010B588B000241848059406940394049476
:10278000009401941349029401602021C0E90114CE
:102790004FF6FF71C0E9031444618461FFF702FD45
:1027A00008B172B6FEE74FF48050039003A90A48BF
:1027B000FFF790FD08B172B6FEE7009401946946F8
:1027C00005480294FFF7A6FC002801D072B6FEE788
:1027D00008B010BD00340140E80900200C4810B5D5
:1027E0000A4901604FF416414160002181600C22CA
:1027F000C160C0E904128161C16101624162FFF7F9
:10280000A0FE002801D072B6FEE710BD00380140DE
:10281000340A0020FEE7FEE770477047FEF72ABE45
:1028200030B59FB028210FA8FDF795FD142119A8F8
:10283000FDF791FD3C216846FDF78DFD0225012045
:1028400013900F9510201490002416954FF46010EB
:10285000CDE917400FA8FFF761F908B172B6FEE79E
:102860000F20CDE919054FF48060CDE91B4002210E
:1028700019A81D94FFF748F808B172B6FEE742F2B6
:102880000100009002940D946846FEF731FF002885
:1028900001D072B6FEE71FB030BD000002480168EB
:1028A00041F470010160704788ED00E00148FFF7D6
:1028B00082BD0000E80900202DE9F0430268234BA7
:1028C000234D244E244C4FF08049984207D0484570
:1028D00005D0A84203D0B04201D0A04203D122F0DB
:1028E00070074A683A431D4FDFF874C0DFF8748000
:1028F00098420DD048450BD0A84209D0B04207D02D
:10290000A04205D0B84203D0604501D0404503D174
:1029100022F44075CA682A434D6922F080022A4396
:1029200002608A68C2620A688262984207D0A04246
:1029300005D0B84203D0604501D0404501D10969B6
:10294000016301214161BDE8F0830000002C0140DA
:1029500000040040000800400034014000400140F5
:10296000004401400048014010B5846842EA032257
:1029700024F47F440A432243826010BD826822F01F
:1029800070020A4342F007018160704710B5036A84
:10299000046A24F001040462846924F0F00444EA27
:1029A000021423F00A020A438461026210BD10B5CA
:1029B000036A23F0100303628369046A23F47043FB
:1029C00043EA023224F0A00343EA0111826101626A
:1029D00010BD90F82410C90706D001684A68836AC0
:1029E00022F400321A434A6090F82410890706D571
:1029F00001684A68C36A22F480321A434A6090F838
:102A00002410490706D501684A68036B22F4802226
:102A10001A434A6090F82410090706D501684A68ED
:102A2000436B22F400421A434A6090F82410C9060E
:102A300006D501688A68836B22F480521A438A6043
:102A400090F82410890606D501688A68C36B22F4C1
:102A500000521A438A6090F82410490611D5016883
:102A60004A68036C22F480121A434A60016CB1F583
:102A7000801F06D101684A68436C22F4C0021A43E1
:102A80004A6090F82410090606D501684A68806CEF
:102A900022F4002202434A607047F8B5002604463B
:102AA000C0F88060FEF7E0FC0546206800686FF023
:102AB0007E47000708D52B4600224FF40011204620
:102AC000009700F0FDF860B92068006840070AD55B
:102AD0002B4600224FF480012046009700F0F0F8CA
:102AE00008B10320F8BD2020A067E067266684F8BF
:102AF00074600020F8BD000070B50446806821694C
:102B0000E26908436169002511432268084311689E
:102B100049F20C6399430143116020684168E268FF
:102B200021F4405111434160216AA06901432068AA
:102B3000826822F430620A4382605A4A20685A4905
:102B400090420CD1086B10F0030006D001285FD032
:102B500002285FD0032845D158E0012143E0534AC1
:102B600090420DD1086B10F440304DD0B0F5803F4D
:102B70004ED0B0F5003F4DD0B0F5403F32D145E0EA
:102B80004B4A90420DD1086B10F440203CD0B0F578
:102B9000802F3DD0B0F5002F3CD0B0F5402F21D193
:102BA00034E0444A90420DD1086B10F440102BD011
:102BB000B0F5801F2CD0B0F5001F2BD0B0F5401F12
:102BC00010D123E03C4A90420CD1086B10F4400035
:102BD0001AD0B0F5800F1BD0B0F5000F1AD0B0F5A9
:102BE000400F13D01021E3694FF40040334A4FF6F1
:102BF000EF7683422ED109294AD2DFE801F00D1089
:102C000013491549494918000021ECE70221EAE778
:102C10000421E8E70821E6E7FEF71AFF06E0FEF7E1
:102C20002FFF03E0104602E0FEF742FF88B34100A9
:102C3000606801EB5001B1FBF0F081B2A1F110002E
:102C4000B04225D84FF6F07201EA0200C1F342010A
:102C500008431FE009291BD2DFE801F005080B1A21
:102C60000D1A1A1A1000FEF7F3FE06E0FEF708FF31
:102C700003E0104602E0FEF71BFF50B1616800EB75
:102C80005100B0FBF1F080B2A0F11001B14201D9C6
:102C9000012501E02168C86000206066A066284622
:102CA00070BD0000003801400010024000440040A8
:102CB00000480040004C00400050004000127A00E4
:102CC0002DE9F0479A4617460E4604464FF0000994
:102CD0004FF02008089D4AE0681C48D0FEF7C4FB6E
:102CE000A0EB0A00A8422AD84DB320680168490722
:102CF0003DD5C069C043000539D421684FF4006058
:102D00000862206850E8001F21F4D07140E80012EA
:102D1000002AF6D12068083050E8001F21F0010198
:102D200040E80012002AF5D1C4F87880C4F87C800D
:102D3000C4F8808084F874900320BDE8F08721688F
:102D400051E8000F20F4D07041E80002002AF6D1CB
:102D50002068083050E8001F21F0010140E800120F
:102D6000002AF5D1C4F87880C4F87C80E2E72068B6
:102D7000C06936EA000004D00020B842ACD0002080
:102D8000DBE70120F9E7FEE70907090E002804DB6D
:102D900000F1E02080F80014704700F00F0000F10F
:102DA000E02080F8141D704786B0FEF76BFBFFF73C
:102DB00037FD14216846FDF7CEFA564D686940F498
:102DC00000306861686900F400300590686940F47B
:102DD000802068616869002400F4802005904FF429
:102DE000004000901220CDE9010403200427CDE922
:102DF000030769464FF09040FEF74EFA686940F0CD
:102E0000020068616869002200F00200009011462B
:102E10003C20FEF78DFB3C20FEF77CFB3F483E4903
:102E20006026C0E903744462C0E90016FEF7B2FBF5
:102E300008B172B6FEE739490094B03901943848B8
:102E4000029408600846FEF730F908B172B6FEE752
:102E50003248009400226946B0380194FEF704F924
:102E600008B172B6FEE72D482B499C380C39202753
:102E700080E892000C25C0E903544462FEF78AFB07
:102E800008B172B6FEE7254823496838083980E85A
:102E90009200C0E903544462FEF77CFB08B172B6AD
:102EA000FEE71E481C493438091FC0E90354446238
:102EB000C0E90016FEF76EFB08B172B6FEE7FFF739
:102EC0008DFCFFF7A5FBFFF7E9FBFFF751FCFFF7D0
:102ED0001BFC00211348FDF77DFB124800215030F8
:102EE000FDF778FB0F485030FEF716F80B4880309E
:102EF000FFF7B4F94FF400720B490A48FDF746FC9E
:102F00000A484FF47A720168491C01609142FAD173
:102F10000460F8E700100240440001406809002006
:102F20000074004018080020180000200000002055
:102F30004FF04070E1EE100A7047020304050607E7
:102F400008090A0B0C0D0E0F1010010203040506F0
:102F50000708090A0B0C0D0E0F10000000000000FE
:102F60000000010203040607080900000000010236
:102F700003040000942F0008000000201800000047
:102F8000C4010008AC2F0008180000204811000000
:102F9000E001000800000000000000000100000047
:0C2FA000100000000000000000127A0089
:040000050800018965
:00000001FF
