:020000040800F2
:10000000E02A002029020008631F00084D1D000897
:10001000611F0008D90500088D28000800000000B5
:10002000000000000000000000000000711F000838
:1000300031080008000000006F1F0008731F00084F
:10004000430200084302000843020008430200087C
:10005000430200084302000843020008430200086C
:100060004302000843020008430200082507000875
:10007000430200084302000843020008430200084C
:10008000430200084302000843020008430200083C
:10009000430200084302000843020008430200082C
:1000A000430200084302000843020008430200081C
:1000B00043020008452000084302000843020008EC
:1000C00043020008430200084302000843020008FC
:1000D00043020008552800084302000843020008B4
:1000E00043020008430200084302000843020008DC
:1000F00043020008430200084302000843020008CC
:1001000000000000000000000000000043020008A2
:1001100043020008430200084302000843020008AB
:100120004302000843020008F907000843020008E0
:100130004302000843020008000000000000000025
:1001400043020008430200084302000800000000C8
:10015000000000000000000000000000000000009F
:1001600000000000000000004302000843020008F5
:100170004302000800000000000000000000000032
:10018000000000004302000800F002F800F03CF814
:100190000AA090E8000C82448344AAF10107DA45E2
:1001A00001D100F031F8AFF2090EBAE80F0013F0F8
:1001B000010F18BFFB1A43F00103184790280000F5
:1001C000B0280000103A24BF78C878C1FAD8520786
:1001D00024BF30C830C144BF04680C6070470000C1
:1001E0000023002400250026103A28BF78C1FBD840
:1001F000520728BF30C148BF0B6070471FB502F0DF
:1002000003FC1FBD10B510BD00F0CFF81146FFF77D
:10021000F5FF02F069FB00F0EDF803B4FFF7F2FF21
:1002200003BC00F0F5F80000094880470948004782
:10023000FEE7FEE7FEE7FEE7FEE7FEE7FEE7FEE796
:10024000FEE7FEE704480549054A064B70470000F3
:10025000ED1F000889010008E0240020E02A0020AA
:10026000E0260020E026002053EA020C00F069801E
:100270002DE9F04B4FF00006002B1FBFB3FA83F5BA
:1002800003FA05F424FA05F65E4012BF1643B2FAEB
:1002900082F502FA05F4C5F120051EBF22FA05FC1D
:1002A00044EA0C04203556EA044C4FEA144418BFC3
:1002B000641C4FF000084FF00009904271EB030CF2
:1002C00039D3002919BFB1FA81F701FA07F6B0FA5C
:1002D00080F700FA07F6C7F120071EBF20FA07FCD7
:1002E00046EA0C062037B6FBF4FCA7EB0507103FE7
:1002F00007F01F0BCBF120060CFA0BFB2CFA06F6CD
:1003000044BFB3460026202FA4BF5E464FF0000B2B
:100310005BEA060C08BF4FF0010B19EB0B09ABFBB6
:10032000027C48EB0608C01B06FB02CC0BFB03CC8F
:1003300071EB0C01C1E70B46024641464846BDE859
:10034000F08B13B54FF000004FF00001AFF30080C9
:10035000BDE81C4070474FF0000200B513469446BC
:100360009646203922BFA0E80C50A0E80C50B1F10D
:100370002001BFF4F7AF090728BFA0E80C5048BF21
:100380000CC05DF804EB890028BF40F8042B08BFBF
:10039000704748BF20F8022B11F0804F18BF00F8BB
:1003A000012B7047704770477047754600F02CF876
:1003B000AE4605006946534620F00700854618B052
:1003C00020B5FFF73FFFBDE820404FF000064FF09B
:1003D00000074FF000084FF0000B21F00701AC467A
:1003E000ACE8C009ACE8C009ACE8C009ACE8C00999
:1003F0008D46704710B50446AFF300802046BDE837
:100400001040FFF70ABF000000487047802400201A
:1004100001491820ABBEFEE726000200704700002D
:1004200010B56949486940F080504861486940F01A
:10043000010048614FF0A040D0F8082342F4803218
:10044000C0F80823CA6A42F48072CA624A6942F05C
:1004500080524A61D0F8081341F00601C0F8081331
:10046000D0F8081341F40051C0F80813D0F808136D
:1004700041F40041C0F80813D0F8081321F480714A
:10048000C0F80813C16821F00801C160C16821F0FB
:100490001001C160016B41F0C0010163C16841F00E
:1004A0002001C160C16821F4707141F4E071C16044
:1004B000C16821F4406141F48061C160416921F467
:1004C000606141F400714161C16841F00101C160A6
:1004D000D0F80C1121F00801C0F80C11D0F80C1163
:1004E00021F01001C0F80C11D0F8301141F0C0011A
:1004F000C0F83011D0F80C1141F02001C0F80C11F7
:10050000D0F8181121F4606141F40071C0F818119D
:10051000816841F00041816081680029FCDBD0F8EE
:10052000081141F00041C0F80811D0F80811002965
:10053000FBDB816841F001018160816841F00401C9
:100540008160D0F8081141F00101C0F808111F487E
:1005500001691F49016141691E494161816841F09A
:1005600002018160816841F004018160816821F0AD
:1005700010018160816841F020018160816821F46F
:1005800080518160816841F080018160816821F043
:1005900040018160816841F400718160816841F4AB
:1005A00000618160C16841F08001C160816841F0F3
:1005B0000101816001210B2002F076F9BDE81040B5
:1005C0000B2002F064B9000000100240000002405D
:1005D0000C03005028010020FEE7000011B4009831
:1005E000400720D5114A106820F00401104B00206C
:1005F0001870104B1870587041F0010111600E49CD
:1006000001220A700D4A12784A700D4A13884FF67B
:10061000FF7404EA43234B80108018BC42F20402AA
:10062000084801F045BB18BC7047000008000020D6
:10063000020000200C0000207C04002003000020A9
:10064000000000202803002010B53248C16941F0A5
:100650000051C161416941F0020141612E480168C8
:1006600041F001010160016841F4805101600168BD
:1006700021F4706141F430610160016821F03801BA
:1006800041F020010160016841F004010160001D9A
:10069000016821F001010160204801681E4908310C
:1006A0000160001D01681E4901601C48083801688E
:1006B00041F002010160016841F010010160016830
:1006C00041F020010160016821F48051016001685E
:1006D00041F080010160016821F040010160016882
:1006E00041F480710160016841F480610160011D85
:1006F0000A6842F080020A60016841F0010101606D
:1007000000213A2002F0D0F8BDE810403A2002F073
:10071000BEB80000001002400074004038040240DF
:1007200028000020F0B42B4D2888C1012A484160E0
:100730002A4802682A4B54072A4A0FD5446844F0D5
:1007400004044460002053F82040451802EB85055E
:100750006C60401C4028F6D3F0BC70470468A407C6
:10076000FAD5446844F002044460402053F8204025
:10077000461802EB86067460401C8028F6D3288851
:10078000102802D90020288002E02888401C2880F8
:10079000154800784FF4FA7110FB01F07D21B0FB91
:1007A000F1F0298888420FD14FF08040016821F094
:1007B000010101600D48016821F0010101600C4850
:1007C000016841F004010160F0BC4FF40051094898
:1007D00000F06AB900000020100000200000024074
:1007E000280100207C040020030000200034014088
:1007F000080000200008004810B50A48006880057D
:100800000ED54FF40041084800F04EF90548001D90
:10081000016841F48071016004490878401C087047
:1008200010BD000000040240000400480200002047
:100830007047000001B50098C10711D04FF080410A
:100840000A6842F001020A6006490A6842F00102A1
:100850000A600549054A4978117020F001000090AE
:1008600008BD0000003401400C00002003000020FF
:1008700072B6FEE710B590F821100022022905D0CB
:100880000421816380F82020012010BD01680B68DD
:1008900023F00E030B6001680B6823F001030B606B
:1008A00090F84030012404FA03F1C36B596080F8DA
:1008B000214080F82020002010BD10B5002490F8C1
:1008C0002110022903D004218163012418E001686A
:1008D0000A6822F00E020A6001680A6822F001022A
:1008E0000A6090F84020012303FA02F1C26B5160C4
:1008F00080F82130002180F82010416B01B1884739
:10090000204610BD2DE9F84F0022DFF880914FF00E
:10091000010809F1040A03274FF00F0C0AF1040B38
:10092000ACE008FA02F52B40002B72D00C7904F0F1
:100930000304012C01D0022C15D18668540007FA5B
:1009400004FE26EA0E06D1F80CE00EFA04FE4EEA8A
:10095000060EC0F808E04468AC430D79C5F30015F5
:100960009540254345600C79E443A40708D0C56849
:10097000540007FA04F6B5438E68A6402E43C660BD
:100980000C7904F00304022C11D1D40800EB840686
:10099000356A5407E40E0CFA04FE25EA0E05D1F878
:1009A00010E00EFA04FE4EEA050EC6F820E00568D7
:1009B000540007FA04F6B5430E7906F00306A64084
:1009C0002E4306604C6814F4403F56D0304CA56965
:1009D00045F00105A561A46904F0010400942D4CC3
:1009E00022F003052E19B56894074FEA147E0CFA1D
:1009F0000EF4A543B0F1904F04D0274CA04203D190
:100A0000012412E0002410E0244CA04202D1022470
:100A10000BE032E0224CA04201D1032405E0214C3E
:100A2000A04201D1042400E0052404FA0EF42C4372
:100A3000B460D9F800409C434D68ED0300D51C43D9
:100A4000C9F80040DAF800409C434D68AD0300D57A
:100A50001C43CAF80040DBF800409C434D68ED029F
:100A600000D51C43CBF80040084D0C352C689C4346
:100A70004E68B60200D51C432C60521C0B6833FA3A
:100A800002F47FF44EAFBDE8F88F0000000401408F
:100A90000010024000000140000400480008004827
:100AA000000C004800100048426921EA02030A4095
:100AB00043EA024181617047002A01D08161704799
:100AC000816270470148806870470000180000206C
:100AD0000248816802781144816070471800002044
:100AE00010B50748016841F010010160032000F0D3
:100AF0006FF80F2000F006F800F026F8002010BD77
:100B00000020024070B504460D4D4FF47A712878EC
:100B1000B1FBF0F00B490968B1FBF0F000F0B1FE59
:100B200008B1012070BD102C07D200222146501EB2
:100B300000F02EF86C60002070BD012070BD000038
:100B4000180000202400002008B50948816941F000
:100B500001018161816901F001010091C16941F0E8
:100B60008051C161C06900F08050009008BD000054
:100B700000100240002809DB00F01F020121914013
:100B80004009800000F1E020C0F80011704700002B
:100B9000F0B40D460D4B1B68C3F30223C3F10704E9
:100BA000042C00D90424191D072901D2002300E0D8
:100BB000DB1E012606FA04F1491E294099409E4099
:100BC000761E16403143F0BC01F07EBE0CED00E015
:100BD00000F00701054A10684FF6FF03184040EA8D
:100BE0000120034908431060704700000CED00E04D
:100BF0000000FA05BFF34F8F05480168054A01F46C
:100C0000E06111430160BFF34F8F00BFFDE70000BB
:100C10000CED00E00400FA0538B504460025002C70
:100C200014D094F83200052812D094F8320002282B
:100C300010D02E48816941F001018161806900F086
:100C40000100009094F8320030B108E0012038BD76
:100C5000012038BD012038BD002084F83100204635
:100C600000F048F860682249402821D060281FD051
:100C7000A2681043D4E903231A4310436269104366
:100C8000A2691043E2691043226A1043626A10436A
:100C9000228D40EAC24094F82C2040EA026220688B
:100CA00003680B401A43026094F83200C8B11BE09D
:100CB000E268A369104322691A431043E2691043B2
:100CC000226A1043626A1043228D40EAC24094F8BF
:100CD0002C2040EA0262206803680B401A4302603D
:100CE000E2E7012084F83200284638BD00100240B7
:100CF000113800E030B587B00446142102A8FFF790
:100D00002AFB2B4D216800242A4A03234FF09040F0
:100D1000A94210D1516941F400315161516901F486
:100D2000003101910E2102910393049402A9FFF76F
:100D3000E9FD07B030BD1E4D2D1DA9420FD15169EF
:100D400041F400315161516901F400310191E02118
:100D500002910393049402A9FFF7D4FDE9E7144D2F
:100D600015480835A9420ED1516941F480215161DD
:100D7000516901F48021019102930393049402A923
:100D8000FFF7C0FDD5E70A4D0C35A942D1D1516915
:100D900041F480215161516901F4802101914FF4A6
:100DA000C05102910393049402A9FFF7ABFDC0E781
:100DB0003800014000100240000400482DE9F84FBF
:100DC000044600262068804DC0036FD5E869C00046
:100DD00008D4E86940F08050E861E86900F080508C
:100DE00000900126794F3868C00513D4386840F464
:100DF00080703860FFF766FE804608E0FFF762FE0D
:100E0000A0EB0800642802D90320BDE8F88F3868F9
:100E1000C005F3D5286A00F4407078B3A18801F4C6
:100E2000407181424DD0286A20F440704FF48031E7
:100E300091FAA1F2B2FA82F29300654A4FF00108EA
:100E40001344C3F8008491FAA1F1B1FA81F102EBE5
:100E500081010023C1F800342862C00731D0FFF7B8
:100E600031FE074641F2883A4FF0020907E0FFF7EA
:100E700029FEC01B504502D90320C6E721E099FA9C
:100E8000A9F0B0FA80F040F040004146B8EB501FA6
:100E900001D128680CE099FAA9F0B0FA80F040F08E
:100EA0004000B9EB501F02D1286A01E015E0686AE2
:100EB00099FAA9F2B2FA82F202F01F0291400842B6
:100EC000D5D0286A616820F4407008432862012E5A
:100ED00003D1E86920F08050E8612078C00705D090
:100EE000286BA16820F0030008432863207880075E
:100EF00005D5286BE16820F440300843286320784A
:100F0000400705D5286B216920F440200843286359
:100F10002078800605D5286BE16920F01000084391
:100F200028632068800305D56868A16B20F48000E1
:100F3000084368602078400605D5286B216A20F0B8
:100F40002000084328632078000705D5286B6169D5
:100F500020F44010084328632078C00605D5286B8C
:100F6000A16920F44000084328632088800505D546
:100F70006868E16A20F40000084368602078000691
:100F800005D5E86A616A20F4F8700843E8622088B1
:100F9000C00505D5E86AA16A20F478500843E862E4
:100FA0002088C00405D5286B216B20F4807008438D
:100FB00028632088800405D5286B616B20F40070BD
:100FC00008432863002020E7001002400070004022
:100FD000000042422DE9F04704460D46002C17D090
:100FE000DFF89481D8F8000000F00700A84211D281
:100FF000D8F8000020F007002843C8F80000D8F80F
:10100000000000F00700A84204D00120BDE8F087EE
:101010000120FBE72078594E800705D57068A1684C
:1010200020F0F000084370602078C00765D0606849
:10103000012201280CD0022822D0022393FAA3F126
:10104000B1FA81F141F02001490931D0316830E035
:101050004FF4003393FAA3F1B1FA81F141F020018A
:10106000490901D0316800E0716A93FAA3F3B3FA39
:1010700083F303F01F039A40114225D10120C5E7F5
:101080004FF0007393FAA3F1B1FA81F141F020011E
:10109000490901D0316800E0716A93FAA3F3B3FA09
:1010A00083F303F01F039A4011420DD10120ADE7F5
:1010B000716A93FAA3F3B3FA83F303F01F039A4020
:1010C000114201D10120A1E7716821F00301014320
:1010D0007160FFF7F7FC074641F2883906E0FFF739
:1010E000F1FCC01B484501D903208FE77068616897
:1010F00000F00C00B0EB810FF1D1D8F8000000F047
:101100000700A8420ED9D8F8000020F007002843B5
:10111000C8F80000D8F8000000F00700A84201D08D
:10112000012073E72078400705D57068E16820F456
:10113000E060084370602078000706D57068216978
:1011400020F4605040EAC100706000F051F871680E
:10115000F02292FAA2F201F0F001B2FA82F2D1404A
:10116000074A515CC8400749086007480068FFF714
:10117000C9FC00204AE700000020024000100240A5
:10118000322A0008240000201C00002001480068CA
:10119000704700002400002000B5FFF7F7FF074963
:1011A00049684FF4E06292FAA2F201F4E061B2FA07
:1011B00082F2D140024A515CC84000BD001002409A
:1011C000422A000800B5FFF7E1FF074949684FF4DC
:1011D000605292FAA2F201F46051B2FA82F2D14066
:1011E000024A515CC84000BD00100240422A00087B
:1011F00010B5164B5968164801F00C02042A20D08D
:10120000082A1ED14FF4701494FAA4F401F4701259
:10121000B4FA84F4E2400F4CA45CDA6A0F2393FA28
:10122000A3F302F00F02B3FA83F3DA40094B103351
:101230009A5CC90306D500231946FFF715F8A0FBF1
:10124000040110BD0448A4FB000110BD00100240C1
:1012500000127A00122A000800093D002DE9F84F1B
:101260000446002C12D02078F84EC0074FF001053C
:101270005ED070684FF40038C0F3810001280BD0B5
:101280007068C0F38100022803D01EE00120BDE891
:10129000F88F7068C00318D598FAA8F0B0FA80F0FB
:1012A00040F02000400901D0306800E0706A98FAF0
:1012B000A8F1B1FA81F101F01F0105FA01F108422C
:1012C00075D06068A0BB0120E1E76068B0F5803FA1
:1012D00017D0D8B1B0F5A02F21D0306820F48030DD
:1012E0003060306820F480203060F06AA16820F01F
:1012F0000F000843F0626068C0B3FFF7E3FB0746E6
:101300001EE0306840F480303060EEE7306820F452
:1013100080303060306820F480203060E5E730684D
:1013200040F480203060306840F480303060DCE78A
:101330003DE0FFF7C7FBC01B642801D90320A6E7E7
:1013400098FAA8F0B0FA80F040F02000400901D0EF
:10135000306800E0706A98FAA8F1B1FA81F101F002
:101360001F0105FA01F10842E3D020E0FFE7FFF793
:10137000A9FB074606E0FFF7A5FBC01B642801D9BF
:10138000032084E798FAA8F0B0FA80F040F020003B
:10139000400901D0306800E0706A98FAA8F1B1FA0B
:1013A00081F101F01F0105FA01F10842E3D1207833
:1013B000DFF89C8280074FF0000B4FF0020732D518
:1013C00070684FF0F80A10F00C0F07D07068C0F387
:1013D0008100022828D17068C00325D497FAA7F0AD
:1013E000B0FA80F040F02000400901D0306800E001
:1013F000706A97FAA7F1B1FA81F101F01F0105FABD
:1014000001F1084204D02069012801D001203EE703
:1014100030689AFAAAF26169B2FA82F220F0F80012
:101420009140084330605CE0206990B395FAA5F0E4
:10143000B0FA80F048F82050FFF744FB814607E0FF
:10144000FFF740FBA0EB0900022801D903201EE7AB
:1014500097FAA7F0B0FA80F040F02000400901D0E0
:10146000306800E0706A97FAA7F1B1FA81F101F0F3
:101470001F0105FA01F10842E2D030689AFAAAF297
:101480006169B2FA82F220F0F800914008433060BE
:1014900027E0FFE795FAA5F0B0FA80F048F820B011
:1014A000FFF710FB814607E0FFF70CFBA0EB0900FC
:1014B000022801D90320EAE697FAA7F0B0FA80F0F3
:1014C00040F02000400901D0306800E0706A97FACF
:1014D000A7F1B1FA81F101F01F0105FA01F108420B
:1014E000E2D1207800076DD5A069A8B395FAA5F0E0
:1014F000B0FA80F008EB8000C0F88054FFF7E2FA01
:10150000814607E0FFF7DEFAA0EB0900022801D9C7
:101510000320BCE697FAA7F0B0FA80F040F0600034
:10152000B5EB501F01D130680BE097FAA7F0B0FA85
:1015300080F040F06000B7EB501F01D1306A00E04E
:10154000706A97FAA7F1B1FA81F101F01F0205FA6A
:1015500002F10842D6D035E0FFE795FAA5F0B0FADF
:1015600080F008EB8000C0F880B4FFF7ABFA81464A
:1015700007E0FFF7A7FAA0EB0900022801D9032032
:1015800085E697FAA7F0B0FA80F040F06000B5EB7E
:10159000501F01D130680BE097FAA7F0B0FA80F045
:1015A00040F06000B7EB501F01D1306A00E0706A74
:1015B00097FAA7F1B1FA81F101F01F0205FA02F1E1
:1015C0000842D6D1207840076ED54FF00009F06967
:1015D000C00009D4F06940F08050F061F06900F07B
:1015E000805000904FF001091A480168C90513D4D2
:1015F000016841F480710160FFF764FA824607E0F8
:10160000FFF760FAA0EB0A00642801D903203EE648
:1016100010480068C005F3D5E068012810D0D8B1A3
:10162000052822D0306A20F001003062306A20F0B4
:1016300004003062E068B0B3FFF744FA824627E066
:10164000306A40F001003062F4E700000010024010
:101650000000424200700040306A20F00100306219
:10166000306A20F004003062E4E7306A40F00400A1
:101670003062306A40F001003062DBE7FFF722FAA7
:10168000A0EB0A0141F28830814201D90320FEE536
:1016900097FAA7F0B0FA80F040F04000B5EB501F89
:1016A00003D130680DE017E04CE097FAA7F0B0FAEC
:1016B00080F040F04000B7EB501F01D1306A00E0ED
:1016C000706A97FAA7F1B1FA81F101F01F0105FAEA
:1016D00001F21042D2D02EE0FFF7F4F9824609E081
:1016E000FFF7F0F9A0EB0A0141F28830814201D9FD
:1016F0000320CCE597FAA7F0B0FA80F040F0400064
:10170000B5EB501F01D130680BE097FAA7F0B0FAA3
:1017100080F040F04000B7EB501F01D1306A00E08C
:10172000706A97FAA7F1B1FA81F101F01F0105FA89
:1017300001F21042D4D1B9F1010F03D1F06920F0C8
:101740008050F061E06980B37168C1F381010229C2
:1017500077D04FF080794FF00077022809D099FABE
:10176000A9F0B0FA80F048F820B0FFF7ABF90446D2
:101770005DE099FAA9F0B0FA80F048F820B0FFF7E0
:10178000A1F9824607E0FFF79DF9A0EB0A000228C5
:1017900001D903207BE597FAA7F0B0FA80F040F07A
:1017A0002000400902D0306801E068E0706A97FAD2
:1017B000A7F1B1FA81F101F01F0105FA01F1084228
:1017C000E1D1D4E908100843716821F47411084389
:1017D000706099FAA9F0B0FA80F048F82050FFF74D
:1017E00071F9044606E0FFF76DF9001B022801D9E4
:1017F00003204CE597FAA7F0B0FA80F040F0200003
:10180000400901D0316800E0716A97FAA7F0B0FA98
:1018100080F000F01F0005FA00F00142E3D02EE056
:10182000FFF750F9001B022801D903202FE597FA92
:10183000A7F0B0FA80F040F02000400902D03168F3
:1018400001E00BE0716A97FAA7F0B0FA80F000F0BF
:101850001F0005FA00F00142E2D110E001280CD08F
:101860007068226A00F48031914204D1616A00F408
:101870007010884203D0012009E5012007E500200F
:1018800005E510B5401EB0F1807F01D3012010BDE9
:101890004FF0E02460610F21601701F015F800207F
:1018A000A06107202061002010BD7047704770477D
:1018B0002DE9F04104462268D0691168936840F62A
:1018C0000F0500EA0506002E0AD1850608D58D060B
:1018D00006D5616E00297DD02046BDE8F04108475D
:1018E0000025002E77D0984F03F001060F403743B4
:1018F00071D0C70709D0CF0507D501271762D4F8E3
:10190000802042F00102C4F8802082070AD5DA075D
:1019100008D0276802223A62D4F8802042F00402FC
:10192000C4F8802042070AD5DA0708D023680422C9
:101930001A62D4F8802042F00202C4F88020020724
:101940000CD501F02002324308D0236808221A6225
:10195000D4F8802042F00802C4F8802002050BD59C
:101960004A0109D523684FF400621A62D4F8802036
:1019700042F02002C4F88020D4F88020002A35D01C
:10198000800605D5880603D5616E09B120468847D3
:10199000D4F8800021688968490602D410F0280F25
:1019A0002AD0204600F078FC2068806840061FD5C9
:1019B0002068083050E8001F21F0400140E8001284
:1019C000002AF5D1206F70B160494163206FFEF7A6
:1019D00074FF01E00AE015E0002807D0206F416B9A
:1019E000BDE8F04108472046FFF761FFBDE8F08100
:1019F0002046FFF75CFFF9E72046FFF758FFC4F8E1
:101A00008050F3E7266E012E7ED1C6067CD5CE0629
:101A10007AD510201062206880684FF020034006BD
:101A200043D5216F0868406880B20028DED0B4F842
:101A300058208242DAD9A4F85A00886920282AD08E
:101A4000206850E8001F21F4807140E80012002A4D
:101A5000F6D12068083050E8001F21F0010140E86D
:101A60000012002AF5D12068083050E8001F21F04C
:101A7000400140E80012002AF5D1E367256620689E
:101A800050E8001F21F0100140E80012002AF6D1B2
:101A9000206FFEF7EFFEB4F85800B4F85A10401A61
:101AA00081B22046FFF701FFA0E734F8580F6188A4
:101AB000401A81B26088583C002897D0002995D000
:101AC000206850E8002F22F4907240E80026002E93
:101AD000F6D12068083050E8002F22F0010240E8DB
:101AE0000026002EF5D1E36725666566206850E87C
:101AF000002F22F0100240E80023002BF6D12046F0
:101B0000FFF7D3FE72E7FFE7C50209D55B0207D5F1
:101B10004FF4801010622046BDE8F041FFF7C6BECA
:101B2000020608D50A0606D5A16E0029BCD02046BB
:101B3000BDE8F04108474006B6D54806B4D5204672
:101B4000BDE8F04100F0CDBB200100048522000873
:101B500010B50446002C02D0A06F10B107E00120A0
:101B600010BD002084F87400204600F027F82420DF
:101B7000A0672068016821F001010160204600F0A3
:101B80005DFC012818D0606A10B1204600F0E6FA2A
:101B90002068416821F4904141602068816821F00B
:101BA0002A0181602068016841F00101016020463E
:101BB000BDE8104000F036BB012010BD10B586B066
:101BC0000446142101A8FEF7C6FB17492068884285
:101BD00028D11648816941F480418161816901F40D
:101BE00080410091416941F400314161406900F454
:101BF000003000904FF4C06001900220029000205D
:101C00000390032004900720059001A94FF0904015
:101C1000FEF778FE002211462520FEF7B9FF2520A9
:101C2000FEF7A8FF06B010BD0038014000100240CA
:101C300030B4C36F202B02D0022030BC7047C9B132
:101C4000C2B190F87430012B16D0012380F87430A3
:101C50000023036603685B681B0208D5036853E82A
:101C6000004F44F0806443E80045002DF6D130BCBD
:101C700000F0F4BC0120E0E70220DEE708498842DA
:101C80000CD10849002008700748016841F00201A2
:101C90000160042205490248FFF7CABF70470000EF
:101CA0002803002010000020080000200C00002065
:101CB000836F202B01D002207047B9B1B2B190F8E8
:101CC0007430012B14D0012380F87430C164A0F863
:101CD0005020A0F8522000218166C0F880102122F7
:101CE00082678268B2F5805F04D005E0012070470A
:101CF00002207047026972B1084A826680F8741047
:101D0000016851E8002F42F0800241E80023002BD7
:101D1000F6D100207047024A8266EFE749270008A3
:101D2000F926000810B50649884207D10422054962
:101D30000348FFF77DFF04490020486010BD000004
:101D4000280300200C00002010000020FEE7000007
:101D50002DE9F04186B0142101A8FEF7FCFA2848CD
:101D6000416941F400214161416901F40021009180
:101D7000416941F480014161416901F480010091B0
:101D8000416941F400314161416901F40031009140
:101D9000416941F480214161406900F48020009054
:101DA000DFF860804FF40054002221464046FEF7E1
:101DB00083FE154FA600002231463846FEF77CFE12
:101DC00001940125029500240394049401A940463E
:101DD000FEF798FD019602950394049401A93846F4
:101DE000FEF790FD1020019003200290039401A9BA
:101DF0004FF09040FEF786FD06B0BDE8F081000090
:101E000000100240000800480004004810B50A48CD
:101E100008490160002141600C22C26020228260DA
:101E200001614162FEF7F8FE002801D0FEF720FDB7
:101E300010BD000038000140AC03002010B50A4876
:101E400008490160002141600C22C26020228260AA
:101E500001614162FEF7E0FE002801D0FEF708FDB7
:101E600010BD00003C000140E003002010B509480F
:101E700007490160602141600C21C16000210161BE
:101E80004162FEF7C9FE002801D0FEF7F1FC10BD4B
:101E9000400001401404002010B5094807490160C2
:101EA000602141600421C160002101614162FEF7AF
:101EB000B3FE002801D0FEF7DBFC10BD440001405A
:101EC0004804002010B50C49202008700C480B492C
:101ED00001600C49416000218160C16001610C22F8
:101EE00042618161C16101624162FFF731FE0028F8
:101EF00001D0FEF7BDFC10BD25E400E00038014034
:101F000028030020C0C62D000123134A05280ED047
:101F100003EBD111002000FB01F322F81030401C2C
:101F200080B28028F7D30D4801680260704703EB48
:101F300091130020412804D200FB03F122F8101075
:101F400005E0C0F1800132F8111022F81010401C99
:101F500080B28028EED3E6E7280000203C0402404F
:101F6000FEE7FEE7016841F001010160704770473C
:101F70007047FEF7ADBD70B59EB0282114A8FEF7DE
:101F8000EAF914210FA8FEF7E6F93C216846FEF7AE
:101F9000E2F901251495280415900024169418954B
:101FA00002261B961C904FF4E0101D9014A8FFF71A
:101FB00055F908B1FEF75CFC0F200F9010961194B4
:101FC0004FF480601290139402210FA8FFF702F8DB
:101FD00008B1FEF74DFC009502946846FEF7EEFE50
:101FE000002801D0FEF744FC1EB070BD0248016815
:101FF00041F470010160704788ED00E00F48C1694D
:1020000041F00101C161800481680D4A1140816085
:1020100000210160816A6FF30F018162C16A40F2A1
:10202000F311C162016821F010010160416821F0E3
:10203000700141F020014160704700000010024033
:10204000F8FFFEFF10B50B480168C90710D0016802
:1020500021F001010160084901200870074C207837
:1020600020B1042206490748FFF7E2FD0020207056
:1020700010BD0000100400400400002010000020EB
:102080000C0000202803002010B51C48C16941F055
:102090000201C1611A4801681A4A114001601848DA
:1020A000002108380160164920310A686FF30F02D9
:1020B00042F013020A60091D0A6841F61F420A60D5
:1020C0000F49091D0A6842F001020A60016821F007
:1020D00010010160011D0A6822F0700242F0200226
:1020E0000A60016841F00101016004211D2000F037
:1020F000DBFBBDE810401D2000F0C9BB0010024012
:1021000008040040F8FFFEFF1148816941F40051C6
:10211000816110480168104A114001600D4800219A
:10212000083801600B4920310A686FF30F020A601A
:10213000091D0A687C220A60016821F01001016013
:10214000001D016821F0700141F02001016070471D
:102150000010024008340140F8FFFEFF90F8241000
:10216000C90706D001684A68836A22F400321A431C
:102170004A6090F82410890706D501684A68C36A46
:1021800022F480321A434A6090F82410490706D599
:1021900001684A68036B22F480221A434A6090F86F
:1021A0002410090706D501684A68436B22F40042EF
:1021B0001A434A6090F82410C90606D501688A6857
:1021C000836B22F480521A438A6090F824108906A7
:1021D00006D501688A68C36B22F400521A438A60EC
:1021E00090F82410490611D501684A68036C22F45E
:1021F00080121A434A60016CB1F5801F06D1016854
:102200004A68436C22F4C0021A434A6090F82410D2
:10221000090606D501684A68806C22F40022024350
:102220004A607047F8B504460025C4F88050FEF7B0
:1022300049FC0746206800686FF07E4600070AD513
:102240003B4600224FF400112046009600F0A2FA0F
:1022500008B10320F8BD2068006840070AD53B4656
:1022600000224FF480012046009600F093FA08B156
:102270000320F8BD2020A067E067256684F874502D
:102280000020F8BD10B5406A0021A0F85A10A0F84F
:102290005210FFF70CFB10BD016851E8002F22F42B
:1022A000907241E80023002BF6D10168083151E813
:1022B000002F22F0010241E80023002BF5D1016E2E
:1022C000012908D1016851E8002F22F0100241E8ED
:1022D0000023002BF6D12021C16700210166416651
:1022E000704710B5016851E8002F22F0400241E824
:1022F0000023002BF6D12021816700218166FFF7A2
:1023000011FD10BD10B5B0F85C20C36F0168222B21
:1023100004D0886940F00800886110BD898C50F8AD
:10232000543F114019800168891C0160C188491E11
:10233000C180C18854380029EFD1016851E8002FCD
:1023400022F4907241E80023002BF6D10168083195
:1023500051E8002F22F0010241E80023002BF5D1C3
:102360002021C16700214166026E012A02D0FFF7D9
:1023700085FC10BD0166016851E8002F22F01002B3
:1023800041E80023002BF6D10168CA69D243D20686
:1023900001D410220A62B0F85810FFF786FA10BD77
:1023A00010B5B0F85C20C36F0168222B04D0886997
:1023B00040F00800886110BD898C114050F8542FFE
:1023C00011700168491C0160C188491EC180C18823
:1023D00054380029EFD1016851E8002F22F490729F
:1023E00041E80023002BF6D10168083151E8002FA5
:1023F00022F0010241E80023002BF5D12021C16722
:1024000000214166026E012A02D0FFF737FC10BDA1
:102410000166016851E8002F22F0100241E8002314
:10242000002BF6D10168CA69D243D20601D410222A
:102430000A62B0F85810FFF738FA10BD70B50446BC
:102440000025A1682069E2690143606910430143E6
:102450002068026849F20C639A430A4302602068CC
:102460004168E26821F4405111434160A069216A4A
:1024700001432068826822F430620A438260704A15
:1024800020687049904213D1086B10F0030007D008
:10249000012809D0022809D0032803D0102170E0B8
:1024A00001216EE002216CE004216AE0082168E06D
:1024B000654A904216D1086B10F440300AD0B0F54E
:1024C000803F0BD0B0F5003F0AD0B0F5403F03D0BD
:1024D000102156E0002154E0022152E0042150E096
:1024E00008214EE0594A904216D1086B10F4402062
:1024F0000AD0B0F5802F0BD0B0F5002F0AD0B0F580
:10250000402F03D010213CE000213AE0022138E0C6
:10251000042136E0082134E04D4A904216D1086B80
:1025200010F440100AD0B0F5801F0BD0B0F5001F9A
:102530000AD0B0F5401F03D0102122E0002120E096
:1025400002211EE004211CE008211AE0414A9042C9
:1025500016D1086B10F440000AD0B0F5800F0BD0F4
:10256000B0F5000F0AD0B0F5400F03D0102108E0FD
:10257000002106E0022104E0042102E0082100E03D
:102580001021E3694FF40040334A4FF6EF7683425F
:102590002CD1092911D2DFE801F005080B100D102C
:1025A00010101200FEF7F8FD09E0FEF70BFE06E042
:1025B000104604E0FEF71CFE01E000200125C0B338
:1025C0004100606801EB5001B1FBF0F080B2A0F176
:1025D0001001B14208D84FF6F0710140C0F342003B
:1025E00001432068C16026E0012524E0092911D2B9
:1025F000DFE801F005080B100D1010101200FEF7B7
:10260000CBFD09E0FEF7DEFD06E0104604E0FEF734
:10261000EFFD01E00020012558B1616800EB510099
:10262000B0FBF1F080B2A0F11001B14202D82168F4
:10263000C86000E0012500206066A066284670BDE5
:1026400000380140001002400044004000480040B3
:10265000004C00400050004000127A0030B5416547
:10266000A0F85820A0F85A200024446681684FF44E
:102670008055FF22A94209D1016911B1A0F85C205F
:1026800007E040F2FF11A0F85C1002E019B3A0F8D7
:102690005C40C0F880402221C1670168083151E8E0
:1026A000002F42F0010241E80023002BF5D18168A0
:1026B000A94201D10169B9B10D49416680F8744060
:1026C000016851E8002F42F4907241E80023002B8A
:1026D000F6D1002030BD016919B17F21A0F85C104E
:1026E000D7E7A0F85C20D4E702494166E6E700009E
:1026F000A123000805230008816F212910D1B0F81B
:10270000521071B1C16C02680988C1F308011185CA
:10271000C16C891CC164B0F85210491EA0F8521057
:102720007047016851E8002F22F0800241E8002341
:10273000002BF6D1016851E8002F42F0400241E839
:102740000023002BF6D17047816F21290ED1B0F8FC
:10275000521061B1C16C026809781185C16C491CC5
:10276000C164B0F85210491EA0F8521070470168B9
:1027700051E8002F22F0800241E80023002BF6D11F
:10278000016851E8002F42F0400241E80023002B8D
:10279000F6D170472DE9F0470446089D88469146DA
:1027A0009A460027202648E0681C46D0FEF78AF9A2
:1027B000A0EB0A00A84227D835B320680168490772
:1027C0003BD5C069C043000537D421684FF4006091
:1027D0000862206850E8001F21F4D07140E8001220
:1027E000002AF6D12068083050E8001F21F00101CE
:1027F00040E80012002AF5D174346660A660E660F5
:1028000027700320BDE8F087206850E8001F21F4FE
:10281000D07140E80012002AF6D12068083050E854
:10282000001F21F0010140E80012002AF5D1A6673F
:10283000E66784F874700320E4E72068C06938EA2A
:10284000000004D000204845AED00020DAE7012087
:10285000F9E7000009480068C06980060BD50849FF
:102860000878401C087007490878012803D1064AF7
:102870000020106008700148FFF71AB828030020F4
:10288000100000200400002024040040FEE700287F
:1028900009DB00F01F02012191404009800000F196
:1028A000E020C0F8001170470907090E002804DB7A
:1028B00000F1E02080F80014704700F00F0000F1F4
:1028C000E02080F8141D70470907090E002804DB7A
:1028D00000F1E02080F80014704700F00F0000F1D4
:1028E000E02080F8141D7047FEF7FAF8FFF743FB6D
:1028F000FFF72EFAFFF7D0FAFFF788FAFFF79EFAF4
:10290000FFF7B4FAFFF7DEFA3948FFF72BFB384838
:10291000001DFFF727FB36480830FFF723FB34483C
:102920000C30FFF71FFBFDF77BFDFDF78DFEFFF77A
:1029300065FBFFF7E9FBFFF7A7FB2E4E718805202B
:10294000FFF7E2FA01203070371D386840F00100CF
:1029500038600422391D2848FFF76AF900253C1D1C
:102960002078012808D1617831B17068FDF762FFE5
:102970007068FDF733FEF3E7022819D003281ED054
:1029800004281FD0052824D0062829D00728E7D1FD
:1029900038688107E4D5A178E27801EB02217180E3
:1029A00061782170A570E57020F002003860D7E7EB
:1029B00025701248016821F001010160D0E7FEF79F
:1029C00019F9CDE7257004220DA10B48FFF770F926
:1029D000C6E72570657071880520FFF795FABFE797
:1029E0002570657071880620FFF78EFAB8E7000041
:1029F000380001400400002028030020003401407A
:102A000054455354000000004FF04070E1EE100AAE
:102A1000704702030405060708090A0B0C0D0E0F88
:102A200010100102030405060708090A0B0C0D0E1D
:102A30000F10000000000000000001020304060760
:102A40000809000000000102030400006C2A0008CD
:102A50000000002028000000C4010008942A00089B
:102A600028000020B82A0000E00100080000000053
:102A70000000FA0F0000000000000000000000004D
:102A80000000000001000000100000000000000035
:042A900000127A00B6
:040000050800018965
:00000001FF
