:020000040800F2
:10000000E82A002029020008DD1A0008AD180008BF
:10001000D91A0008ED040008B92400080000000007
:100020000000000000000000000000001D1B000890
:100030007107000800000000191B0008511B000890
:10004000430200084302000843020008430200087C
:10005000430200084302000843020008430200086C
:10006000430200084302000843020008310600086A
:10007000430200084302000843020008430200084C
:10008000430200084302000843020008430200083C
:10009000430200084302000843020008430200082C
:1000A000430200084302000843020008430200081C
:1000B00043020008391C00084302000843020008FC
:1000C00043020008430200084302000843020008FC
:1000D000430200086D2400084302000843020008A0
:1000E00043020008430200084302000843020008DC
:1000F00043020008430200084302000843020008CC
:1001000000000000000000000000000043020008A2
:1001100043020008430200084302000843020008AB
:1001200043020008430200083507000843020008A4
:100130004302000843020008000000000000000025
:1001400043020008430200084302000800000000C8
:10015000000000000000000000000000000000009F
:1001600000000000000000004302000843020008F5
:100170004302000800000000000000000000000032
:10018000000000004302000800F002F800F03CF814
:100190000AA090E8000C82448344AAF10107DA45E2
:1001A00001D100F031F8AFF2090EBAE80F0013F0F8
:1001B000010F18BFFB1A43F0010318475C2500002C
:1001C0007C250000103A24BF78C878C1FAD85207BD
:1001D00024BF30C830C144BF04680C6070470000C1
:1001E0000023002400250026103A28BF78C1FBD840
:1001F000520728BF30C148BF0B6070471FB502F0DF
:1002000061FA1FBD10B510BD00F058F81146FFF798
:10021000F5FF02F0BFF900F076F803B4FFF7F2FF44
:1002200003BC00F07DF800000948804709480047FA
:10023000FEE7FEE7FEE7FEE7FEE7FEE7FEE7FEE796
:10024000FEE7FEE704480549054A064B70470000F3
:10025000D11B000889010008E8240020E82A0020BA
:10026000E8260020E82600204FF0000200B51346E3
:1002700094469646203922BFA0E80C50A0E80C50C6
:10028000B1F12001BFF4F7AF090728BFA0E80C5077
:1002900048BF0CC05DF804EB890028BF40F8042B70
:1002A00008BF704748BF20F8022B11F0804F18BFDD
:1002B00000F8012B7047704770477047754600F093
:1002C0002BF8AE4605006946534620F007008546E8
:1002D00018B020B5FFF7B6FFBDE820404FF000068C
:1002E0004FF000074FF000084FF0000BAC46ACE8B1
:1002F000C009ACE8C009ACE8C009ACE8C00921F00D
:1003000007018D46704710B50446AFF300802046C4
:10031000BDE81040FFF781BF004870471000002083
:1003200001491820ABBEFEE726000200704700001E
:1003300080B541F21401C4F20201086840F0805017
:1003400008600A680C2042F00102C5F200000A6051
:10035000D0F8FC2242F48032C0F8FC228A6942F4D0
:1003600080728A610A6842F080520A60D0F8FC12FA
:10037000072241F00601C0F8FC12D0F8FC1241F44B
:100380000051C0F8FC12D0F8FC1241F40041C0F852
:10039000FC12D0F8FC1221F48071C0F8FC12016844
:1003A00021F008010160016821F010010160416A3B
:1003B00041F0C0014162016841F020010160016823
:1003C00062F3891101600168012262F38B210160EF
:1003D000816862F34B218160016841F00101016095
:1003E000D0F8001121F00801C0F80011D0F8001178
:1003F00021F01001C0F80011D0F8241141F0C00123
:10040000C0F82411D0F8001141F02001C0F800110B
:10041000D0F80C1162F34B21C0F80C1150F8041CF9
:1004200041F0004140F8041C50F8041C0029FBD4A2
:10043000D0F8FC1041F00041C0F8FC10D0F8FC10DE
:100440000029FBD450F8041C41F0010140F8041CC1
:1004500050F8041C41F0040140F8041CD0F8FC10D2
:1004600041F00101C0F8FC100821C4F2020100F5BE
:1004700040708A688860C86840F27000C2F200006C
:10048000C860086840F002000860086840F0040096
:100490000860086820F010000860086840F020003C
:1004A0000860086820F480500860086840F0800008
:1004B0000860086820F040000860086840F4007098
:1004C0000860086840F400600860486840F08000F8
:1004D0004860086840F0010008600B20012102F02C
:1004E0001DF80B2001F0EAFF80BD0000FEE70000D0
:1004F000400758BF704780B540F27C30C2F2000020
:10050000017840F2743201F0FA01C2F200020023D5
:1005100001311370017040F2D44140F27032C2F2E6
:1005200000010120C2F20002087042F2D84013809C
:10053000C2F200000078487040F27630C2F200004B
:10054000028852024A80038040F25040C2F200000A
:1005500042F2040201F04EF9BDE88040704700000D
:1005600080B541F21400C4F2020081680B2241F010
:1005700000518160016841F00201016047F20041D1
:10058000C4F20001086840F001000860086840F407
:1005900080500860086862F30B2008600868042235
:1005A00062F3C5000860086840F00400086048680D
:1005B00020F00100486040F23040C4F202000831EF
:1005C00082688160C16840F27021C2F20001C1609E
:1005D000016841F002010160016841F01001016011
:1005E000016841F020010160016821F4805101603F
:1005F000016841F080010160016821F04001016063
:10060000016841F480710160016841F4806101601A
:10061000416841F080014160016841F001010160E1
:100620003A20002101F07AFF3A2001F047FF80BD17
:1006300080B540F2763CC2F2000CBCF800100422F7
:10064000CB0142F2DC41C2F20001C4F202020B60B3
:1006500052F8043C5B0753D452F8043C9B0758BF44
:1006600080BD136843F002031360096840F2D4426E
:10067000C2F2000202EB810140F2700301F58271C7
:100680000022C2F2000300BF03EB8200D0F8000199
:1006900041F822000132402AF6D1BCF8001010299E
:1006A0009ABFBCF80000411C0021ACF8001042F2D7
:1006B000D841C2F20001BCF800000978B0EB810F0C
:1006C00015D14FF08040016821F00101016043F233
:1006D0000040C4F20100016821F00101016040F214
:1006E0007C30C2F20000017841F00401017040F654
:1006F0000000C4F600004FF4005100F071F918E05A
:10070000106840F004001060086840F2D441C2F262
:10071000000101EB800040F2700204300021C2F2BF
:10072000000200BF52F8213040F821300131402949
:10073000F8D180BD10B540F20444C4F2020454F86C
:10074000040C800558BF10BD40F20040C4F6000004
:100750004FF4004100F044F9206840F480702060BC
:1007600040F27430C2F2000001780131017010BD16
:1007700070470000C00708BF70474FF08040016815
:1007800041F00101016043F20040C4F20100016840
:1007900041F00101016040F27030C2F20000407887
:1007A00042F2D841C2F200010870704772B600BF31
:1007B000FEE70000014690F82100022813D10868E6
:1007C000D1E90FC3026822F00E020260026822F033
:1007D00001020260012000FA03F2CCF8042081F843
:1007E0002100002002E0042088630120002281F81B
:1007F0002020704780B590F8211002291BD1026893
:10080000D0F834E0D0E90FC31168BEF1000F21F039
:100810000E011160116821F0010111604FF001011A
:1008200001FA03F1CCF804104FF48071018406D072
:10083000F047002080BD04218163012080BD00209D
:1008400080BD00002DE9F04F83B00D68002D00F051
:10085000C38000F138424FEAB22241F20007019210
:10086000C4F600070522002600244FF0010AB84212
:1008700008BF0422009209E00D68043435FA0AF238
:100880000AF1010A06F1020600F0A680AAF1010CA5
:10089000012202FA0CFB15EA0B09EDD0D1F8048015
:1008A00008F00305A5F1010EBEF1010F11D887680C
:1008B0000322CB68B24027EA0202B3401A438260A7
:1008C0004268C8F3001322EA0B0203FA0CF31A433E
:1008D0004260032D1CD0C26803238F68B3409A4343
:1008E00007FA06F31A43022DC26011D16FF003021A
:1008F00002EA5C02024404F01C070F23D2F820E055
:1009000003FA07F50B692EEA0505BB402B4313627A
:10091000026803234F68B3409A4307F00303B340D0
:100920001A4317F4403F0260A6D041F21803C4F204
:1009300002031A684FF6084842F001021A601A686A
:10094000CFF6FF7802F001020292029A2CF0030225
:1009500040F2004CC4F2010C624452F8083004F03A
:100960000C070F25BD4023EA050E019B009D042BBB
:1009700038BF1D4605FA07F747EA0E0342F808306C
:10098000DCF800204B6842EA0907DD0358BF22EA81
:100990000907CCF80070DCF804209D0342EA09073F
:1009A00058BF22EA0907CCF80470DCF80820DD0201
:1009B00042EA090740F20C4558BF22EA0907CCF881
:1009C0000870C4F201052A689B0242EA090758BF71
:1009D00022EA09072F604FE703B0BDE8F08F00005F
:1009E000426902EA0103914341EA03418161704790
:1009F0001823002A08BF2823C150704742F2E04064
:100A0000C2F200000068704740F2060042F2E04186
:100A1000C2F20000C2F2000100780A6810440860C7
:100A20007047000080B542F20000C4F20200016885
:100A300041F010010160032000F05EF80F2000F08B
:100A400005F800F02BF8002080BD0000B0B540F2A2
:100A50000602C2F2000240F200011278C2F2000166
:100A60004FF47A730968B3FBF2F20446B1FBF2F17A
:100A7000084600F0A3FC0F2C4FF001050CD858B924
:100A80004FF0FF3021460022002500F025F840F20B
:100A90000800C2F2000004602846B0BD82B041F2F6
:100AA0001800C4F20200016841F001010160016810
:100AB00001F0010101910199416841F080514160CB
:100AC000406800F080500090009802B0704700002D
:100AD00080B501F003FD80BD70B514460D46064695
:100AE00001F00CFD2946224600F0FAFF014630468F
:100AF00001F01CFD70BD000080B501F029FD80BD36
:100B000001F036FD2DE9F04182B040B1044690F885
:100B10003200052803D094F83200022803D10120C6
:100B200002B0BDE8F08141F21800C4F20200016891
:100B300043F6110641F0010101600068CEF20006A3
:100B400000F001000190019894F83200002804BFE1
:100B5000002084F83100204600F03EF8636843F03E
:100B60002000602809D1D4F80080E568D8F800207A
:100B700004F1100E32402B430DE0D4F80080D4E98C
:100B8000021C2269D8F800500B432E40334304F175
:100B9000140E43EA0C03DEF800701A43D4E906365B
:100BA0003A43D4E908511A433243D4F828C02A43BF
:100BB000E06A114341EACC4141EA0060C8F8000014
:100BC00094F83200002804BF012084F8320000208D
:100BD00002B0BDE8F081000080B586B000684FF635
:100BE000C871CBF6FE7108444FEAB000002103281B
:100BF000CDE90411CDE9021101914ED8DFE800F0F2
:100C00000211233241F21400C4F20200016841F4DF
:100C100000310160006800F40030009000980E2060
:100C20000DE041F21400C4F20200016841F4003109
:100C30000160006800F4003000900098E02001900E
:100C40004FF0904022E041F21400C4F2020001682B
:100C500041F480210160006800F480200090009839
:100C600003200EE041F21400C4F20200016841F4D6
:100C700080210160006800F48020009000984FF40B
:100C8000C050019040F20040C4F6000003210291E0
:100C90000021039101A9FFF7D5FD06B080BD00003A
:100CA0002DE9F04182B00446807841F23006C00759
:100CB000C4F2020656D056F8140C10F080580BD12E
:100CC00056F8140C40F0805046F8140C56F8140CEA
:100CD00000F080500190019847F20007C4F200072D
:100CE0003868C00512D4386840F480703860FFF767
:100CF00085FE05463868C00508D4FFF77FFE401B17
:100D00006428F7D9032002B0BDE8F08156F8100C32
:100D100010F4407015D0616801F44071884210D021
:100D200056F8100C40F24042C4F24222012320F453
:100D3000407113600023C007136046F8101C40F098
:100D4000A28056F8100C616820F440700843B8F196
:100D5000000F46F8100C05D156F8140C20F0805006
:100D600046F8140C2068C1071BD1810721D4410724
:100D700027D481062DD4810333D441063BD4010707
:100D800041D4C10647D481054DD4010655D4C105CF
:100D90005DD4C10465D480046BD4002002B0BDE8EA
:100DA000F0813168A26821F00301114331608107AD
:100DB000DDD53168E26821F44031114331604107EB
:100DC000D7D53168226921F4402111433160810671
:100DD000D1D53168E26921F01001114331608103FE
:100DE000CBD556F82C1CA26B21F48001114346F898
:100DF0002C1C4106C3D53168226A21F02001114321
:100E000031600107BDD53168626921F44011114399
:100E10003160C106B7D53168A26921F440011143A0
:100E200031608105B1D556F82C1CE26A21F400012D
:100E3000114346F82C1C0106A9D556F8041C626A19
:100E400021F4F871114346F8041CC105A1D556F8E8
:100E5000041CA26A21F47851114346F8041CC10411
:100E600099D53168226B21F480711143316080047F
:100E700093D53068616B20F4007008433060002027
:100E800002B0BDE8F081FFF7B9FD054641F28837B1
:100E900056F8100C80073FF554AFFFF7AFFD401B2D
:100EA000B8424FF00300F3D9EAE700002DE9F04320
:100EB00081B0002878D042F20008C4F2020804464B
:100EC000D8F800000D4600F0070088420CD2D8F890
:100ED000000020F007002843C8F80000D8F8000000
:100EE00000F00700A8425FD1206841F204098107A1
:100EF000C4F2020907D5D9F80010A26821F0F00168
:100F00001143C9F80010C00745D1D8F8000000F01F
:100F10000700A8420CD9D8F8000020F007002843A9
:100F2000C8F80000D8F8000000F00700A8423BD144
:100F30002068410707D5D9F80010E26821F4E06184
:100F40001143C9F80010000708D5D9F8000021693D
:100F500020F4605040EAC100C9F8000000F078F8C1
:100F6000D9F8001042F2DE62C1F30311C0F60002AC
:100F7000515C40F2000220FA01F140F20800C2F296
:100F800000000068C2F200021160FFF75FFD002060
:100F900001B0BDE8F0836068022809D0012828D19B
:100FA00059F8041C890307D4012001B0BDE8F0837F
:100FB00059F8041C8901F7D5D9F8001021F0030174
:100FC0000843C9F80000FFF719FD064641F28837CB
:100FD000D9F80000616800F00C00B0EB810F94D0EC
:100FE000FFF70CFD801BB842F2D9032001B0BDE829
:100FF000F08359F8041C8907D6D5DDE740F20000DC
:10100000C2F200000068704780B5FFF7F7FF41F2B9
:101010000401C4F20201096842F2EE62C1F3022146
:10102000C0F60002515CC84080BD000080B5FFF7EB
:10103000E5FF41F20401C4F20201096842F2EE62E6
:10104000C1F3C221C0F60002515CC84080BD00005F
:1010500041F2040CC4F2020CDCF8003003F00C0086
:10106000082841F20020C0F27A0018BF704742F20F
:10107000F661C3F38342C0F600018A5CDCF82810F5
:10108000DB0305D440F60010C0F23D00504370472A
:1010900042F2067301F00F01C0F60003595CB0FB89
:1010A000F1F05043704700002DE9F04182B0002874
:1010B00000F08F800446007841F20006C007C4F2B9
:1010C00002064BD0706800F00C00042806D130688E
:1010D000800343D56068002840D17AE0706800F052
:1010E0000C00082802D17068C003F0D465682DB1E7
:1010F000B5F5A02F0AD0B5F5803F0BD0306820F4AD
:1011000080303060306820F4802006E0306840F4A1
:1011100080203060306840F480303060F06AA16830
:1011200020F00F000843F062FFF768FC002D054631
:1011300011D000BF3068800310D4FFF75FFC401B64
:101140006428F7D908E100BFFFF758FC401B64286A
:101150004FF003003AD830688003F5D42078800738
:1011600018D5706810F00C0F07D0706800F00C00F4
:1011700008286CD17068C00369D43068800702D534
:101180002069012825D13068616920F0F80040EA23
:10119000C1003060207800071FD42078400732D487
:1011A000E56995B1706800F00C00082840F088806F
:1011B000012D0ED07068216A00F480328A4208D175
:1011C000616A00F47010884203D1002002B0BDE8CB
:1011D000F081012002B0BDE8F081A06900285BD059
:1011E0000020C4F242200121C0F88014FFF706FC61
:1011F000054600BF706A8007CFD4FFF7FFFB401B96
:101200000228F7D9A8E0F06910F0805808D1F069F9
:1012100040F08050F061F06900F08050019001983A
:1012200047F20007C4F200073868C00526D43868C2
:1012300040F480703860FFF7E1FB05463868C00570
:101240001CD4FFF7DBFB401B6428F7D984E020693E
:10125000002840F20000C4F2422053D00121016076
:10126000FFF7CCFB054600BF306880073FF58BAF2A
:10127000FFF7C4FB401B0228F6D96DE0E5681DB1FD
:10128000052D51D0012D53D0306A20F0010030627D
:10129000306A20F004004EE00020C4F24220002119
:1012A000C0F88014FFF7AAFB054600BF706A8007EC
:1012B0007FF573AFFFF7A2FB401B0228F6D94BE086
:1012C0000027C4F2422700203866FFF797FB022D63
:1012D00005460BD13068800156D5FFF78FFB401BC8
:1012E00002284FF00300F5D970E700BF3068800195
:1012F0007FF56BAFFFF782FB401B02284FF0030026
:10130000F4D963E700210160FFF778FB054600BFD1
:10131000306880077FF53EAFFFF770FB401B022867
:101320004FF00300F4D951E7306A40F00400306216
:10133000306A40F001003062FFF760FB002D054687
:1013400041F2883714D000BF306A800713D4FFF70A
:1013500055FB401BB842F7D9032002B0BDE8F0812D
:10136000FFF74CFB401BB8424FF003003FF62EAF97
:10137000306A8007F4D4B8F1000F7FF411AFF06940
:1013800020F08050F0610BE77068D4E9082120F468
:10139000741008431043706001203866FFF72EFB7D
:1013A000044600BF306880013FF50FAFFFF726FB12
:1013B000001B02284FF00300F4D907E780B500F0C6
:1013C000AFFB80BD70470000704700007047000011
:1013D000B0B50446006840F62F03C169026885680D
:1013E0000B40202B02F0200E07D1BEF1000F04D0DD
:1013F000616E99B320468847B0BD40F60F0319428D
:1014000013D040F22013C0F2004305F0010C13404A
:1014100013EB0C0309D0CB0718BF12F4807340F014
:10142000A2808B0700F1A980B2E0D4F860C00A4026
:10143000D3063AD5BCF1010F37D110210162806883
:1014400040063ED4B4F85800B4F85A10B4F85A2004
:10145000002A1CBF401A5FEA004101D1B0BD00BFA5
:10146000216851E8001F226821F4907142E80013BE
:10147000002BF5D1216851E8021F226821F00101FB
:1014800042E80213002BF5D12021E16700212166FB
:10149000616600BF216851E8001F226821F0100139
:1014A00042E80013002BF5D14EE0C90251D515F4E6
:1014B00080014ED04FF4801101622046FFF784FF77
:1014C000B0BD206F016849688AB2002AC6D0B4F85E
:1014D00058309A42C2D2A4F85A10806920282ED0DF
:1014E000206850E8000F216820F4807041E8000275
:1014F000002AF5D1206850E8020F216820F0010091
:1015000041E80202002AF5D1206850E8020F216864
:1015100020F0400041E80202002AF5D12020E067D7
:1015200000202066206850E8000F216820F010009D
:1015300041E80002002AF5D1206FFFF73BF9B4F82B
:101540005800B4F85A10401A81B22046FFF73AFF0B
:10155000B0BD100600F18780500658BFB0BD2046D0
:1015600000F0CEFCB0BD01230362D4F8803043F01C
:101570000103C4F880308B070AD5BCF1000F07D0F7
:1015800002230362D4F8803043F00403C4F88030AF
:101590004B070AD5BCF1000F07D004230362D4F82F
:1015A000803043F00203C4F880300B070AD55CEAB0
:1015B0000E0307D008230362D4F8803043F00803F9
:1015C000C4F880300B050BD512F0806308D04FF4BF
:1015D00000630362D4F8800040F02000C4F880006B
:1015E000D4F8800000283FF439AF02EA01008006F9
:1015F00003D5616E09B1204688472068D4F8801071
:10160000806801F0280100F04000401824D02046F6
:1016100000F04EFC20688068400619D5206850E82C
:10162000020F216820F0400041E80202002AF5D1B3
:10163000206F68B141F69D61C0F600014163FFF77C
:10164000D9F800283FF40AAF206F416B8847B0BD3E
:101650002046FFF7BBFEB0BD2046FFF7B7FE0020D7
:10166000C4F88000B0BDA16E00297FF4C3AEF5E6DA
:1016700010B5A0B10446806F28B9002084F874002A
:10168000204600F025F82420A0672068016821F09A
:1016900001010160204600F0EBFC012801D101208E
:1016A00010BD606A10B1204600F04EFB2068416812
:1016B00021F490414160816821F02A018160016834
:1016C00041F001010160204600F0B2FB10BD0000B6
:1016D00080B586B0006843F60002C4F20102002122
:1016E0009042CDE90411CDE90211019101D006B07B
:1016F00080BD41F21400C4F20200426842F480420C
:101700004260426802F480420092009A026842F409
:1017100000320260006800F40030009000984FF43E
:10172000C06001900220CDE902010320049007204F
:10173000059001A94FF09040FFF784F82520002183
:101740000022FFF7C9F92520FFF7C2F906B080BDD6
:1017500080B5C36F202B0BD100294FF0010318BFB8
:10176000002A01D1184680BD90F87430012B01D1B8
:10177000022080BD012380F87430002303660368D3
:101780005B681B020CD500BF036853E800CFD0F89C
:1017900000E04CF080634EE8003CBCF1000FF3D158
:1017A00000F052FD0023184680BD000040F2504179
:1017B000C2F20001884218BF704780B540F27C3207
:1017C000C2F2000240F278301378C2F20000002129
:1017D000017043F00200107040F2504040F270314E
:1017E000C2F20000C2F200010422FFF7B1FFBDE81F
:1017F00080407047836F202B0BD100294FF00103ED
:1018000018BF002A01D11846704790F87430012B98
:1018100001D1022070470123C164002180F8743097
:10182000A0F85020A0F852208166C0F88010212135
:1018300081678168B1F5805F01D1016921B142F210
:101840003531C0F6000103E042F2DD21C0F60001AF
:101850008166002180F87410016851E8001F026859
:1018600041F0800142E80013002BF5D10023184617
:101870007047000040F25041C2F20001884218BF98
:10188000704780B540F2504040F27031C2F2000023
:10189000C2F200010422FFF75BFF42F2DC40C2F219
:1018A000000000210160BDE880407047FEE70000B5
:1018B0002DE9F04387B0002741F214000697CDE9E7
:1018C0000477CDE90277C4F20200016840F20049D2
:1018D00041F4002101600168C4F6000901F400210F
:1018E00001910199016809F5806541F48001016069
:1018F0000168002201F480010191019901684FF40F
:10190000005641F400310160016801F40031019199
:101910000199016841F48021016000684FF4005191
:1019200000F48020019001982846FFF761F84846AE
:101930004FF4004100224FF40048FFF759F8029697
:1019400002AE012428463146CDE903470597FEF74C
:1019500079FF48463146CDE90284CDE90477FEF7A8
:1019600071FF102002900320CDE903074FF0904053
:101970003146FEF767FF07B0BDE8F08380B540F25F
:1019800080303821C2F20000C4F2010100224FF081
:101990000C0C202380E80E1002614262FFF7B2F8BF
:1019A000002808BF80BDFEF701FF000080B540F2AF
:1019B000B4303C21C2F20000C4F2010100224FF019
:1019C0000C0C202380E80E1002614262FFF79AF8A7
:1019D000002808BF80BDFEF7E9FE000080B540F298
:1019E000E8304021C2F20000C4F201016022C0E9E7
:1019F00000120C210022C0E903124262FFF782F8B4
:101A0000002808BF80BDFEF7D1FE000080B540F27F
:101A10001C404421C2F20000C4F201016022C0E96E
:101A2000001204210022C0E903124262FFF76AF8A3
:101A3000002808BF80BDFEF7B9FE000080B500F0A9
:101A400065FD40F2504043F60001C2F20000C4F2CE
:101A500001014CF2C06200234FF00C0CC0F22D02C9
:101A600080E80E00C0E90333C0E905C3C0E90733CD
:101A70004362FFF7FDFD002808BF80BDFEF796FE1C
:101A8000052840F27020C2F200004FF0010211D18F
:101A900002EB911C00224FF4807300BF402A8CBFE0
:101AA000C15A0CFB02F120F81210023B02F10102B4
:101AB000F4D10AE002EBD111002200BF01FB02F3D6
:101AC00020F812300132802AF8D140F23C41C4F2B1
:101AD00002010A6808607047FEE70000FEE70000A8
:101AE00000F0070080F00703042B28BF04234FF009
:101AF000FF3C03380CFA03F338BF002099438140C0
:101B00000CFA00F022EA000008437047016841F037
:101B1000010101607047000070470000704700003D
:101B2000B0B501380024B4EB106F1CBF0120B0BD6C
:101B30004EF21005CEF2000568604FF0FF300F2125
:101B400000F0F4FC0720AC6028602046B0BD000027
:101B500080B5FEF759FF80BD70B59EB014AC20462D
:101B60002821FEF781FB002568463C211395CDE92D
:101B70001155CDE90F55FEF777FB01201490189011
:101B80004FF4E0104FF4803102261D902046CDE93D
:101B90001515CDE91B61FFF787FAB8B90F20CDE91C
:101BA0000F064FF48060CDE912050FA802211195B0
:101BB000FFF77CF950B901200090002002906846A0
:101BC000FFF76EF8002804BF1EB070BDFEF7EEFDF3
:101BD0004EF68850CEF20000016841F470010160B9
:101BE0007047000041F21C00C4F2020001684FF689
:101BF000F87241F0010101600420C4F20000416864
:101C0000CFF6FE72114041604FF0804100220A6021
:101C1000426A4FF6FF739A434262826A40F2F312BD
:101C200082620A6822F010020A600168022262F3EE
:101C3000061101607047000010B540F21040C4F278
:101C400000000168C90708BF10BD016840F2783480
:101C500021F00101016040F27930C2F2000001215F
:101C60000170C2F20004207850B140F2504040F2BE
:101C70007031C2F20000C2F200010422FFF768FDD9
:101C80000020207010BD000080B541F21C00C4F29D
:101C9000020001684FF6F87241F00201016040F263
:101CA0000040C4F200008168CFF6FE7211408160EE
:101CB00000210160816A132262F30F018162C16A0F
:101CC00041F61F41C162C168022241F00101C160B9
:101CD000016821F010010160416862F30611416062
:101CE000016841F0010101601D20042100F016FC93
:101CF0001D2000F0E3FB80BD41F21800C4F2020099
:101D000001684FF6F87241F40051016043F200405F
:101D1000C4F201008168CFF6FE721140816000219B
:101D20000160816A4FF6FF7291438162C16A7C2132
:101D3000C1620168022221F010010160416862F372
:101D4000061141607047000080B5416ACA070CD196
:101D50008A0715D44A071ED40A0727D4CA0630D4E6
:101D60008A0639D44A0657D541E00268D0F828C01F
:101D7000536823F4003343EA0C0353608A07E9D520
:101D80000268D0F82CC0536823F4803343EA0C0374
:101D900053604A07E0D50268D0F830C0536823F496
:101DA000802343EA0C0353600A07D7D50268D0F8B2
:101DB00034C0536823F4004343EA0C035360CA065B
:101DC000CED50268D0F838C0936823F4805343EA34
:101DD0000C0393608A06C5D50268D0F83CC09368AE
:101DE00023F4005343EA0C0393604A0614D50268B7
:101DF000D0F840C05368BCF5801F23F4801343EA39
:101E00000C03536008D1D2F804C0D0F844E02CF49D
:101E1000C00343EA0E035360090658BF80BD016842
:101E2000806C4A6822F400221043486080BD0000A4
:101E3000B0B582B004460020C4F88000FEF7DEFD95
:101E400021680546096809070BD56FF07E4C2046CE
:101E50004FF4001100222B46CDF800C000F094FA98
:101E600078B92068006840070ED56FF07E4C204698
:101E70004FF4800100222B46CDF800C000F084FA18
:101E800010B1032002B0B0BD2020A067E0670020A1
:101E9000206684F8740002B0B0BD000080B5406ACE
:101EA0000021A0F85A10A0F85210FFF78FFA80BD59
:101EB000016851E8001F026821F4907142E80013A4
:101EC000002BF5D1016851E8021F026821F00101E1
:101ED00042E80213002BF5D1016E01290AD100BF9F
:101EE000016851E8001F026821F0100142E8001368
:101EF000002BF5D12021C1670021016641667047A2
:101F000080B500BF016851E8001F026821F0400160
:101F100042E80013002BF5D1202181670021816662
:101F2000FFF7A8FC80BD000080B5B0F85C10026827
:101F3000C36F222B41D1928C436D114023F8021BB9
:101F40004365B0F85A100139A0F85A10B0F85A1089
:101F5000002918BF80BD00BF016851E8001F02685A
:101F600021F4907142E80013002BF5D1016851E88B
:101F7000021F026821F0010142E80213002BF5D193
:101F80002021C16700214166026E012A1AD1016633
:101F9000016851E8001F026821F0100142E80013B7
:101FA000002BF5D10168CA69D20644BF10220A622B
:101FB000B0F85810FFF706FA80BD906940F00800AD
:101FC000906180BDFFF7F2FB80BD000080B5B0F8E6
:101FD0005C100268C36F222B41D1928C436D11407B
:101FE0001970416D01314165B0F85A100139A0F8FE
:101FF0005A10B0F85A10002918BF80BD016851E886
:10200000001F026821F4907142E80013002BF5D103
:10201000016851E8021F026821F0010142E8021341
:10202000002BF5D12021C16700214166026E012AF3
:102030001AD10166016851E8001F026821F0100101
:1020400042E80013002BF5D10168CA69D20644BFEB
:1020500010220A62B0F85810FFF7B4F980BD9069F9
:1020600040F00800906180BDFFF7A0FB80BD00003C
:10207000B0B5044602688068D4E90331656901435C
:10208000D4F81CC02943156849F20C6041EA0C01E0
:1020900025EA000008431060506820F440501843BF
:1020A0005060A069216A9368084323F430610843B3
:1020B000906044F6FF30C4F2000082424FF01001FD
:1020C00018DD44F60040C4F20000824225D045F2FB
:1020D0000000C4F20000824226D043F60000C4F2A1
:1020E0000100824232D141F23000C4F202000168A4
:1020F00051A227E044F20040C4F2000082421AD00C
:1021000044F60000C4F2000082421FD141F23000C8
:10211000C4F202000068810C13E041F23000C4F206
:1021200002000068010D0CE041F23000C4F2020030
:102130000068810D05E041F23000C4F20200006841
:10214000010C39A201F0030052F8201041F20020E6
:10215000BCF5004FC0F27A000ED1082920D8002526
:10216000DFE801F00519251E221E1E1E380000257D
:10217000FEF74AFFE0B94BE0082936D80025DFE832
:1021800001F0052F3B34383434344C000025FEF781
:102190003BFF90BB3CE00025FEF748FF40B937E02D
:1021A0000020012520B933E00025FEF751FF78B368
:1021B00061684A0802EB4000B0FBF1F14FF6F070A5
:1021C000084005D0C1F3420122680843D0601FE0F7
:1021D00001251DE04FF4004000250028E8D117E05C
:1021E0000025FEF723FF40B912E00020012520B9A9
:1021F0000EE00025FEF72CFF50B1616800EB5100A6
:10220000B0FBF1F080B2102826BF2168C86001251C
:10221000002128466166A166B0BD4FF4004000254C
:102220000028EAD1F4E700BF00000000040000002D
:10223000080000000200000001000000040000008F
:1022400008000000020000004165A0F85820A0F836
:102250005A2081680022426639B1B1F5805F08D109
:10226000016941B940F2FF1106E0016919B17F210E
:1022700002E0002100E0FF21A0F85C100021C0F87E
:1022800080102221C16700BF016851E8021F026867
:1022900041F0010142E80213002BF5D18168B1F54C
:1022A000805F01D1016999B141F6CD71C0F600019D
:1022B0004166002180F87410016851E8001F02682F
:1022C00041F4907142E80013002BF5D100207047D3
:1022D00041F62971C0F60001EAE70000816F21296B
:1022E00018BF7047B0F8521071B1C16C036831F873
:1022F000022B6FF35F221A85C164B0F852100139C6
:10230000A0F8521014E000BF016851E8001F0268F5
:1023100021F0800142E80013002BF5D1016851E85B
:10232000001F026841F0400142E80013002BF5D184
:1023300070470000816F212918BF7047B0F8521014
:1023400061B1C16C026811F8013B1385C164B0F83A
:1023500052100139A0F8521014E000BF016851E892
:10236000001F026821F0800142E80013002BF5D124
:10237000016851E8001F026841F0400142E8001383
:10238000002BF5D1704700002DE9F04381B00446E1
:102390000068C0690840401AB0FA80F040099042D5
:1023A00060D1DDF8208015460E46994608F10107F8
:1023B00009E000BF2068C0693040801BB0FA80F09F
:1023C0004009A8424ED1002FF4D0FEF717FBB8F118
:1023D000000F29D0A0EB0900404525D820680168EE
:1023E000490744BFC1695FEA0151E3D54FF4006179
:1023F000016200BF206850E8000F216820F4D0700F
:1024000041E80002002AF5D1206850E8020F216857
:1024100020F0010041E80202002AF5D12020A06747
:10242000E067C4F8800016E0206850E8000F2168DB
:1024300020F4D07041E80002002AF5D1206850E86D
:10244000020F216820F0010041E80202002AF5D1C4
:102450002020A067E067002084F87400032001B00A
:10246000BDE8F083002001B0BDE8F08380B540F204
:102470005040C2F200000068C069800614D540F2E6
:102480007830C2F2000001780131017040F27930F9
:10249000C2F200000178012906D140F22441C4F2C1
:1024A000000100220A60027040F25040C2F20000B7
:1024B000FEF78EFF80BD0000FEE70000C1B200F015
:1024C0001F00012202FA00F04EF20012CEF20002CA
:1024D00042EAD10121F0030108607047002848BF9B
:1024E000704700F01F01012202FA01F14EF20012C2
:1024F0004009CEF2000242F8201070474EF60C5010
:10250000CEF200000068C0F3022070474EF2254072
:10251000CEF200002021017070470000E422C0F2DA
:10252000E002090162F31F20017070474EF6145358
:1025300000F00F02CEF2000309011A4400F16043DB
:10254000B0F1FF3FC8BF03F564421170704700004F
:102550004EF60C51CEF200010A684FF6FF031A4006
:1025600060F30A2242F0806040F0FD70086070471E
:102570004EF60C50BFF34F8FCEF2000001680422DC
:1025800001F4E061C0F2FA5211430160BFF34F8FD2
:1025900000BFFDE743F2004AC4F2010AFEF742FA27
:1025A000FFF7DAFAFFF784F9FFF730FAFFF7E6F9F9
:1025B000FFF7FCF9FFF712FAFFF740FA3824C4F2EC
:1025C00001042046FFF7A2FA201DFFF79FFA04F14D
:1025D0000800FFF79BFA04F10C00FFF797FAFDF7EC
:1025E000A7FEFDF7BDFFFFF7FDFAFFF785FBFFF73D
:1025F0004BFB40F20404C2F2000421880520FFF7DF
:102600003FFA40F27930C2F20000012140F27C36FC
:102610000170C2F20006307840F2504840F2703546
:1026200040F00100C2F20008C2F2000530704046DE
:1026300029460422FFF78CF800270FF2800905E0F5
:102640003068FEF797F83068FDF752FF2978687810
:10265000012901D10028F3D102390529F6D8DFE894
:1026600001F0030B0E151B212F70DAF8000020F08B
:102670000100CAF80000E9E7FEF742FAE6E7404643
:10268000494604222F70FFF7B5F8DFE72F80218835
:102690000520FFF7F5F9D9E72F8021880620FFF7FD
:1026A000EFF9D3E731788A07D0D56A88228028707D
:1026B00001F0FD006F803070C8E700BF54455354EF
:1026C00000000000F1EE100A4FF6FF71C0F2C031B9
:1026D00020EA010040F04070E1EE100A704700006F
:1026E00000000000000001020304060708090000C2
:1026F00000000102030402030405060708090A0B8F
:102700000C0D0E0F10100102030405060708090A3C
:102710000B0C0D0E0F1000003827000800000020E1
:1027200010000000C4010008482700081000002025
:10273000D82A0000E001000800127A00FA0F010018
:08274000100000000000000081
:040000050800018965
:00000001FF
