:020000040800F2
:10000000E007002029020008F31800083117000853
:10001000F1180008CD050008071E000800000000C8
:10002000000000000000000000000000F7180008B9
:10003000F105000800000000F5180008F918000894
:10004000430200084302000843020008430200087C
:10005000430200084302000843020008430200086C
:10006000430200084302000843020008D1050008CB
:10007000430200084302000843020008430200084C
:10008000430200084302000843020008430200083C
:10009000430200084302000843020008430200082C
:1000A000430200084302000843020008430200081C
:1000B000430200084302000843020008430200080C
:1000C00043020008430200084302000843020008FC
:1000D00043020008430200084302000843020008EC
:1000E00043020008430200084302000843020008DC
:1000F000E91900084302000843020008430200080F
:1001000000000000000000000000000043020008A2
:1001100043020008430200084302000843020008AB
:10012000430200084302000843020008430200089B
:100130004302000843020008000000000000000025
:1001400043020008430200084302000800000000C8
:10015000000000000000000000000000000000009F
:1001600000000000000000004302000843020008F5
:100170004302000800000000000000000000000032
:10018000000000004302000800F002F800F03CF814
:100190000AA090E8000C82448344AAF10107DA45E2
:1001A00001D100F031F8AFF2090EBAE80F0013F0F8
:1001B000010F18BFFB1A43F001031847341D00005C
:1001C000541D0000103A24BF78C878C1FAD85207ED
:1001D00024BF30C830C144BF04680C6070470000C1
:1001E0000023002400250026103A28BF78C1FBD840
:1001F000520728BF30C148BF0B6070471FB501F0E0
:1002000055FE1FBD10B510BD00F0CFF81146FFF729
:10021000F5FF01F017FE00F0EDF803B4FFF7F2FF71
:1002200003BC00F0F5F80000094880470948004782
:10023000FEE7FEE7FEE7FEE7FEE7FEE7FEE7FEE796
:10024000FEE7FEE704480549054A064B70470000F3
:100250007119000889010008E0010020E007002072
:10026000E0030020E003002053EA020C00F0698064
:100270002DE9F04B4FF00006002B1FBFB3FA83F5BA
:1002800003FA05F424FA05F65E4012BF1643B2FAEB
:1002900082F502FA05F4C5F120051EBF22FA05FC1D
:1002A00044EA0C04203556EA044C4FEA144418BFC3
:1002B000641C4FF000084FF00009904271EB030CF2
:1002C00039D3002919BFB1FA81F701FA07F6B0FA5C
:1002D00080F700FA07F6C7F120071EBF20FA07FCD7
:1002E00046EA0C062037B6FBF4FCA7EB0507103FE7
:1002F00007F01F0BCBF120060CFA0BFB2CFA06F6CD
:1003000044BFB3460026202FA4BF5E464FF0000B2B
:100310005BEA060C08BF4FF0010B19EB0B09ABFBB6
:10032000027C48EB0608C01B06FB02CC0BFB03CC8F
:1003300071EB0C01C1E70B46024641464846BDE859
:10034000F08B13B54FF000004FF00001AFF30080C9
:10035000BDE81C4070474FF0000200B513469446BC
:100360009646203922BFA0E80C50A0E80C50B1F10D
:100370002001BFF4F7AF090728BFA0E80C5048BF21
:100380000CC05DF804EB890028BF40F8042B08BFBF
:10039000704748BF20F8022B11F0804F18BF00F8BB
:1003A000012B7047704770477047754600F02CF876
:1003B000AE4605006946534620F00700854618B052
:1003C00020B5FFF73FFFBDE820404FF000064FF09B
:1003D00000074FF000084FF0000B21F00701AC467A
:1003E000ACE8C009ACE8C009ACE8C009ACE8C00999
:1003F0008D46704710B50446AFF300802046BDE837
:100400001040FFF70ABF000000487047800100203D
:1004100001491820ABBEFEE726000200704700002D
:1004200010B56549486940F080504861486940F01E
:10043000010048614FF0A040D0F8082342F4803218
:10044000C0F80823CA6A42F48072CA624A6942F05C
:1004500080524A61D0F8081341F00601C0F8081331
:10046000D0F8081341F40051C0F80813D0F808136D
:1004700041F40041C0F80813D0F8081321F480714A
:10048000C0F80813C16821F00801C160C16821F0FB
:100490001001C160016B41F0C0010163C16821F02E
:1004A0002001C160C16821F4707141F4E071C16044
:1004B000C16821F4406141F48061C160416921F467
:1004C000606141F400714161C16841F00101C160A6
:1004D000D0F80C1121F00801C0F80C11D0F80C1163
:1004E00021F01001C0F80C11D0F8301141F0C0011A
:1004F000C0F83011D0F80C1121F02001C0F80C1117
:10050000D0F8181121F4606141F40071C0F818119D
:10051000816841F00041816081680029FCDBD0F8EE
:10052000081141F00041C0F80811D0F80811002965
:10053000FBDB816841F001018160816841F00401C9
:100540008160D0F8081141F00101C0F808111C4881
:100550001A4901611B494161816841F002018160D2
:10056000816821F010018160816841F02001816083
:10057000816821F480518160816841F0800181604F
:10058000816821F040018160816841F400718160DF
:10059000816841F400618160C16841F00101C1607E
:1005A000816841F0010181600B2001F02DFC0649BA
:1005B0001020087010BD0000001002400C03005015
:1005C00000000240040000200BE400E0FEE7000011
:1005D00005480168890705D50221416009030348E0
:1005E00000F040B9704700000000024000080048D9
:1005F000704772B6FEE770B54379012B1AD0012619
:1006000046710223037103681D6840F6FE7494402E
:10061000A543D1E900410C4394402C431C60016880
:100620000B68C0249440A3430B6006710021417104
:10063000002070BD022070BD70B50446002C03D0B0
:100640002079002510B105E0012070BD65712046BC
:1006500000F008F80220207125610120207100209F
:1006600070BD000010B586B00446142101A8FFF744
:1006700072FE1149206888421BD11048C16941F0BF
:100680000051C161C16901F000510091416941F41B
:1006900000314161406900F4003000901020019069
:1006A000032002900020039001A94FF0904000F039
:1006B00007F806B010BD00000074004000100240B2
:1006C0002DE9F84F0022DFF880914FF0010809F181
:1006D000040A03274FF00F0C0AF1040BACE008FAF0
:1006E00002F52B40002B72D00C7904F00304012C8E
:1006F00001D0022C15D18668540007FA04FE26EAC0
:100700000E06D1F80CE00EFA04FE4EEA060EC0F812
:1007100008E04468AC430D79C5F3001595402543C6
:1007200045600C79E443A40708D0C568540007FA73
:1007300004F6B5438E68A6402E43C6600C7904F0DB
:100740000304022C11D1D40800EB8406356A540747
:10075000E40E0CFA04FE25EA0E05D1F810E00EFABC
:1007600004FE4EEA050EC6F820E00568540007FABC
:1007700004F6B5430E7906F00306A6402E43066044
:100780004C6814F4403F56D0304CA56945F0010543
:10079000A561A46904F0010400942D4C22F0030526
:1007A0002E19B56894074FEA147E0CFA0EF4A5438F
:1007B000B0F1904F04D0274CA04203D1012412E0A5
:1007C000002410E0244CA04202D102240BE032E0CD
:1007D000224CA04201D1032405E0214CA04201D1CA
:1007E000042400E0052404FA0EF42C43B460D9F884
:1007F00000409C434D68ED0300D51C43C9F8004000
:10080000DAF800409C434D68AD0300D51C43CAF89C
:100810000040DBF800409C434D68ED0200D51C43CE
:10082000CBF80040084D0C352C689C434E68B6024E
:1008300000D51C432C60521C0B6833FA02F47FF481
:100840004EAFBDE8F88F00000004014000100240E8
:10085000000001400004004800080048000C004867
:1008600000100048426921EA02030A4043EA0241BB
:1008700081617047002A01D08161704781627047B1
:100880000148806870470000080000200248816825
:1008900002781144816070470800002010B50748B5
:1008A000016841F010010160032000F061F80F20A1
:1008B00000F006F800F026F8002010BD00200240ED
:1008C00070B504460D4D4FF47A712878B1FBF0F005
:1008D0000B490968B1FBF0F000F0ADFE08B1012052
:1008E00070BD102C07D200222146501E00F020F8C7
:1008F0006C60002070BD012070BD00000800002069
:100900001400002008B50948816941F001018161A6
:10091000816901F001010091C16941F08051C1611B
:10092000C06900F08050009008BD00000010024037
:10093000F0B40D460D4B1B68C3F30223C3F107044B
:10094000042C00D90424191D072901D2002300E03A
:10095000DB1E012606FA04F1491E294099409E40FB
:10096000761E16403143F0BC01F05BBA0CED00E09E
:1009700000F00701054A10684FF6FF03184040EAEF
:100980000120034908431060704700000CED00E0AF
:100990000000FA0538B504460025002C14D094F860
:1009A0003200052812D094F83200022810D02E48C8
:1009B000816941F001018161806900F001000090CE
:1009C00094F8320030B108E0012038BD012038BD74
:1009D000012038BD002084F83100204600F048F89E
:1009E00060682249402821D060281FD0A2681043A7
:1009F000D4E903231A43104362691043A2691043E8
:100A0000E2691043226A1043626A1043228D40EA71
:100A1000C24094F82C2040EA0262206803680B4030
:100A20001A43026094F83200C8B11BE0E268A3697F
:100A3000104322691A431043E2691043226A1043AB
:100A4000626A1043228D40EAC24094F82C2040EAAA
:100A50000262206803680B401A430260E2E701204B
:100A600084F83200284638BD00100240113800E0FA
:100A700030B587B00446142102A8FFF76CFC2B4D5B
:100A8000216800242A4A03234FF09040A94210D144
:100A9000516941F400315161516901F40031019112
:100AA0000E2102910393049402A9FFF709FE07B0F7
:100AB00030BD1E4D2D1DA9420FD1516941F40031A9
:100AC0005161516901F400310191E02102910393D8
:100AD000049402A9FFF7F4FDE9E7144D1548083521
:100AE000A9420ED1516941F480215161516901F44B
:100AF0008021019102930393049402A9FFF7E0FD82
:100B0000D5E70A4D0C35A942D1D1516941F4802174
:100B10005161516901F4802101914FF4C05102915A
:100B20000393049402A9FFF7CBFDC0E7380001400E
:100B30000010024000040048002100280AD090F86C
:100B40003220052A08D090F83220012A06D001214F
:100B5000084670470121FBE70121F9E702681368A5
:100B600043F001031360042280F83220F0E7000014
:100B70002DE9F84F044600262068804DC0036FD54C
:100B8000E869C00008D4E86940F08050E861E8698D
:100B900000F0805000900126794F3868C00513D4CA
:100BA000386840F480703860FFF76AFE804608E0DD
:100BB000FFF766FEA0EB0800642802D90320BDE819
:100BC000F88F3868C005F3D5286A00F4407078B310
:100BD000A18801F4407181424DD0286A20F4407010
:100BE0004FF4803191FAA1F2B2FA82F29300654A91
:100BF0004FF001081344C3F8008491FAA1F1B1FA4F
:100C000081F102EB81010023C1F800342862C007A2
:100C100031D0FFF735FE074641F2883A4FF002091E
:100C200007E0FFF72DFEC01B504502D90320C6E7A1
:100C300021E099FAA9F0B0FA80F040F04000414676
:100C4000B8EB501F01D128680CE099FAA9F0B0FA6E
:100C500080F040F04000B9EB501F02D1286A01E05B
:100C600015E0686A99FAA9F2B2FA82F202F01F025C
:100C700091400842D5D0286A616820F4407008434A
:100C80002862012E03D1E86920F08050E8612078C5
:100C9000C00705D0286BA16820F003000843286333
:100CA0002078800705D5286BE16820F440300843A0
:100CB00028632078400705D5286B216920F440205F
:100CC000084328632078800605D5286BE16920F069
:100CD0001000084328632068800305D56868A16B6D
:100CE00020F48000084368602078400605D5286B12
:100CF000216A20F02000084328632078000705D5EA
:100D0000286B616920F44010084328632078C006EE
:100D100005D5286BA16920F440000843286320888A
:100D2000800505D56868E16A20F400000843686022
:100D30002078000605D5E86A616A20F4F870084357
:100D4000E8622088C00505D5E86AA16A20F47850D9
:100D50000843E8622088C00405D5286B216B20F485
:100D60008070084328632088800405D5286B616B58
:100D700020F4007008432863002020E700100240A0
:100D800000700040000042422DE9F04704460D4645
:100D9000002C17D0DFF89481D8F8000000F007008D
:100DA000A84211D2D8F8000020F007002843C8F864
:100DB0000000D8F8000000F00700A84204D001208D
:100DC000BDE8F0870120FBE72078594E800705D564
:100DD0007068A16820F0F000084370602078C007B8
:100DE00065D06068012201280CD0022822D002239D
:100DF00093FAA3F1B1FA81F141F02001490931D010
:100E0000316830E04FF4003393FAA3F1B1FA81F185
:100E100041F02001490901D0316800E0716A93FA7C
:100E2000A3F3B3FA83F303F01F039A40114225D1D1
:100E30000120C5E74FF0007393FAA3F1B1FA81F1F5
:100E400041F02001490901D0316800E0716A93FA4C
:100E5000A3F3B3FA83F303F01F039A4011420DD1B9
:100E60000120ADE7716A93FAA3F3B3FA83F303F0B9
:100E70001F039A40114201D10120A1E7716821F0BE
:100E8000030101437160FFF7FBFC074641F288391B
:100E900006E0FFF7F5FCC01B484501D903208FE7AA
:100EA0007068616800F00C00B0EB810FF1D1D8F8E8
:100EB000000000F00700A8420ED9D8F8000020F08A
:100EC00007002843C8F80000D8F8000000F0070029
:100ED000A84201D0012073E72078400705D570684B
:100EE000E16820F4E060084370602078000706D5D0
:100EF0007068216920F4605040EAC100706000F021
:100F000051F87168F02292FAA2F201F0F001B2FAFF
:100F100082F2D140074A515CC8400749086007483F
:100F20000068FFF7CDFC00204AE7000000200240E7
:100F300000100240D61E0008140000200C00002003
:100F400001480068704700001400002000B5FFF75A
:100F5000F7FF074949684FF4E06292FAA2F201F400
:100F6000E061B2FA82F2D140024A515CC84000BD51
:100F700000100240E61E000800B5FFF7E1FF074938
:100F800049684FF4605292FAA2F201F46051B2FA49
:100F900082F2D140024A515CC84000BD00100240BC
:100FA000E61E000810B5164B5968164801F00C02F1
:100FB000042A20D0082A1ED14FF4701494FAA4F405
:100FC00001F47012B4FA84F4E2400F4CA45CDA6AC3
:100FD0000F2393FAA3F302F00F02B3FA83F3DA407C
:100FE000094B10339A5CC90306D500231946FFF755
:100FF0003BF9A0FB040110BD0448A4FB000110BD97
:101000000010024000127A00B61E000800093D00E0
:101010002DE9F84F0446002C12D02078F84EC00776
:101020004FF001055ED070684FF40038C0F38100C6
:1010300001280BD07068C0F38100022803D01EE0A5
:101040000120BDE8F88F7068C00318D598FAA8F0A1
:10105000B0FA80F040F02000400901D0306800E094
:10106000706A98FAA8F1B1FA81F101F01F0105FA4E
:1010700001F1084275D06068A0BB0120E1E760681B
:10108000B0F5803F17D0D8B1B0F5A02F21D030688F
:1010900020F480303060306820F480203060F06AC6
:1010A000A16820F00F000843F0626068C0B3FFF74A
:1010B000E7FB07461EE0306840F480303060EEE722
:1010C000306820F480303060306820F48020306058
:1010D000E5E7306840F480203060306840F48030CC
:1010E0003060DCE73DE0FFF7CBFBC01B642801D993
:1010F0000320A6E798FAA8F0B0FA80F040F02000AC
:10110000400901D0306800E0706A98FAA8F1B1FA9D
:1011100081F101F01F0105FA01F10842E3D020E05E
:10112000FFE7FFF7ADFB074606E0FFF7A9FBC01B93
:10113000642801D9032084E798FAA8F0B0FA80F077
:1011400040F02000400901D0306800E0706A98FA51
:10115000A8F1B1FA81F101F01F0105FA01F108428D
:10116000E3D12078DFF89C8280074FF0000B4FF02E
:10117000020732D570684FF0F80A10F00C0F07D054
:101180007068C0F38100022828D17068C00325D49C
:1011900097FAA7F0B0FA80F040F02000400901D0A3
:1011A000306800E0706A97FAA7F1B1FA81F101F0B6
:1011B0001F0105FA01F1084204D02069012801D07D
:1011C00001203EE730689AFAAAF26169B2FA82F227
:1011D00020F0F8009140084330605CE0206990B353
:1011E00095FAA5F0B0FA80F048F82050FFF748FBD8
:1011F000814607E0FFF744FBA0EB0900022801D974
:1012000003201EE797FAA7F0B0FA80F040F0200024
:10121000400901D0306800E0706A97FAA7F1B1FA8E
:1012200081F101F01F0105FA01F10842E2D03068B6
:101230009AFAAAF26169B2FA82F220F0F8009140BB
:101240000843306027E0FFE795FAA5F0B0FA80F098
:1012500048F820B0FFF714FB814607E0FFF710FBCA
:10126000A0EB0900022801D90320EAE697FAA7F0CB
:10127000B0FA80F040F02000400901D0306800E072
:10128000706A97FAA7F1B1FA81F101F01F0105FA2E
:1012900001F10842E2D1207800076DD5A069A8B31A
:1012A00095FAA5F0B0FA80F008EB8000C0F8805401
:1012B000FFF7E6FA814607E0FFF7E2FAA0EB090044
:1012C000022801D90320BCE697FAA7F0B0FA80F013
:1012D00040F06000B5EB501F01D130680BE097FA89
:1012E000A7F0B0FA80F040F06000B7EB501F01D1DA
:1012F000306A00E0706A97FAA7F1B1FA81F101F063
:101300001F0205FA02F10842D6D035E0FFE795FA50
:10131000A5F0B0FA80F008EB8000C0F880B4FFF7C9
:10132000AFFA814607E0FFF7ABFAA0EB090002280D
:1013300001D9032085E697FAA7F0B0FA80F040F0D3
:101340006000B5EB501F01D130680BE097FAA7F0B1
:10135000B0FA80F040F06000B7EB501F01D1306A66
:1013600000E0706A97FAA7F1B1FA81F101F01F026B
:1013700005FA02F10842D6D1207840076ED54FF029
:101380000009F069C00009D4F06940F08050F061B4
:10139000F06900F0805000904FF001091A48016890
:1013A000C90513D4016841F480710160FFF768FA40
:1013B000824607E0FFF764FAA0EB0A00642801D92F
:1013C00003203EE610480068C005F3D5E068012818
:1013D00010D0D8B1052822D0306A20F00100306248
:1013E000306A20F004003062E068B0B3FFF748FADA
:1013F000824627E0306A40F001003062F4E70000E6
:10140000001002400000424200700040306A20F0AC
:1014100001003062306A20F004003062E4E7306A94
:1014200040F004003062306A40F001003062DBE7D7
:10143000FFF726FAA0EB0A0141F28830814201D978
:101440000320FEE597FAA7F0B0FA80F040F04000E4
:10145000B5EB501F03D130680DE017E04CE097FA70
:10146000A7F0B0FA80F040F04000B7EB501F01D178
:10147000306A00E0706A97FAA7F1B1FA81F101F0E1
:101480001F0105FA01F21042D2D02EE0FFF7F8F961
:10149000824609E0FFF7F4F9A0EB0A0141F2883037
:1014A000814201D90320CCE597FAA7F0B0FA80F089
:1014B00040F04000B5EB501F01D130680BE097FAC7
:1014C000A7F0B0FA80F040F04000B7EB501F01D118
:1014D000306A00E0706A97FAA7F1B1FA81F101F081
:1014E0001F0105FA01F21042D4D1B9F1010F03D165
:1014F000F06920F08050F061E06980B37168C1F359
:101500008101022977D04FF080794FF000770228CF
:1015100009D099FAA9F0B0FA80F048F820B0FFF7A6
:10152000AFF904465DE099FAA9F0B0FA80F048F806
:1015300020B0FFF7A5F9824607E0FFF7A1F9A0EB7D
:101540000A00022801D903207BE597FAA7F0B0FA38
:1015500080F040F02000400902D0306801E068E0EF
:10156000706A97FAA7F1B1FA81F101F01F0105FA4B
:1015700001F10842E1D1D4E908100843716821F46F
:1015800074110843706099FAA9F0B0FA80F048F835
:101590002050FFF775F9044606E0FFF771F9001BCC
:1015A000022801D903204CE597FAA7F0B0FA80F0A1
:1015B00040F02000400901D0316800E0716A97FADC
:1015C000A7F0B0FA80F000F01F0005FA00F0014229
:1015D000E3D02EE0FFF754F9001B022801D90320C5
:1015E0002FE597FAA7F0B0FA80F040F0200040090C
:1015F00002D0316801E00BE0716A97FAA7F0B0FA07
:1016000080F000F01F0005FA00F00142E2D110E086
:1016100001280CD07068226A00F48031914204D114
:10162000616A00F47010884203D0012009E50120AE
:1016300007E5002005E510B5401EB0F1807F01D31D
:10164000012010BD4FF0E02460610F21601700F011
:10165000E8FB0020A06107202061002010BD10B52C
:101660000446002C02D0A06F10B107E0012010BD8D
:10167000002084F87400204600F028F82420A06799
:101680002068016821F001010160204600F04CFA59
:10169000012818D0606A10B1204600F0B1F9206826
:1016A000416821F4904141602068816821F02A015D
:1016B00081602068016841F0010101602046BDE8B9
:1016C000104000F001BA012010BD000010B586B036
:1016D0000446142101A8FEF73EFE13492068884203
:1016E00020D11248816941F480418161816901F40E
:1016F00080410091416941F400314161406900F449
:10170000003000904FF4C060019002200290002051
:101710000390032004900720059001A94FF090400A
:10172000FEF7CEFF06B010BD0038014000100240A9
:10173000FEE700003EB500240094019402940B499A
:10174000094808600846FEF777FF08B1FEF751FF29
:1017500000940194002269460448FEF74CFF0028DB
:1017600001D0FEF746FF3EBD007400401800002087
:1017700030B587B0142102A8FEF7EDFD1D48416980
:1017800041F400214161416901F400210191416965
:1017900041F400314161416901F400310191416935
:1017A00041F480214161406900F480200190124D94
:1017B0004FF40054002221462846FFF75BF80294BC
:1017C0000121039100240494059402A92846FEF700
:1017D00077FF4FF4004002901220039004940320FE
:1017E00005900420069002A94FF09040FEF768FF94
:1017F00007B030BD001002400008004810B50A488C
:1018000008490160002141600C22C26020228260F0
:1018100001614162FFF7BEF8002801D0FEF7E9FE42
:1018200010BD0000380001402C00002010B50A480F
:1018300008490160002141600C22C26020228260C0
:1018400001614162FFF7A6F8002801D0FEF7D1FE42
:1018500010BD00003C0001406000002010B50948A8
:1018600007490160602141600C21C16000210161D4
:101870004162FFF78FF8002801D0FEF7BAFE10BDD5
:10188000400001409400002010B50948074901605C
:10189000602141600421C160002101614162FFF7C4
:1018A00079F8002801D0FEF7A4FE10BD44000140E5
:1018B000C800002010B50C480A4901600B4941607E
:1018C00000218160C16001610C2242618161C161BE
:1018D00001624162FFF7C3FE002801D0FEF789FED6
:1018E00010BD000000380140FC00002000D4300092
:1018F000FEE7FEE770477047FEF7C8BF70B59EB0C1
:10190000282114A8FEF727FD14210FA8FEF723FDB8
:101910003C216846FEF71FFD022514950126189606
:10192000102019901B9500241C944FF460101D90FA
:1019300014A8FFF76DFB08B1FEF75BFE0F200F90B8
:10194000109511944FF480601290139402210FA807
:10195000FFF71AFA08B1FEF74CFE009602946846AB
:10196000FFF706F9002801D0FEF743FE1EB070BD58
:101970000248016841F470010160704788ED00E0A1
:101980001648816941F40051816115480168154A82
:10199000114001601248002108380160104A0121FD
:1019A000203211600E49102224310A600C49091DB1
:1019B0000A6842F001020A60016821F0100101602A
:1019C000011D0A6822F0700242F020020A600168DC
:1019D00041F0010101602C2000F016BA0010024015
:1019E00008340140F8FFFEFF04480168C90703D02E
:1019F000016821F0010101607047000010340140CE
:101A000090F82410C90706D001684A68836A22F456
:101A100000321A434A6090F82410890706D50168FD
:101A20004A68C36A22F480321A434A6090F824104C
:101A3000490706D501684A68036B22F480221A43DD
:101A40004A6090F82410090706D501684A68436B7C
:101A500022F400421A434A6090F82410C90606D5C1
:101A600001688A68836B22F480521A438A6090F876
:101A70002410890606D501688A68C36B22F40052D7
:101A80001A438A6090F82410490611D501684A6803
:101A9000036C22F480121A434A60016CB1F5801F76
:101AA00006D101684A68436C22F4C0021A434A60B6
:101AB00090F82410090606D501684A68806C22F463
:101AC000002202434A607047F8B504460025C4F876
:101AD0008050FEF7D5FE0746206800686FF07E460E
:101AE00000070AD53B4600224FF40011204600961D
:101AF00000F02AF908B10320F8BD2068006840070B
:101B00000AD53B4600224FF480012046009600F0A3
:101B10001BF908B10320F8BD2020A067E067256607
:101B200084F874500020F8BD70B504460025A16803
:101B30002069E2690143606910430143206802683B
:101B400049F20C639A430A43026020684168E268E4
:101B500021F4405111434160A069216A014320688A
:101B6000826822F430620A438260704A20687049B9
:101B7000904213D1086B10F0030007D0012809D060
:101B8000022809D0032803D0102170E001216EE063
:101B900002216CE004216AE0082168E0654A904275
:101BA00016D1086B10F440300AD0B0F5803F0BD04E
:101BB000B0F5003F0AD0B0F5403F03D0102156E009
:101BC000002154E0022152E0042150E008214EE0BF
:101BD000594A904216D1086B10F440200AD0B0F553
:101BE000802F0BD0B0F5002F0AD0B0F5402F03D0D6
:101BF00010213CE000213AE0022138E0042136E0E7
:101C0000082134E04D4A904216D1086B10F4401080
:101C10000AD0B0F5801F0BD0B0F5001F0AD0B0F588
:101C2000401F03D0102122E0002120E002211EE00D
:101C300004211CE008211AE0414A904216D1086BA9
:101C400010F440000AD0B0F5800F0BD0B0F5000FB3
:101C50000AD0B0F5400F03D0102108E0002106E0C3
:101C6000022104E0042102E0082100E01021E369E0
:101C70004FF40040334A4FF6EF7683422CD10929C6
:101C800011D2DFE801F005080B100D101010120042
:101C9000FFF75CF909E0FFF76FF906E0104604E092
:101CA000FFF780F901E000200125C0B34100606822
:101CB00001EB5001B1FBF0F080B2A0F11001B14294
:101CC00008D84FF6F0710140C0F34200014320688C
:101CD000C16026E0012524E0092911D2DFE801F0E6
:101CE00005080B100D1010101200FFF72FF909E076
:101CF000FFF742F906E0104604E0FFF753F901E070
:101D00000020012558B1616800EB5100B0FBF1F0F3
:101D100080B2A0F11001B14202D82168C86000E091
:101D2000012500206066A066284670BD003801408D
:101D3000001002400044004000480040004C0040B9
:101D40000050004000127A002DE9F0470446089D3B
:101D5000884691469A460027202648E0681C46D0CF
:101D6000FEF78EFDA0EB0A00A84227D835B3206805
:101D7000016849073BD5C069C043000537D42168D5
:101D80004FF400600862206850E8001F21F4D07111
:101D900040E80012002AF6D12068083050E8001F01
:101DA00021F0010140E80012002AF5D17434666088
:101DB000A660E66027700320BDE8F087206850E841
:101DC000001F21F4D07140E80012002AF6D12068EB
:101DD000083050E8001F21F0010140E80012002AFD
:101DE000F5D1A667E66784F874700320E4E72068FD
:101DF000C06938EA000004D000204845AED0002079
:101E0000DAE70120F9E7FEE7002809DB00F01F020E
:101E1000012191404009800000F1E020C0F800114C
:101E200070470907090E002804DB00F1E02080F864
:101E30000014704700F00F0000F1E02080F8141D3E
:101E400070470000FEF72AFDFFF758FDFFF790FCF2
:101E5000FFF71AFDFFF76EFCFFF7D0FCFFF7E6FC7B
:101E6000FFF7FCFCFFF726FD0E48FEF765FE0D4868
:101E70003430FEF761FE0B486830FEF75DFE09481E
:101E80009C30FEF759FEFEF7CBFAFFF779FD0649C5
:101E90004FF47A7300220868401C08609842FAD117
:101EA0000A60F8E72C000020000000204FF040708E
:101EB000E1EE100A704702030405060708090A0B41
:101EC0000C0D0E0F10100102030405060708090A85
:101ED0000B0C0D0E0F1000000000000000000102AE
:101EE00003040607080900000000010203040000C3
:101EF000101F00080000002018000000C4010008A6
:101F0000281F000818000020C8070000E001000892
:101F100000000000000000000100000010000000B0
:081F20000000000000127A002D
:040000050800018965
:00000001FF
