:020000040800F2
:10000000F87C002029020008871F0008D51D000881
:10001000851F0008D5050008112900080000000010
:100020000000000000000000000000008B1F00081E
:10003000DD07000800000000891F00088D1F000870
:10004000430200084302000843020008430200087C
:10005000430200084302000843020008430200086C
:10006000430200084302000843020008AD060008EE
:10007000430200084302000843020008430200084C
:10008000430200084302000843020008430200083C
:10009000430200084302000843020008430200082C
:1000A000430200084302000843020008430200081C
:1000B000192000088D2000084302000843020008B0
:1000C00043020008430200084302000843020008FC
:1000D0004302000805290008430200084302000803
:1000E00043020008430200084302000843020008DC
:1000F000CD21000843020008430200084302000823
:1001000000000000000000000000000043020008A2
:1001100043020008430200084302000843020008AB
:100120004302000843020008550700084302000884
:100130004302000843020008000000000000000025
:1001400043020008430200084302000800000000C8
:10015000000000000000000000000000000000009F
:1001600000000000000000004302000843020008F5
:100170004302000800000000000000000000000032
:10018000000000004302000800F002F800F03CF814
:100190000AA090E8000C82448344AAF10107DA45E2
:1001A00001D100F031F8AFF2090EBAE80F0013F0F8
:1001B000010F18BFFB1A43F001031847A82A0000DB
:1001C000C82A0000103A24BF78C878C1FAD852076C
:1001D00024BF30C830C144BF04680C6070470000C1
:1001E0000023002400250026103A28BF78C1FBD840
:1001F000520728BF30C148BF0B6070471FB502F0DF
:100200008FFC1FBD10B510BD00F0CFF81146FFF7F1
:10021000F5FF02F0ABFB00F0EDF803B4FFF7F2FFDF
:1002200003BC00F0F5F80000094880470948004782
:10023000FEE7FEE7FEE7FEE7FEE7FEE7FEE7FEE796
:10024000FEE7FEE704480549054A064B70470000F3
:100250000920000889010008F8760020F87C0020B9
:10026000F8780020F878002053EA020C00F069804A
:100270002DE9F04B4FF00006002B1FBFB3FA83F5BA
:1002800003FA05F424FA05F65E4012BF1643B2FAEB
:1002900082F502FA05F4C5F120051EBF22FA05FC1D
:1002A00044EA0C04203556EA044C4FEA144418BFC3
:1002B000641C4FF000084FF00009904271EB030CF2
:1002C00039D3002919BFB1FA81F701FA07F6B0FA5C
:1002D00080F700FA07F6C7F120071EBF20FA07FCD7
:1002E00046EA0C062037B6FBF4FCA7EB0507103FE7
:1002F00007F01F0BCBF120060CFA0BFB2CFA06F6CD
:1003000044BFB3460026202FA4BF5E464FF0000B2B
:100310005BEA060C08BF4FF0010B19EB0B09ABFBB6
:10032000027C48EB0608C01B06FB02CC0BFB03CC8F
:1003300071EB0C01C1E70B46024641464846BDE859
:10034000F08B13B54FF000004FF00001AFF30080C9
:10035000BDE81C4070474FF0000200B513469446BC
:100360009646203922BFA0E80C50A0E80C50B1F10D
:100370002001BFF4F7AF090728BFA0E80C5048BF21
:100380000CC05DF804EB890028BF40F8042B08BFBF
:10039000704748BF20F8022B11F0804F18BF00F8BB
:1003A000012B7047704770477047754600F02CF876
:1003B000AE4605006946534620F00700854618B052
:1003C00020B5FFF73FFFBDE820404FF000064FF09B
:1003D00000074FF000084FF0000B21F00701AC467A
:1003E000ACE8C009ACE8C009ACE8C009ACE8C00999
:1003F0008D46704710B50446AFF300802046BDE837
:100400001040FFF70ABF00000048704798760020B0
:1004100001491820ABBEFEE726000200704700002D
:1004200010B56849486940F080504861486940F01B
:10043000010048614FF0A040D0F8082342F4803218
:10044000C0F80823CA6A42F48072CA624A6942F05C
:1004500080524A61D0F8081341F00601C0F8081331
:10046000D0F8081341F40051C0F80813D0F808136D
:1004700041F40041C0F80813D0F8081321F480714A
:10048000C0F80813C16821F00801C160C16821F0FB
:100490001001C160016B41F0C0010163C16841F00E
:1004A0002001C160C16821F4707141F4E071C16044
:1004B000C16821F4406141F48061C160416921F467
:1004C000606141F400714161C16841F00101C160A6
:1004D000D0F80C1121F00801C0F80C11D0F80C1163
:1004E00021F01001C0F80C11D0F8301141F0C0011A
:1004F000C0F83011D0F80C1141F02001C0F80C11F7
:10050000D0F8181121F4606141F40071C0F818119D
:10051000816841F00041816081680029FCDBD0F8EE
:10052000081141F00041C0F80811D0F80811002965
:10053000FBDB816841F001018160816841F00401C9
:100540008160D0F8081141F00101C0F808111F487E
:100550001D4901611E494161816841F002018160CC
:10056000816841F004018160816821F0100181609F
:10057000816841F020018160816821F480518160AF
:10058000816841F080018160816821F040018160D3
:10059000816841F400718160816841F4006181608B
:1005A000C16841F08001C160816841F00101816052
:1005B00002210B2002F0BAF9BDE810400B2002F036
:1005C000A8B90000001002400C03005000000240D7
:1005D00098740020FEE7000010B53048C16941F072
:1005E0000051C161416941F0020141612C4801683B
:1005F00041F001010160016841F48051016001682E
:1006000021F4706141F430610160016821F038012A
:1006100041F020010160016841F004010160001D0A
:10062000016821F0010101601E49001D0860091DDB
:100630001D4808601B480838016841F0020101604C
:10064000016841F010010160016841F02001016082
:10065000016821F480510160016841F0800101606E
:10066000016821F040010160016841F4807101607E
:10067000016841F480610160011D0A6842F0800256
:100680000A60016841F00101016000213A2002F096
:100690004DF9BDE810403A2002F03BB9001002408D
:1006A00000740040380402402A2B00082DE9F04174
:1006B000214C2068214D224E224F234A2349244BAE
:1006C000400719D5606840F0010060602868012883
:1006D00012D1306897F800C060450DD8002052F85C
:1006E00020C0D1F8008000EBC81803EB8808C8F8D8
:1006F00004C0401C4028F2D32068800719D56068E8
:1007000040F0010060602868012812D130683C7810
:10071000A0420ED8402052F820400D6800EBC515CD
:1007200003EB85056C60401C8028F4D30868401CEE
:100730000860BDE8F08100000000024024000020B5
:100740001000002000000020987400200C00002001
:100750004001002030B519480068800524D51748AD
:10076000001D016841F48071016015490B6800208B
:10077000144A012B02D1144B1B78B3B11168144BEE
:10078000CC07124917D001241C600D686D1C0D6048
:100790000968104D2D78A94206D9116821F0010190
:1007A00011600D490C60186030BD136843F00103FF
:1007B0001360086030BD1860086030BD000402405E
:1007C0001C00002000340140140000201000002014
:1007D000240000200000002018000020704772B69E
:1007E000FEE710B590F821100022022905D004215F
:1007F000816380F82020012010BD01680B6823F080
:100800000E030B6001680B6823F001030B6090F886
:100810004030012404FA03F1C36B596080F8214091
:1008200080F82020002010BD10B5002490F8211081
:10083000022903D004218163012418E001680A68B9
:1008400022F00E020A6001680A6822F001020A60C2
:1008500090F84020012303FA02F1C26B516080F846
:100860002130002180F82010416B01B188472046DB
:1008700010BD000070B5044600F0E6F80546601CA7
:1008800002D004480078044400F0DEF8401BA04287
:10089000FAD370BD300000202DE9F84F0022DFF8B8
:1008A00080914FF0010809F1040A03274FF00F0C63
:1008B0000AF1040BACE008FA02F52B40002B72D0D1
:1008C0000C7904F00304012C01D0022C15D18668A8
:1008D000540007FA04FE26EA0E06D1F80CE00EFAE0
:1008E00004FE4EEA060EC0F808E04468AC430D79F9
:1008F000C5F300159540254345600C79E443A407F2
:1009000008D0C568540007FA04F6B5438E68A640BF
:100910002E43C6600C7904F00304022C11D1D408D4
:1009200000EB8406356A5407E40E0CFA04FE25EA4F
:100930000E05D1F810E00EFA04FE4EEA050EC6F8D8
:1009400020E00568540007FA04F6B5430E7906F076
:100950000306A6402E4306604C6814F4403F56D070
:10096000304CA56945F00105A561A46904F00104B6
:1009700000942D4C22F003052E19B56894074FEA18
:10098000147E0CFA0EF4A543B0F1904F04D0274C1E
:10099000A04203D1012412E0002410E0244CA04224
:1009A00002D102240BE032E0224CA04201D1032408
:1009B00005E0214CA04201D1042400E0052404FA02
:1009C0000EF42C43B460D9F800409C434D68ED030D
:1009D00000D51C43C9F80040DAF800409C434D683C
:1009E000AD0300D51C43CAF80040DBF800409C432F
:1009F0004D68ED0200D51C43CBF80040084D0C3586
:100A00002C689C434E68B60200D51C432C60521CD7
:100A10000B6833FA02F47FF44EAFBDE8F88F0000A4
:100A200000040140001002400000014000040048A2
:100A300000080048000C004800100048002A01D0BF
:100A4000816170478162704701488068704700008B
:100A500030000020024881680278114481607047AC
:100A60003000002010B50748016841F01001016016
:100A7000032000F06FF80F2000F006F800F026F8D1
:100A8000002010BD0020024070B504460D4D4FF40B
:100A90007A712878B1FBF0F00B490968B1FBF0F0EE
:100AA00000F0CDFE08B1012070BD102C07D200224D
:100AB0002146501E00F02EF86C60002070BD012011
:100AC00070BD0000300000203C00002008B509483F
:100AD000816941F001018161816901F001010091A9
:100AE000C16941F08051C161C06900F0805000903F
:100AF00008BD000000100240002809DB00F01F02C2
:100B0000012191404009800000F1E020C0F800116F
:100B100070470000F0B40D460D4B1B68C3F3022371
:100B2000C3F10704042C00D90424191D072901D29C
:100B3000002300E0DB1E012606FA04F1491E2940CD
:100B400099409E40761E16403143F0BC01F0FEBE37
:100B50000CED00E000F00701054A10684FF6FF03B6
:100B6000184040EA01200349084310607047000024
:100B70000CED00E00000FA05BFF34F8F0548016857
:100B8000054A01F4E06111430160BFF34F8F00BFDC
:100B9000FDE700000CED00E00400FA0538B504465E
:100BA0000025002C14D094F83200052812D094F8B7
:100BB0003200022810D02E48816941F00101816184
:100BC000806900F00100009094F8320030B108E034
:100BD000012038BD012038BD012038BD002084F837
:100BE0003100204600F048F860682249402821D0B2
:100BF00060281FD0A2681043D4E903231A4310438E
:100C000062691043A2691043E2691043226A1043EB
:100C1000626A1043228D40EAC24094F82C2040EAD8
:100C20000262206803680B401A43026094F83200A5
:100C3000C8B11BE0E268A369104322691A4310435C
:100C4000E2691043226A1043626A1043228D40EA2F
:100C5000C24094F82C2040EA0262206803680B40EE
:100C60001A430260E2E7012084F83200284638BDCA
:100C700000100240113800E030B587B0044614215E
:100C800002A8FFF768FB2B4D216800242A4A0323A2
:100C90004FF09040A94210D1516941F400315161A7
:100CA000516901F4003101910E21029103930494E2
:100CB00002A9FFF7F1FD07B030BD1E4D2D1DA94261
:100CC0000FD1516941F400315161516901F4003192
:100CD0000191E02102910393049402A9FFF7DCFD46
:100CE000E9E7144D15480835A9420ED1516941F480
:100CF00080215161516901F4802101910293039394
:100D0000049402A9FFF7C8FDD5E70A4D0C35A942A6
:100D1000D1D1516941F480215161516901F480219F
:100D200001914FF4C05102910393049402A9FFF77B
:100D3000B3FDC0E738000140001002400004004845
:100D4000002100280AD090F83220052A08D090F817
:100D50003220012A06D00121084670470121FBE715
:100D60000121F9E70268136843F0010313600422CC
:100D700080F83220F0E700002DE9F84F0446002605
:100D80002068804DC0036FD5E869C00008D4E869C9
:100D900040F08050E861E86900F080500090012642
:100DA000794F3868C00513D4386840F480703860D3
:100DB000FFF74AFE804608E0FFF746FEA0EB08007A
:100DC000642802D90320BDE8F88F3868C005F3D540
:100DD000286A00F4407078B3A18801F44071814220
:100DE0004DD0286A20F440704FF4803191FAA1F27E
:100DF000B2FA82F29300654A4FF001081344C3F837
:100E0000008491FAA1F1B1FA81F102EB8101002392
:100E1000C1F800342862C00731D0FFF715FE07463D
:100E200041F2883A4FF0020907E0FFF70DFEC01BC0
:100E3000504502D90320C6E721E099FAA9F0B0FA9B
:100E400080F040F040004146B8EB501F01D12868C7
:100E50000CE099FAA9F0B0FA80F040F04000B9EB4C
:100E6000501F02D1286A01E015E0686A99FAA9F2D8
:100E7000B2FA82F202F01F0291400842D5D0286AED
:100E8000616820F4407008432862012E03D1E869AC
:100E900020F08050E8612078C00705D0286BA16859
:100EA00020F00300084328632078800705D5286BCD
:100EB000E16820F44030084328632078400705D5D6
:100EC000286B216920F4402008432863207880069D
:100ED00005D5286BE16920F01000084328632068DD
:100EE000800305D56868A16B20F480000843686022
:100EF0002078400605D5286B216A20F020000843A1
:100F000028632078000705D5286B616920F440101C
:100F1000084328632078C00605D5286BA16920F412
:100F20004000084328632088800505D56868E16A89
:100F300020F40000084368602078000605D5E86AC0
:100F4000616A20F4F8700843E8622088C00505D57E
:100F5000E86AA16A20F478500843E8622088C00457
:100F600005D5286B216B20F4807008432863208806
:100F7000800405D5286B616B20F40070084328635A
:100F8000002020E7001002400070004000004242B4
:100F90002DE9F04704460D46002C17D0DFF8948168
:100FA000D8F8000000F00700A84211D2D8F80000DD
:100FB00020F007002843C8F80000D8F8000000F02F
:100FC0000700A84204D00120BDE8F0870120FBE71C
:100FD0002078594E800705D57068A16820F0F00090
:100FE000084370602078C00765D06068012201283E
:100FF0000CD0022822D0022393FAA3F1B1FA81F196
:1010000041F02001490931D0316830E04FF400331C
:1010100093FAA3F1B1FA81F141F02001490901D01D
:10102000316800E0716A93FAA3F3B3FA83F303F033
:101030001F039A40114225D10120C5E74FF00073EC
:1010400093FAA3F1B1FA81F141F02001490901D0ED
:10105000316800E0716A93FAA3F3B3FA83F303F003
:101060001F039A4011420DD10120ADE7716A93FA36
:10107000A3F3B3FA83F303F01F039A40114201D1A3
:101080000120A1E7716821F0030101437160FFF7BE
:10109000DBFC074641F2883906E0FFF7D5FCC01BB0
:1010A000484501D903208FE77068616800F00C00A3
:1010B000B0EB810FF1D1D8F8000000F00700A84292
:1010C0000ED9D8F8000020F007002843C8F8000027
:1010D000D8F8000000F00700A84201D0012073E713
:1010E0002078400705D57068E16820F4E060084387
:1010F00070602078000706D57068216920F4605080
:1011000040EAC100706000F051F87168F02292FA74
:10111000A2F201F0F001B2FA82F2D140074A515C2A
:10112000C8400749086007480068FFF7ADFC002089
:101130004AE7000000200240001002404A2C00084C
:101140003C00002034000020014800687047000087
:101150003C00002000B5FFF7F7FF074949684FF44E
:10116000E06292FAA2F201F4E061B2FA82F2D140B6
:10117000024A515CC84000BD001002405A2C0008D1
:1011800000B5FFF7E1FF074949684FF4605292FA52
:10119000A2F201F46051B2FA82F2D140024A515CEB
:1011A000C84000BD001002405A2C000810B5164B74
:1011B0005968164801F00C02042A20D0082A1ED1D2
:1011C0004FF4701494FAA4F401F47012B4FA84F495
:1011D000E2400F4CA45CDA6A0F2393FAA3F302F007
:1011E0000F02B3FA83F3DA40094B10339A5CC90358
:1011F00006D500231946FFF737F8A0FB040110BD00
:101200000448A4FB000110BD0010024000127A0047
:101210002A2C000800093D002DE9F84F0446002C57
:1012200012D02078F84EC0074FF001055ED07068EC
:101230004FF40038C0F3810001280BD07068C0F370
:101240008100022803D01EE00120BDE8F88F7068FD
:10125000C00318D598FAA8F0B0FA80F040F020004A
:10126000400901D0306800E0706A98FAA8F1B1FA3C
:1012700081F101F01F0105FA01F1084275D06068A3
:10128000A0BB0120E1E76068B0F5803F17D0D8B17E
:10129000B0F5A02F21D0306820F480303060306865
:1012A00020F480203060F06AA16820F00F0008432D
:1012B000F0626068C0B3FFF7C7FB07461EE0306806
:1012C00040F480303060EEE7306820F480303060E9
:1012D000306820F480203060E5E7306840F48020FA
:1012E0003060306840F480303060DCE73DE0FFF78C
:1012F000ABFBC01B642801D90320A6E798FAA8F02D
:10130000B0FA80F040F02000400901D0306800E0E1
:10131000706A98FAA8F1B1FA81F101F01F0105FA9B
:1013200001F10842E3D020E0FFE7FFF78DFB07461D
:1013300006E0FFF789FBC01B642801D9032084E77E
:1013400098FAA8F0B0FA80F040F02000400901D0EF
:10135000306800E0706A98FAA8F1B1FA81F101F002
:101360001F0105FA01F10842E3D12078DFF89C82E1
:1013700080074FF0000B4FF0020732D570684FF036
:10138000F80A10F00C0F07D07068C0F38100022833
:1013900028D17068C00325D497FAA7F0B0FA80F07E
:1013A00040F02000400901D0306800E0706A97FAF0
:1013B000A7F1B1FA81F101F01F0105FA01F108422C
:1013C00004D02069012801D001203EE730689AFA54
:1013D000AAF26169B2FA82F220F0F8009140084363
:1013E00030605CE0206990B395FAA5F0B0FA80F027
:1013F00048F82050FFF728FB814607E0FFF724FB61
:10140000A0EB0900022801D903201EE797FAA7F0F4
:10141000B0FA80F040F02000400901D0306800E0D0
:10142000706A97FAA7F1B1FA81F101F01F0105FA8C
:1014300001F10842E2D030689AFAAAF26169B2FA80
:1014400082F220F0F80091400843306027E0FFE787
:1014500095FAA5F0B0FA80F048F820B0FFF7F4FA5A
:10146000814607E0FFF7F0FAA0EB0900022801D956
:101470000320EAE697FAA7F0B0FA80F040F02000E7
:10148000400901D0306800E0706A97FAA7F1B1FA1C
:1014900081F101F01F0105FA01F10842E2D1207843
:1014A00000076DD5A069A8B395FAA5F0B0FA80F051
:1014B00008EB8000C0F88054FFF7C6FA814607E0C9
:1014C000FFF7C2FAA0EB0900022801D90320BCE60D
:1014D00097FAA7F0B0FA80F040F06000B5EB501F2B
:1014E00001D130680BE097FAA7F0B0FA80F040F035
:1014F0006000B7EB501F01D1306A00E0706A97FAC4
:10150000A7F1B1FA81F101F01F0205FA02F10842D8
:10151000D6D035E0FFE795FAA5F0B0FA80F008EBF9
:101520008000C0F880B4FFF78FFA814607E0FFF72C
:101530008BFAA0EB0900022801D9032085E697FA6F
:10154000A7F0B0FA80F040F06000B5EB501F01D179
:1015500030680BE097FAA7F0B0FA80F040F0600036
:10156000B7EB501F01D1306A00E0706A97FAA7F11B
:10157000B1FA81F101F01F0205FA02F10842D6D159
:10158000207840076ED54FF00009F069C00009D4FB
:10159000F06940F08050F061F06900F080500090F8
:1015A0004FF001091A480168C90513D4016841F4D4
:1015B00080710160FFF748FA824607E0FFF744FABE
:1015C000A0EB0A00642801D903203EE61048006819
:1015D000C005F3D5E068012810D0D8B1052822D085
:1015E000306A20F001003062306A20F0040030627E
:1015F000E068B0B3FFF728FA824627E0306A40F08F
:1016000001003062F4E70000001002400000424296
:1016100000700040306A20F001003062306A20F033
:1016200004003062E4E7306A40F004003062306A5F
:1016300040F001003062DBE7FFF706FAA0EB0A0199
:1016400041F28830814201D90320FEE597FAA7F0E4
:10165000B0FA80F040F04000B5EB501F03D1306885
:101660000DE017E04CE097FAA7F0B0FA80F040F0F8
:101670004000B7EB501F01D1306A00E0706A97FA62
:10168000A7F1B1FA81F101F01F0105FA01F2104250
:10169000D2D02EE0FFF7D8F9824609E0FFF7D4F95F
:1016A000A0EB0A0141F28830814201D90320CCE548
:1016B00097FAA7F0B0FA80F040F04000B5EB501F69
:1016C00001D130680BE097FAA7F0B0FA80F040F053
:1016D0004000B7EB501F01D1306A00E0706A97FA02
:1016E000A7F1B1FA81F101F01F0105FA01F21042F0
:1016F000D4D1B9F1010F03D1F06920F08050F0612D
:10170000E06980B37168C1F38101022977D04FF09D
:1017100080794FF00077022809D099FAA9F0B0FA41
:1017200080F048F820B0FFF78FF904465DE099FAA1
:10173000A9F0B0FA80F048F820B0FFF785F98246AA
:1017400007E0FFF781F9A0EB0A00022801D9032086
:101750007BE597FAA7F0B0FA80F040F0200040094E
:1017600002D0306801E068E0706A97FAA7F1B1FA38
:1017700081F101F01F0105FA01F10842E1D1D4E93C
:1017800008100843716821F474110843706099FAD5
:10179000A9F0B0FA80F048F82050FFF755F9044658
:1017A00006E0FFF751F9001B022801D903204CE5A0
:1017B00097FAA7F0B0FA80F040F02000400901D07D
:1017C000316800E0716A97FAA7F0B0FA80F000F093
:1017D0001F0005FA00F00142E3D02EE0FFF734F9D4
:1017E000001B022801D903202FE597FAA7F0B0FAD1
:1017F00080F040F02000400902D0316801E00BE0A9
:10180000716A97FAA7F0B0FA80F000F01F0005FAAD
:1018100000F00142E2D110E001280CD07068226A89
:1018200000F48031914204D1616A00F47010884262
:1018300003D0012009E5012007E5002005E510B5EA
:10184000401EB0F1807F01D3012010BD4FF0E02495
:1018500060610F21601701F079F80020A061072076
:101860002061002010BD70477047704770B5044676
:10187000206850E8001F21F4907140E80012002A0F
:10188000F6D12068083050E8001F21F0010140E83F
:101890000012002AF5D1206E012808D1206850E8F6
:1018A000001F21F0100140E80012002AF6D1206844
:1018B00081684FF0000349064FF00F054FF02006F6
:1018C00025D52068083050E8001F21F0400140E88D
:1018D0000012002AF5D1206F48B112494163206FF0
:1018E000FEF7A2FFE0B1206F416B884718E0A4F833
:1018F0005A306365206805622068816941F00801FB
:101900008161E66723662046FFF7AFFF08E0A4F891
:101910005A3063650562E66723662046FFF7A5FF38
:10192000002070BD21230008704700002DE9F04120
:1019300004462268D0691168936840F60F0500EAF2
:101940000506002E0AD1850608D58D0606D5616EDE
:1019500000297DD02046BDE8F04108470025002E33
:1019600077D0984F03F001060F40374371D0C70777
:1019700009D0CF0507D501271762D4F8802042F09F
:101980000102C4F8802082070AD5DA0708D0276848
:1019900002223A62D4F8802042F00402C4F8802087
:1019A00042070AD5DA0708D0236804221A62D4F85D
:1019B000802042F00202C4F8802002070CD501F01A
:1019C0002002324308D0236808221A62D4F880200B
:1019D00042F00802C4F8802002050BD54A0109D55F
:1019E00023684FF400621A62D4F8802042F020028B
:1019F000C4F88020D4F88020002A35D0800605D590
:101A0000880603D5616E09B120468847D4F8800066
:101A100021688968490602D410F0280F2AD0204690
:101A200000F091FC2068806840061FD520680830CF
:101A300050E8001F21F0400140E80012002AF5D1D3
:101A4000206F70B160494163206FFEF7EDFE01E049
:101A50000AE015E0002807D0206F416BBDE8F04197
:101A600008472046FFF760FFBDE8F0812046FFF7FA
:101A70005BFFF9E72046FFF757FFC4F88050F3E714
:101A8000266E012E7ED1C6067CD5CE067AD51020D4
:101A90001062206880684FF02003400643D5216F14
:101AA0000868406880B20028DED0B4F8582082422E
:101AB000DAD9A4F85A00886920282AD0206850E88A
:101AC000001F21F4807140E80012002AF6D120683E
:101AD000083050E8001F21F0010140E80012002A00
:101AE000F5D12068083050E8001F21F0400140E89F
:101AF0000012002AF5D1E3672566206850E8001F30
:101B000021F0100140E80012002AF6D1206FFEF704
:101B100068FEB4F85800B4F85A10401A81B2204652
:101B2000FFF7A1FEA0E734F8580F6188401A81B290
:101B30006088583C002897D0002995D0206850E84C
:101B4000002F22F4907240E80026002EF6D1206883
:101B5000083050E8002F22F0010240E80026002E55
:101B6000F5D1E36725666566206850E8002F22F00E
:101B7000100240E80023002BF6D12046FFF773FE49
:101B800072E7FFE7C50209D55B0207D54FF4801065
:101B900010622046BDE8F041FFF766BE020608D598
:101BA0000A0606D5A16E0029BCD02046BDE8F0414A
:101BB00008474006B6D54806B4D52046BDE8F041F2
:101BC00000F0E6BB200100040D23000810B5044618
:101BD000002C02D0A06F10B107E0012010BD002042
:101BE00084F87400204600F027F82420A0672068BD
:101BF000016821F001010160204600F077FC012816
:101C000018D0606A10B1204600F0ECFA20684168F4
:101C100021F4904141602068816821F02A018160AF
:101C20002068016841F0010101602046BDE81040D4
:101C300000F03CBB012010BD10B586B00446142155
:101C400001A8FEF788FB17492068884228D116486A
:101C5000816941F480418161816901F48041009191
:101C6000416941F400314161406900F40030009065
:101C70004FF4C060019002200290002003900320E6
:101C800004900720059001A94FF09040FEF704FE54
:101C9000002211462520FEF73DFF2520FEF72CFFF0
:101CA00006B010BD003801400010024030B4C36FD0
:101CB000202B02D0022030BC7047C9B1C2B190F8CD
:101CC0007430012B16D0012380F874300023036692
:101CD00003685B681B0208D5036853E8004F44F0B3
:101CE000806443E80045002DF6D130BC00F00EBD05
:101CF0000120E0E70220DEE70B49884213D10B49BF
:101D0000087800280FD00A4A0120107000220A70BB
:101D100008490A78012A01D1074A10600322491CA8
:101D20000148FFF7C3BF7047147400200200002071
:101D300028000020200000201C000020836F202BA2
:101D400001D002207047B9B1B2B190F87430012BC4
:101D500014D0012380F87430C164A0F85020A0F89A
:101D6000522000218166C0F880102122826782689B
:101D7000B2F5805F04D005E0012070470220704773
:101D8000026972B1084A826680F87410016851E8ED
:101D9000002F42F0800241E80023002BF6D1002002
:101DA0007047024A8266EFE7F9270008A927000872
:101DB0000549884207D10549002008704FF4E441E5
:101DC0000348FEF7C8BA70471474002014000020BE
:101DD00044010020FEE7000070B586B0142101A880
:101DE000FEF7B9FA2648416941F400214161416991
:101DF00001F400210091416941F480014161416990
:101E000001F480010091416941F40031416141696F
:101E100001F400310091416941F480214161406940
:101E200000F480200090174D4FF40054002221460A
:101E30002846FEF703FE0194012102910024039439
:101E4000049401A92846FEF727FD102001900325E0
:101E5000029503944FF0904601A93046FEF71CFD11
:101E60004FF4004101911221029103940495042141
:101E7000059101A93046FEF70FFD06B070BD0000C8
:101E8000001002400008004810B50A4808490160E7
:101E9000002141600C22C260202282600161416207
:101EA000FEF77CFE002801D0FEF799FC10BD000073
:101EB000380001404473002010B50A480849016009
:101EC000002141600C22C2602022826001614162D7
:101ED000FEF764FE002801D0FEF781FC10BD000073
:101EE0003C0001407873002010B5094807490160A3
:101EF000602141600C21C160002101614162FEF757
:101F00004DFE002801D0FEF76AFC10BD40000140E4
:101F1000AC73002010B50948074901606021416099
:101F20000421C160002101614162FEF737FE0028F3
:101F300001D0FEF754FC10BD44000140E0730020C6
:101F400010B5052211462520FEF7E4FD0B480A498D
:101F500001600B49416000218160C16001610C2278
:101F600042618161C16101624162FFF72FFE002879
:101F700001D0FEF734FC10BD00380140147400207D
:101F8000C0C62D00FEE7FEE770477047FEF762BD52
:101F900070B59EB0282114A8FEF7DDF914210FA812
:101FA000FEF7D9F93C216846FEF7D5F901251495CD
:101FB0002804159000241694189502261B961C9050
:101FC0004FF4E0101D9014A8FFF726F908B1FEF7B2
:101FD00006FC0F200F90109611944FF48060129021
:101FE000139402210FA8FEF7D3FF08B1FEF7F7FB09
:101FF000009502946846FEF7BFFE002801D0FEF768
:10200000EEFB1EB070BD00000248016841F4700193
:102010000160704788ED00E04FF080400169C9071A
:1020200003D0016921F001010161704710B5154825
:10203000C16941F00101C16180048168124A114007
:10204000816000210160816240F2F311C162C168C8
:1020500041F00101C160016821F010010160416897
:1020600021F0700141F020014160016841F001015F
:10207000016001211C2000F059FCBDE810401C202B
:1020800000F047BC00100240F8FFFEFF70B5114899
:102090000168C90709D0016821F0010101600E4DF6
:1020A00028780E4C002608B1268070BD2088401C80
:1020B00080B220801928F8D30948FFF7D7FB012008
:1020C00028702680BDE87040012206490448FFF7C9
:1020D000EDBD000010040040020000202C00002094
:1020E000147400202000002010B51A48C16941F086
:1020F0000201C16118480168184A11400160164880
:10210000002108380160144A20321160124948F653
:102110009F4224310A601049091D0A6842F00102F9
:102120000A60016821F010010160011D0A6822F0B7
:10213000700242F020020A60016841F00101016072
:1021400004211D2000F0F2FBBDE810401D2000F02E
:10215000E0BB00000010024008040040F8FFFEFF52
:1021600010B51748816941F4005181611548016833
:10217000154A114001601348002108380160114AD6
:10218000203211607C21121D11600E49091D0A6860
:1021900042F001020A60016821F010010160001D97
:1021A000016821F0700141F02001016003212C2021
:1021B00000F0BCFBBDE810402C2000F0AABB0000E2
:1021C0000010024008340140F8FFFEFF0448016897
:1021D000C90703D0016821F00101016070470000C8
:1021E0001034014090F82410C90706D001684A68ED
:1021F000836A22F400321A434A6090F82410890757
:1022000006D501684A68C36A22F480321A434A60DC
:1022100090F82410490706D501684A68036B22F438
:1022200080221A434A6090F82410090706D50168F5
:102230004A68436B22F400421A434A6090F8241023
:10224000C90606D501688A68836B22F480521A4356
:102250008A6090F82410890606D501688A68C36BE5
:1022600022F400521A438A6090F82410490611D5CE
:1022700001684A68036C22F480121A434A60016CB8
:10228000B1F5801F06D101684A68436C22F4C00290
:102290001A434A6090F82410090606D501684A6876
:1022A000806C22F4002202434A607047F8B504466D
:1022B0000025C4F88050FEF7C7FB07462068006879
:1022C0006FF07E4600070AD53B4600224FF400110E
:1022D0002046009600F0B6FA08B10320F8BD206849
:1022E000006840070AD53B4600224FF48001204693
:1022F000009600F0A7FA08B10320F8BD2020A067DF
:10230000E067256684F874500020F8BD10B5406A77
:102310000021A0F85A10A0F85210FFF705FB10BDDD
:1023200010B5406A0022A0F85A2003680F211962F4
:1023300001688B6943F008038B612021C167026645
:10234000FFF793FA10BD016851E8002F22F4907254
:1023500041E80023002BF6D10168083151E8002F35
:1023600022F0010241E80023002BF5D1016E012982
:1023700008D1016851E8002F22F0100241E8002343
:10238000002BF6D12021C16700210166416670470C
:1023900010B5016851E8002F22F0400241E8002307
:1023A000002BF6D12021816700218166FFF700FD17
:1023B00010BD10B5B0F85C20C36F0168222B04D0AB
:1023C000886940F00800886110BD898C50F8543F3E
:1023D000114019800168891C0160C188491EC180B3
:1023E000C18854380029EFD1016851E8002F22F448
:1023F000907241E80023002BF6D10168083151E8C2
:10240000002F22F0010241E80023002BF5D120210A
:10241000C16700214166026E012A02D0FFF76CFC01
:1024200010BD0166016851E8002F22F0100241E85A
:102430000023002BF6D10168CA69D243D20601D429
:1024400010220A62B0F85810FFF70DFA10BD10B54F
:10245000B0F85C20C36F0168222B04D0886940F07B
:102460000800886110BD898C114050F8542F1170FC
:102470000168491C0160C188491EC180C188543867
:102480000029EFD1016851E8002F22F4907241E851
:102490000023002BF6D10168083151E8002F22F00B
:1024A000010241E80023002BF5D12021C167002162
:1024B0004166026E012A02D0FFF71EFC10BD0166C4
:1024C000016851E8002F22F0100241E80023002BA0
:1024D000F6D10168CA69D243D20601D410220A6239
:1024E000B0F85810FFF7BFF910BD000070B50446F2
:1024F0000025A1682069E269014360691043014336
:102500002068026849F20C639A430A43026020681B
:102510004168E26821F4405111434160A069216A99
:1025200001432068826822F430620A438260704A64
:1025300020687049904213D1086B10F0030007D057
:10254000012809D0022809D0032803D0102170E007
:1025500001216EE002216CE004216AE0082168E0BC
:10256000654A904216D1086B10F440300AD0B0F59D
:10257000803F0BD0B0F5003F0AD0B0F5403F03D00C
:10258000102156E0002154E0022152E0042150E0E5
:1025900008214EE0594A904216D1086B10F44020B1
:1025A0000AD0B0F5802F0BD0B0F5002F0AD0B0F5CF
:1025B000402F03D010213CE000213AE0022138E016
:1025C000042136E0082134E04D4A904216D1086BD0
:1025D00010F440100AD0B0F5801F0BD0B0F5001FEA
:1025E0000AD0B0F5401F03D0102122E0002120E0E6
:1025F00002211EE004211CE008211AE0414A904219
:1026000016D1086B10F440000AD0B0F5800F0BD043
:10261000B0F5000F0AD0B0F5400F03D0102108E04C
:10262000002106E0022104E0042102E0082100E08C
:102630001021E3694FF40040334A4FF6EF768342AE
:102640002CD1092911D2DFE801F005080B100D107B
:1026500010101200FEF77EFD09E0FEF791FD06E086
:10266000104604E0FEF7A2FD01E000200125C0B302
:102670004100606801EB5001B1FBF0F080B2A0F1C5
:102680001001B14208D84FF6F0710140C0F342008A
:1026900001432068C16026E0012524E0092911D208
:1026A000DFE801F005080B100D1010101200FEF706
:1026B00051FD09E0FEF764FD06E0104604E0FEF778
:1026C00075FD01E00020012558B1616800EB510063
:1026D000B0FBF1F080B2A0F11001B14202D8216844
:1026E000C86000E0012500206066A066284670BD35
:1026F0000038014000100240004400400048004003
:10270000004C00400050004000127A0030B5416596
:10271000A0F85820A0F85A200024446681684FF49D
:102720008055FF22A94209D1016911B1A0F85C20AE
:1027300007E040F2FF11A0F85C1002E019B3A0F826
:102740005C40C0F880402221C1670168083151E82F
:10275000002F42F0010241E80023002BF5D18168EF
:10276000A94201D10169B9B10D49416680F87440AF
:10277000016851E8002F42F4907241E80023002BD9
:10278000F6D1002030BD016919B17F21A0F85C109D
:10279000D7E7A0F85C20D4E702494166E6E70000ED
:1027A0004F240008B3230008816F212910D1B0F80D
:1027B000521071B1C16C02680988C1F3080111851A
:1027C000C16C891CC164B0F85210491EA0F85210A7
:1027D0007047016851E8002F22F0800241E8002391
:1027E000002BF6D1016851E8002F42F0400241E889
:1027F0000023002BF6D17047816F21290ED1B0F84C
:10280000521061B1C16C026809781185C16C491C14
:10281000C164B0F85210491EA0F852107047016808
:1028200051E8002F22F0800241E80023002BF6D16E
:10283000016851E8002F42F0400241E80023002BDC
:10284000F6D170472DE9F0470446089D8846914629
:102850009A460027202648E0681C46D0FEF7F4F888
:10286000A0EB0A00A84227D835B3206801684907C1
:102870003BD5C069C043000537D421684FF40060E0
:102880000862206850E8001F21F4D07140E800126F
:10289000002AF6D12068083050E8001F21F001011D
:1028A00040E80012002AF5D174346660A660E66044
:1028B00027700320BDE8F087206850E8001F21F44E
:1028C000D07140E80012002AF6D12068083050E8A4
:1028D000001F21F0010140E80012002AF5D1A6678F
:1028E000E66784F874700320E4E72068C06938EA7A
:1028F000000004D000204845AED00020DAE70120D7
:10290000F9E700000148FFF711B800001474002037
:10291000FEE7002809DB00F01F0201219140400979
:10292000800000F1E020C0F8001170470907090E8F
:10293000002804DB00F1E02080F80014704700F06C
:102940000F0000F1E02080F8141D70470907090E00
:10295000002804DB00F1E02080F80014704700F04C
:102960000F0000F1E02080F8141D7047FEF77AF8A0
:10297000FFF70EFBFFF730FAFFF7CCFAFFF784FA08
:10298000FFF79AFAFFF7B0FAFFF7DAFA5C48FEF7BA
:10299000D7F95B483430FEF7D3F959486830FEF771
:1029A000CFF957489C30FEF7CBF9FDF739FDFDF71D
:1029B00013FEFFF73BFBFFF7D3FBFFF795FB514DF2
:1029C0000126AE704E48012205F12001D030FFF7FC
:1029D0006DF94D4FDFF83481002405F1200999F895
:1029E0000000012828D199F8011029B32970A8699D
:1029F0000128F4D1EC6189F8004089F80140286988
:102A0000401E6870E8684FF6FF7101EA4020A88018
:102A10006878A98806EB002040EA01403C4908603C
:102A2000EC60AC612C616E61A888001D82B23448F4
:102A3000D030FFF783F9D2E702281CD0032822D038
:102A4000042823D005282AD0062845D00728C6D137
:102A50000A20FDF70FFF99F8020099F8031000EB28
:102A60000120288199F8010089F8000089F80240C6
:102A700089F80340B3E789F800402648016821F04F
:102A800001010160ABE7FEF777F8A8E789F800409D
:102A90001B48042220A1D030FFF750F99FE789F8A6
:102AA000004089F80140288906EB9010E88000205A
:102AB000412804D2E988414327F8101005E0C0F10D
:102AC000800137F8111027F81010401C80B28028C0
:102AD000EED3C8F8007082E789F8004089F8014019
:102AE000288906EBD010E8800020E988414327F8C8
:102AF0001010401C80B28028F7D3C8F800706EE731
:102B00004473002000000020400000203C040240EC
:102B1000400100200034014054455354000000009F
:102B20004FF04070E1EE100A704700004000800056
:102B3000C000000140018001C0010002400280028B
:102B4000C002000340038003C0030004400480046B
:102B5000C004000540058005C0050006400680064B
:102B6000C006000740078007C00700083F087F082D
:102B7000BF08FF083F097F09BF09FF093F0A7F0A15
:102B8000BF0AFF0A3F0B7F0BBF0BFF0B3F0C7F0CF5
:102B9000BF0CFF0C3F0D7F0DBF0DFF0D3F0E7F0ED5
:102BA000BF0EFF0E3F0F7F0FBF0FFF0FBF0F7F0F37
:102BB0003F0FFF0EBF0E7F0E3F0EFF0DBF0D7F0DAF
:102BC0003F0DFF0CBF0C7F0C3F0CFF0BBF0B7F0BAF
:102BD0003F0BFF0ABF0A7F0A3F0AFF09BF097F09AF
:102BE0003F09FF08BF087F083F080008C0078007AB
:102BF00040070007C006800640060006C0058005A5
:102C000040050005C004800440040004C0038003A4
:102C100040030003C002800240020002C0018001A4
:102C200040010001C00080004000020304050607C7
:102C300008090A0B0C0D0E0F101001020304050603
:102C40000708090A0B0C0D0E0F1000000000000011
:102C50000000010203040607080900000000010249
:102C600003040000842C0008000000204000000045
:102C7000C4010008C42C000840000020B87C0000FB
:102C8000E00100080000000000000000F401000066
:102C90000000000000000000000000000000000034
:102CA0000000000000000000000000000000000024
:102CB0000000000001000000100000000000000003
:042CC00000127A0084
:040000050800018965
:00000001FF
