:020000040800F2
:10000000F87C002029020008571F0008AD1D0008D9
:10001000551F0008D5050008392800080000000019
:100020000000000000000000000000005B1F00084E
:10003000D507000800000000591F00085D1F0008D8
:10004000430200084302000843020008430200087C
:10005000430200084302000843020008430200086C
:10006000430200084302000843020008AD060008EE
:10007000430200084302000843020008430200084C
:10008000430200084302000843020008430200083C
:10009000430200084302000843020008430200082C
:1000A000430200084302000843020008430200081C
:1000B0003120000843020008430200084302000800
:1000C00043020008430200084302000843020008FC
:1000D000430200082D2800084302000843020008DC
:1000E00043020008430200084302000843020008DC
:1000F000F5200008430200084302000843020008FC
:1001000000000000000000000000000043020008A2
:1001100043020008430200084302000843020008AB
:1001200043020008430200086D070008430200086C
:100130004302000843020008000000000000000025
:1001400043020008430200084302000800000000C8
:10015000000000000000000000000000000000009F
:1001600000000000000000004302000843020008F5
:100170004302000800000000000000000000000032
:10018000000000004302000800F002F800F03CF814
:100190000AA090E8000C82448344AAF10107DA45E2
:1001A00001D100F031F8AFF2090EBAE80F0013F0F8
:1001B000010F18BFFB1A43F001031847D4290000B0
:1001C000F4290000103A24BF78C878C1FAD8520741
:1001D00024BF30C830C144BF04680C6070470000C1
:1001E0000023002400250026103A28BF78C1FBD840
:1001F000520728BF30C148BF0B6070471FB502F0DF
:1002000025FC1FBD10B510BD00F0CFF81146FFF75B
:10021000F5FF02F03FFB00F0EDF803B4FFF7F2FF4B
:1002200003BC00F0F5F80000094880470948004782
:10023000FEE7FEE7FEE7FEE7FEE7FEE7FEE7FEE796
:10024000FEE7FEE704480549054A064B70470000F3
:100250002120000889010008F8760020F87C0020A1
:10026000F8780020F878002053EA020C00F069804A
:100270002DE9F04B4FF00006002B1FBFB3FA83F5BA
:1002800003FA05F424FA05F65E4012BF1643B2FAEB
:1002900082F502FA05F4C5F120051EBF22FA05FC1D
:1002A00044EA0C04203556EA044C4FEA144418BFC3
:1002B000641C4FF000084FF00009904271EB030CF2
:1002C00039D3002919BFB1FA81F701FA07F6B0FA5C
:1002D00080F700FA07F6C7F120071EBF20FA07FCD7
:1002E00046EA0C062037B6FBF4FCA7EB0507103FE7
:1002F00007F01F0BCBF120060CFA0BFB2CFA06F6CD
:1003000044BFB3460026202FA4BF5E464FF0000B2B
:100310005BEA060C08BF4FF0010B19EB0B09ABFBB6
:10032000027C48EB0608C01B06FB02CC0BFB03CC8F
:1003300071EB0C01C1E70B46024641464846BDE859
:10034000F08B13B54FF000004FF00001AFF30080C9
:10035000BDE81C4070474FF0000200B513469446BC
:100360009646203922BFA0E80C50A0E80C50B1F10D
:100370002001BFF4F7AF090728BFA0E80C5048BF21
:100380000CC05DF804EB890028BF40F8042B08BFBF
:10039000704748BF20F8022B11F0804F18BF00F8BB
:1003A000012B7047704770477047754600F02CF876
:1003B000AE4605006946534620F00700854618B052
:1003C00020B5FFF73FFFBDE820404FF000064FF09B
:1003D00000074FF000084FF0000B21F00701AC467A
:1003E000ACE8C009ACE8C009ACE8C009ACE8C00999
:1003F0008D46704710B50446AFF300802046BDE837
:100400001040FFF70ABF00000048704794760020B4
:1004100001491820ABBEFEE726000200704700002D
:1004200010B56849486940F080504861486940F01B
:10043000010048614FF0A040D0F8082342F4803218
:10044000C0F80823CA6A42F48072CA624A6942F05C
:1004500080524A61D0F8081341F00601C0F8081331
:10046000D0F8081341F40051C0F80813D0F808136D
:1004700041F40041C0F80813D0F8081321F480714A
:10048000C0F80813C16821F00801C160C16821F0FB
:100490001001C160016B41F0C0010163C16841F00E
:1004A0002001C160C16821F4707141F4E071C16044
:1004B000C16821F4406141F48061C160416921F467
:1004C000606141F400714161C16841F00101C160A6
:1004D000D0F80C1121F00801C0F80C11D0F80C1163
:1004E00021F01001C0F80C11D0F8301141F0C0011A
:1004F000C0F83011D0F80C1141F02001C0F80C11F7
:10050000D0F8181121F4606141F40071C0F818119D
:10051000816841F00041816081680029FCDBD0F8EE
:10052000081141F00041C0F80811D0F80811002965
:10053000FBDB816841F001018160816841F00401C9
:100540008160D0F8081141F00101C0F808111F487E
:100550001D4901611E494161816841F002018160CC
:10056000816841F004018160816821F0100181609F
:10057000816841F020018160816821F480518160AF
:10058000816841F080018160816821F040018160D3
:10059000816841F400718160816841F4006181608B
:1005A000C16841F08001C160816841F00101816052
:1005B0000B2002F042F90221BDE810400B2002F0AE
:1005C00049B90000001002400C0300500000024036
:1005D00094740020FEE7000010B53048C16941F076
:1005E0000051C161416941F0020141612C4801683B
:1005F00041F001010160016841F48051016001682E
:1006000021F4706141F430610160016821F038012A
:1006100041F020010160016841F004010160001D0A
:10062000016821F0010101601E49001D0860091DDB
:100630001D4808601B480838016841F0020101604C
:10064000016841F010010160016841F02001016082
:10065000016821F480510160016841F0800101606E
:10066000016821F040010160016841F4807101607E
:10067000016841F480610160011D0A6842F0800256
:100680000A60016841F0010101603A2002F0D5F8EA
:100690000221BDE810403A2002F0DCB80010024010
:1006A0000074004038040240562A00082DE9F00387
:1006B000264C2068264D274E274F284B2849294A8B
:1006C00040071AD5606840F004006060286801287F
:1006D00013D1306897F800C060450ED8002053F859
:1006E00020C0D1F8008000EBC81802EB8808C8F8D9
:1006F00004C0401C80B24028F1D32068800721D577
:10070000606840F002006060286801281AD13068F3
:100710003C78A04216D8402053F820400D6800EBEA
:10072000C51502EB85056C60401C80B28028F3D3B0
:100730000868401C0860BDE8F0034FF400510A4807
:1007400000F066B9BDE8F003704700000000024009
:1007500020000020100000200000002094740020E1
:100760000C0000203C0100200008004830B5134870
:10077000006880051ED51148001D016841F4007114
:1007800001600F4B1868104AC4070E484FF0000173
:1007900011D0012515600468641C046000680B4CCE
:1007A0002478A04206D90A4805601160186820F034
:1007B0000100186030BD1160016030BD00040240CE
:1007C0000034014010000020200000200000002024
:1007D00018000020704772B6FEE710B590F821109F
:1007E0000022022905D00421816380F82020012005
:1007F00010BD01680B6823F00E030B6001680B68E5
:1008000023F001030B6090F84030012404FA03F157
:10081000C36B596080F8214080F82020002010BD73
:1008200010B5002490F82110022903D0042181631F
:10083000012418E001680A6822F00E020A600168CB
:100840000A6822F001020A6090F84020012303FAAE
:1008500002F1C26B516080F82130002180F8201035
:10086000416B01B18847204610BD00002DE9F84FCB
:100870000022DFF880914FF0010809F1040A0327F4
:100880004FF00F0C0AF1040BACE008FA02F52B4014
:10089000002B72D00C7904F00304012C01D0022C3F
:1008A00015D18668540007FA04FE26EA0E06D1F830
:1008B0000CE00EFA04FE4EEA060EC0F808E04468AA
:1008C000AC430D79C5F300159540254345600C797F
:1008D000E443A40708D0C568540007FA04F6B543FA
:1008E0008E68A6402E43C6600C7904F00304022CE7
:1008F00011D1D40800EB8406356A5407E40E0CFAD3
:1009000004FE25EA0E05D1F810E00EFA04FE4EEAC8
:10091000050EC6F820E00568540007FA04F6B54352
:100920000E7906F00306A6402E4306604C6814F4C8
:10093000403F56D0304CA56945F00105A561A4693A
:1009400004F0010400942D4C22F003052E19B56823
:1009500094074FEA147E0CFA0EF4A543B0F1904FC1
:1009600004D0274CA04203D1012412E0002410E05F
:10097000244CA04202D102240BE032E0224CA042DF
:1009800001D1032405E0214CA04201D1042400E060
:10099000052404FA0EF42C43B460D9F800409C43BB
:1009A0004D68ED0300D51C43C9F80040DAF800405B
:1009B0009C434D68AD0300D51C43CAF80040DBF8EA
:1009C00000409C434D68ED0200D51C43CBF800402D
:1009D000084D0C352C689C434E68B60200D51C436C
:1009E0002C60521C0B6833FA02F47FF44EAFBDE862
:1009F000F88F000000040140001002400000014098
:100A00000004004800080048000C0048001000489E
:100A1000426921EA02030A4043EA024181617047C8
:100A2000002A01D081617047816270470148806867
:100A3000704700002C0000200248816802781144B1
:100A4000816070472C00002010B50748016841F014
:100A500010010160032000F06FF80F2000F006F88D
:100A600000F026F8002010BD0020024070B50446BA
:100A70000D4D4FF47A712878B1FBF0F00B490968FD
:100A8000B1FBF0F000F0CDFE08B1012070BD102CDC
:100A900007D200222146501E00F02EF86C60002084
:100AA00070BD012070BD00002C0000203800002027
:100AB00008B50948816941F001018161816901F04E
:100AC00001010091C16941F08051C161C06900F02C
:100AD0008050009008BD000000100240002809DB93
:100AE00000F01F02012191404009800000F1E02048
:100AF000C0F8001170470000F0B40D460D4B1B68A4
:100B0000C3F30223C3F10704042C00D90424191DE4
:100B1000072901D2002300E0DB1E012606FA04F1BA
:100B2000491E294099409E40761E16403143F0BC34
:100B300001F0A0BE0CED00E000F00701054A1068CE
:100B40004FF6FF03184040EA0120034908431060B4
:100B5000704700000CED00E00000FA05BFF34F8F76
:100B600005480168054A01F4E06111430160BFF3E3
:100B70004F8F00BFFDE700000CED00E00400FA0518
:100B800038B504460025002C14D094F8320005280E
:100B900012D094F83200022810D02E48816941F01A
:100BA00001018161806900F00100009094F8320039
:100BB00030B108E0012038BD012038BD012038BD2A
:100BC000002084F83100204600F048F8606822498F
:100BD000402821D060281FD0A2681043D4E9032305
:100BE0001A43104362691043A2691043E26910433B
:100BF000226A1043626A1043228D40EAC24094F890
:100C00002C2040EA0262206803680B401A4302600D
:100C100094F83200C8B11BE0E268A369104322696E
:100C20001A431043E2691043226A1043626A104378
:100C3000228D40EAC24094F82C2040EA02622068EB
:100C400003680B401A430260E2E7012084F8320097
:100C5000284638BD00100240113800E030B587B09A
:100C60000446142102A8FFF776FB2B4D21680024CF
:100C70002A4A03234FF09040A94210D1516941F410
:100C800000315161516901F4003101910E2102914D
:100C90000393049402A9FFF7E9FD07B030BD1E4D90
:100CA0002D1DA9420FD1516941F4003151615169A3
:100CB00001F400310191E02102910393049402A90F
:100CC000FFF7D4FDE9E7144D15480835A9420ED1C8
:100CD000516941F480215161516901F480210191F0
:100CE00002930393049402A9FFF7C0FDD5E70A4DD0
:100CF0000C35A942D1D1516941F48021516151692A
:100D000001F4802101914FF4C051029103930494A6
:100D100002A9FFF7ABFDC0E7380001400010024018
:100D200000040048002100280AD090F83220052A4B
:100D300008D090F83220012A06D0012108467047D9
:100D40000121FBE70121F9E70268136843F0010381
:100D50001360042280F83220F0E700002DE9F84FFC
:100D6000044600262068804DC0036FD5E869C000A6
:100D700008D4E86940F08050E861E86900F08050EC
:100D800000900126794F3868C00513D4386840F4C4
:100D900080703860FFF74AFE804608E0FFF746FEA5
:100DA000A0EB0800642802D90320BDE8F88F38685A
:100DB000C005F3D5286A00F4407078B3A18801F427
:100DC000407181424DD0286A20F440704FF4803148
:100DD00091FAA1F2B2FA82F29300654A4FF001084B
:100DE0001344C3F8008491FAA1F1B1FA81F102EB46
:100DF00081010023C1F800342862C00731D0FFF719
:100E000015FE074641F2883A4FF0020907E0FFF766
:100E10000DFEC01B504502D90320C6E721E099FA18
:100E2000A9F0B0FA80F040F040004146B8EB501F06
:100E300001D128680CE099FAA9F0B0FA80F040F0EE
:100E40004000B9EB501F02D1286A01E015E0686A42
:100E500099FAA9F2B2FA82F202F01F029140084216
:100E6000D5D0286A616820F4407008432862012EBA
:100E700003D1E86920F08050E8612078C00705D0F0
:100E8000286BA16820F003000843286320788007BE
:100E900005D5286BE16820F44030084328632078AA
:100EA000400705D5286B216920F4402008432863BA
:100EB0002078800605D5286BE16920F010000843F2
:100EC00028632068800305D56868A16B20F4800042
:100ED000084368602078400605D5286B216A20F019
:100EE0002000084328632078000705D5286B616936
:100EF00020F44010084328632078C00605D5286BED
:100F0000A16920F44000084328632088800505D5A6
:100F10006868E16A20F400000843686020780006F1
:100F200005D5E86A616A20F4F8700843E862208811
:100F3000C00505D5E86AA16A20F478500843E86244
:100F40002088C00405D5286B216B20F480700843ED
:100F500028632088800405D5286B616B20F400701D
:100F600008432863002020E7001002400070004082
:100F7000000042422DE9F04704460D46002C17D0F0
:100F8000DFF89481D8F8000000F00700A84211D2E1
:100F9000D8F8000020F007002843C8F80000D8F86F
:100FA000000000F00700A84204D00120BDE8F0874F
:100FB0000120FBE72078594E800705D57068A168AD
:100FC00020F0F000084370602078C00765D06068AA
:100FD000012201280CD0022822D0022393FAA3F187
:100FE000B1FA81F141F02001490931D0316830E096
:100FF0004FF4003393FAA3F1B1FA81F141F02001EB
:10100000490901D0316800E0716A93FAA3F3B3FA99
:1010100083F303F01F039A40114225D10120C5E755
:101020004FF0007393FAA3F1B1FA81F141F020017E
:10103000490901D0316800E0716A93FAA3F3B3FA69
:1010400083F303F01F039A4011420DD10120ADE755
:10105000716A93FAA3F3B3FA83F303F01F039A4080
:10106000114201D10120A1E7716821F00301014380
:101070007160FFF7DBFC074641F2883906E0FFF7B5
:10108000D5FCC01B484501D903208FE77068616813
:1010900000F00C00B0EB810FF1D1D8F8000000F0A7
:1010A0000700A8420ED9D8F8000020F00700284316
:1010B000C8F80000D8F8000000F00700A84201D0EE
:1010C000012073E72078400705D57068E16820F4B7
:1010D000E060084370602078000706D570682169D9
:1010E00020F4605040EAC100706000F051F871686F
:1010F000F02292FAA2F201F0F001B2FA82F2D140AB
:10110000074A515CC8400749086007480068FFF774
:10111000ADFC00204AE70000002002400010024021
:10112000762B0008380000203000002001480068BD
:10113000704700003800002000B5FFF7F7FF0749AF
:1011400049684FF4E06292FAA2F201F4E061B2FA67
:1011500082F2D140024A515CC84000BD00100240FA
:10116000862B000800B5FFF7E1FF074949684FF4F7
:10117000605292FAA2F201F46051B2FA82F2D140C6
:10118000024A515CC84000BD00100240862B000896
:1011900010B5164B5968164801F00C02042A20D0ED
:1011A000082A1ED14FF4701494FAA4F401F47012BA
:1011B000B4FA84F4E2400F4CA45CDA6A0F2393FA89
:1011C000A3F302F00F02B3FA83F3DA40094B1033B2
:1011D0009A5CC90306D500231946FFF745F8A0FB22
:1011E000040110BD0448A4FB000110BD0010024022
:1011F00000127A00562B000800093D002DE9F84F37
:101200000446002C12D02078F84EC0074FF001059C
:101210005ED070684FF40038C0F3810001280BD015
:101220007068C0F38100022803D01EE00120BDE8F1
:10123000F88F7068C00318D598FAA8F0B0FA80F05B
:1012400040F02000400901D0306800E0706A98FA50
:10125000A8F1B1FA81F101F01F0105FA01F108428C
:1012600075D06068A0BB0120E1E76068B0F5803F01
:1012700017D0D8B1B0F5A02F21D0306820F480303D
:101280003060306820F480203060F06AA16820F07F
:101290000F000843F0626068C0B3FFF7C7FB074662
:1012A0001EE0306840F480303060EEE7306820F4B3
:1012B00080303060306820F480203060E5E73068AE
:1012C00040F480203060306840F480303060DCE7EB
:1012D0003DE0FFF7ABFBC01B642801D90320A6E764
:1012E00098FAA8F0B0FA80F040F02000400901D050
:1012F000306800E0706A98FAA8F1B1FA81F101F063
:101300001F0105FA01F10842E3D020E0FFE7FFF7F3
:101310008DFB074606E0FFF789FBC01B642801D957
:10132000032084E798FAA8F0B0FA80F040F020009B
:10133000400901D0306800E0706A98FAA8F1B1FA6B
:1013400081F101F01F0105FA01F10842E3D1207893
:10135000DFF89C8280074FF0000B4FF0020732D578
:1013600070684FF0F80A10F00C0F07D07068C0F3E7
:101370008100022828D17068C00325D497FAA7F00D
:10138000B0FA80F040F02000400901D0306800E061
:10139000706A97FAA7F1B1FA81F101F01F0105FA1D
:1013A00001F1084204D02069012801D001203EE764
:1013B00030689AFAAAF26169B2FA82F220F0F80073
:1013C0009140084330605CE0206990B395FAA5F045
:1013D000B0FA80F048F82050FFF728FB814607E07C
:1013E000FFF724FBA0EB0900022801D903201EE728
:1013F00097FAA7F0B0FA80F040F02000400901D041
:10140000306800E0706A97FAA7F1B1FA81F101F053
:101410001F0105FA01F10842E2D030689AFAAAF2F7
:101420006169B2FA82F220F0F8009140084330601E
:1014300027E0FFE795FAA5F0B0FA80F048F820B071
:10144000FFF7F4FA814607E0FFF7F0FAA0EB090096
:10145000022801D90320EAE697FAA7F0B0FA80F053
:1014600040F02000400901D0306800E0706A97FA2F
:10147000A7F1B1FA81F101F01F0105FA01F108426B
:10148000E2D1207800076DD5A069A8B395FAA5F040
:10149000B0FA80F008EB8000C0F88054FFF7C6FA7D
:1014A000814607E0FFF7C2FAA0EB0900022801D944
:1014B0000320BCE697FAA7F0B0FA80F040F0600095
:1014C000B5EB501F01D130680BE097FAA7F0B0FAE6
:1014D00080F040F06000B7EB501F01D1306A00E0AF
:1014E000706A97FAA7F1B1FA81F101F01F0205FACB
:1014F00002F10842D6D035E0FFE795FAA5F0B0FA40
:1015000080F008EB8000C0F880B4FFF78FFA8146C6
:1015100007E0FFF78BFAA0EB0900022801D90320AE
:1015200085E697FAA7F0B0FA80F040F06000B5EBDE
:10153000501F01D130680BE097FAA7F0B0FA80F0A5
:1015400040F06000B7EB501F01D1306A00E0706AD4
:1015500097FAA7F1B1FA81F101F01F0205FA02F141
:101560000842D6D1207840076ED54FF00009F069C7
:10157000C00009D4F06940F08050F061F06900F0DB
:10158000805000904FF001091A480168C90513D432
:10159000016841F480710160FFF748FA824607E074
:1015A000FFF744FAA0EB0A00642801D903203EE6C5
:1015B00010480068C005F3D5E068012810D0D8B104
:1015C000052822D0306A20F001003062306A20F015
:1015D00004003062E068B0B3FFF728FA824627E0E3
:1015E000306A40F001003062F4E700000010024071
:1015F0000000424200700040306A20F0010030627A
:10160000306A20F004003062E4E7306A40F0040001
:101610003062306A40F001003062DBE7FFF706FA23
:10162000A0EB0A0141F28830814201D90320FEE596
:1016300097FAA7F0B0FA80F040F04000B5EB501FE9
:1016400003D130680DE017E04CE097FAA7F0B0FA4C
:1016500080F040F04000B7EB501F01D1306A00E04D
:10166000706A97FAA7F1B1FA81F101F01F0105FA4A
:1016700001F21042D2D02EE0FFF7D8F9824609E0FD
:10168000FFF7D4F9A0EB0A0141F28830814201D979
:101690000320CCE597FAA7F0B0FA80F040F04000C4
:1016A000B5EB501F01D130680BE097FAA7F0B0FA04
:1016B00080F040F04000B7EB501F01D1306A00E0ED
:1016C000706A97FAA7F1B1FA81F101F01F0105FAEA
:1016D00001F21042D4D1B9F1010F03D1F06920F029
:1016E0008050F061E06980B37168C1F38101022923
:1016F00077D04FF080794FF00077022809D099FA1F
:10170000A9F0B0FA80F048F820B0FFF78FF904464E
:101710005DE099FAA9F0B0FA80F048F820B0FFF740
:1017200085F9824607E0FFF781F9A0EB0A0002285D
:1017300001D903207BE597FAA7F0B0FA80F040F0DA
:101740002000400902D0306801E068E0706A97FA32
:10175000A7F1B1FA81F101F01F0105FA01F1084288
:10176000E1D1D4E908100843716821F474110843E9
:10177000706099FAA9F0B0FA80F048F82050FFF7AD
:1017800055F9044606E0FFF751F9001B022801D97C
:1017900003204CE597FAA7F0B0FA80F040F0200063
:1017A000400901D0316800E0716A97FAA7F0B0FAF9
:1017B00080F000F01F0005FA00F00142E3D02EE0B7
:1017C000FFF734F9001B022801D903202FE597FA0F
:1017D000A7F0B0FA80F040F02000400902D0316854
:1017E00001E00BE0716A97FAA7F0B0FA80F000F020
:1017F0001F0005FA00F00142E2D110E001280CD0F0
:101800007068226A00F48031914204D1616A00F468
:101810007010884203D0012009E5012007E500206F
:1018200005E510B5401EB0F1807F01D3012010BD49
:101830004FF0E02460610F21601701F01BF80020D9
:10184000A06107202061002010BD704770477047DD
:1018500070B50446206850E8001F21F4907140E8FC
:101860000012002AF6D12068083050E8001F21F04D
:10187000010140E80012002AF5D1206E012808D1AC
:10188000206850E8001F21F0100140E80012002AF3
:10189000F6D1206881684FF0000349064FF00F052C
:1018A0004FF0200625D52068083050E8001F21F0B1
:1018B000400140E80012002AF5D1206F48B11249DA
:1018C0004163206FFEF7ACFFE0B1206F416B8847AA
:1018D00018E0A4F85A3063652068056220688169C1
:1018E00041F008018161E66723662046FFF7AFFFFC
:1018F00008E0A4F85A3063650562E667236620466F
:10190000FFF7A5FF002070BD4922000870470000C6
:101910002DE9F04104462268D0691168936840F6C9
:101920000F0500EA0506002E0AD1850608D58D06AA
:1019300006D5616E00297DD02046BDE8F0410847FC
:101940000025002E77D0984F03F001060F40374353
:1019500071D0C70709D0CF0507D501271762D4F882
:10196000802042F00102C4F8802082070AD5DA07FD
:1019700008D0276802223A62D4F8802042F004029C
:10198000C4F8802042070AD5DA0708D02368042269
:101990001A62D4F8802042F00202C4F880200207C4
:1019A0000CD501F02002324308D0236808221A62C5
:1019B000D4F8802042F00802C4F8802002050BD53C
:1019C0004A0109D523684FF400621A62D4F88020D6
:1019D00042F02002C4F88020D4F88020002A35D0BC
:1019E000800605D5880603D5616E09B12046884773
:1019F000D4F8800021688968490602D410F0280FC5
:101A00002AD0204600F033FC2068806840061FD5AD
:101A10002068083050E8001F21F0400140E8001223
:101A2000002AF5D1206F70B160494163206FFEF745
:101A3000F7FE01E00AE015E0002807D0206F416BB7
:101A4000BDE8F04108472046FFF760FFBDE8F081A0
:101A50002046FFF75BFFF9E72046FFF757FFC4F882
:101A60008050F3E7266E012E7ED1C6067CD5CE06C9
:101A70007AD510201062206880684FF0200340065D
:101A800043D5216F0868406880B20028DED0B4F8E2
:101A900058208242DAD9A4F85A00886920282AD02E
:101AA000206850E8001F21F4807140E80012002AED
:101AB000F6D12068083050E8001F21F0010140E80D
:101AC0000012002AF5D12068083050E8001F21F0EC
:101AD000400140E80012002AF5D1E367256620683E
:101AE00050E8001F21F0100140E80012002AF6D152
:101AF000206FFEF772FEB4F85800B4F85A10401A7E
:101B000081B22046FFF7A1FEA0E734F8580F6188A4
:101B1000401A81B26088583C002897D0002995D09F
:101B2000206850E8002F22F4907240E80026002E32
:101B3000F6D12068083050E8002F22F0010240E87A
:101B40000026002EF5D1E36725666566206850E81B
:101B5000002F22F0100240E80023002BF6D120468F
:101B6000FFF773FE72E7FFE7C50209D55B0207D5F1
:101B70004FF4801010622046BDE8F041FFF766BECA
:101B8000020608D50A0606D5A16E0029BCD020465B
:101B9000BDE8F04108474006B6D54806B4D5204612
:101BA000BDE8F04100F088BB2001000435220008A8
:101BB00010B50446002C02D0A06F10B107E0012040
:101BC00010BD002084F87400204600F027F824207F
:101BD000A0672068016821F001010160204600F043
:101BE00019FC012818D0606A10B1204600F08EFA66
:101BF0002068416821F4904141602068816821F0AB
:101C00002A0181602068016841F0010101602046DD
:101C1000BDE8104000F0DEBA012010BD10B586B05E
:101C20000446142101A8FEF796FB17492068884254
:101C300028D11648816941F480418161816901F4AC
:101C400080410091416941F400314161406900F4F3
:101C5000003000904FF4C0600190022002900020FC
:101C60000390032004900720059001A94FF09040B5
:101C7000FEF7FCFD002211462520FEF73DFF252042
:101C8000FEF72CFF06B010BD0038014000100240E6
:101C900030B4C36F202B02D0022030BC7047C9B1D2
:101CA000C2B190F87430012B16D0012380F8743043
:101CB0000023036603685B681B0208D5036853E8CA
:101CC000004F44F0806443E80045002DF6D130BC5D
:101CD00000F0B0BC0120E0E70220DEE708498842BE
:101CE0000DD108480178002909D0074A0121117057
:101CF00000210170032205490148FFF7C9BF704761
:101D00001074002003000020240000201D0000208B
:101D1000836F202B01D002207047B9B1B2B190F887
:101D20007430012B14D0012380F87430C164A0F802
:101D30005020A0F8522000218166C0F88010212296
:101D400082678268B2F5805F04D005E001207047A9
:101D500002207047026972B1084A826680F87410E6
:101D6000016851E8002F42F0800241E80023002B77
:101D7000F6D100207047024A8266EFE7212700086B
:101D8000D12600080549884206D10549002008707F
:101D9000044908600449086070470000107400207E
:101DA000140000200C00002018000020FEE70000B6
:101DB00070B586B0142101A8FEF7CDFA2648416916
:101DC00041F400214161416901F400210091416920
:101DD00041F480014161416901F480010091416950
:101DE00041F400314161416901F4003100914169E0
:101DF00041F480214161406900F480200090174D3A
:101E00004FF40054002221462846FEF709FE0194B3
:101E10000121029100240394049401A92846FEF7AD
:101E200025FD102001900325029503944FF0904664
:101E300001A93046FEF71AFD4FF40041019112212D
:101E40000291039404950421059101A93046FEF7FF
:101E50000DFD06B070BD00000010024000080048F3
:101E600010B50A4808490160002141600C22C26097
:101E70002022826001614162FEF782FE002801D0CB
:101E8000FEF7A9FC10BD000038000140407300209F
:101E900010B50A4808490160002141600C22C26067
:101EA0002022826001614162FEF76AFE002801D0B3
:101EB000FEF791FC10BD00003C000140747300204F
:101EC00010B5094807490160602141600C21C160DB
:101ED000002101614162FEF753FE002801D0FEF7A8
:101EE0007AFC10BD40000140A873002010B50948DD
:101EF00007490160602141600421C1600021016146
:101F00004162FEF73DFE002801D0FEF764FC10BDE3
:101F100044000140DC73002010B50C480A49016000
:101F20000B49416000218160C16001610C22426166
:101F30008161C16101624162FFF73AFE002801D070
:101F4000FEF749FC10BD000000380140107400206D
:101F5000C0C62D00FEE7FEE77047704770B5FEF77C
:101F60006BFD0D4D28780D4C002608B1268070BD04
:101F70002088401C80B220803228F8D30848FFF720
:101F800067FC012028702680BDE8704001220549C9
:101F90000348FFF77DBE000003000020280000205A
:101FA000107400201C00002070B59EB0282114A8D9
:101FB000FEF7D1F914210FA8FEF7CDF93C216846B0
:101FC000FEF7C9F9012514952804159000241694EC
:101FD000189502261B961C904FF4E0101D9014A833
:101FE000FFF70CF908B1FEF7F6FB0F200F901096E3
:101FF00011944FF480601290139402210FA8FEF701
:10200000B9FF08B1FEF7E7FB009502946846FEF7BA
:10201000A5FE002801D0FEF7DEFB1EB070BD00005B
:102020000248016841F470010160704788ED00E0EA
:102030004FF080400169C90703D0016921F0010117
:10204000016170471248C16941F00101C16180041A
:102050008168104A1140816000210160816240F274
:10206000F311C162C16841F00101C160016821F052
:1020700010010160416821F0700141F020014160D0
:10208000016841F0010101601C2000F0D6BB000096
:1020900000100240F8FFFEFF1348816941F400512F
:1020A000816112480168124A114001600F48002105
:1020B000083801600D4A203211607C21121D116028
:1020C0000A49091D0A6842F001020A60016821F00C
:1020D00010010160001D016821F0700141F0200134
:1020E00001602C2000F0A9BB001002400834014020
:1020F000F8FFFEFF04480168C90703D0016821F01A
:1021000001010160704700001034014090F8241074
:10211000C90706D001684A68836A22F400321A436C
:102120004A6090F82410890706D501684A68C36A96
:1021300022F480321A434A6090F82410490706D5E9
:1021400001684A68036B22F480221A434A6090F8BF
:102150002410090706D501684A68436B22F400423F
:102160001A434A6090F82410C90606D501688A68A7
:10217000836B22F480521A438A6090F824108906F7
:1021800006D501688A68C36B22F400521A438A603C
:1021900090F82410490611D501684A68036C22F4AE
:1021A00080121A434A60016CB1F5801F06D10168A4
:1021B0004A68436C22F4C0021A434A6090F8241023
:1021C000090606D501684A68806C22F400220243A1
:1021D0004A607047F8B504460025C4F88050FEF701
:1021E00025FC0746206800686FF07E4600070AD588
:1021F0003B4600224FF400112046009600F0B6FA4C
:1022000008B10320F8BD2068006840070AD53B46A6
:1022100000224FF480012046009600F0A7FA08B192
:102220000320F8BD2020A067E067256684F874507D
:102230000020F8BD10B5406A0021A0F85A10A0F89F
:102240005210FFF763FB10BD10B5406A0022A0F8E2
:102250005A2003680F21196201688B6943F0080353
:102260008B612021C1670266FFF7F1FA10BD01689A
:1022700051E8002F22F4907241E80023002BF6D1A0
:102280000168083151E8002F22F0010241E80023E3
:10229000002BF5D1016E012908D1016851E8002F0A
:1022A00022F0100241E80023002BF6D12021C16763
:1022B000002101664166704710B5016851E8002FA2
:1022C00022F0400241E80023002BF6D12021816753
:1022D00000218166FFF756FD10BD10B5B0F85C20F7
:1022E000C36F0168222B04D0886940F00800886120
:1022F00010BD898C50F8543F114019800168891C29
:102300000160C188491EC180C18854380029EFD1BD
:10231000016851E8002F22F4907241E80023002B5D
:10232000F6D10168083151E8002F22F0010241E89E
:102330000023002BF5D12021C16700214166026EE8
:10234000012A02D0FFF7CAFC10BD0166016851E8FE
:10235000002F22F0100241E80023002BF6D1016883
:10236000CA69D243D20601D410220A62B0F85810CA
:10237000FFF76BFA10BD10B5B0F85C20C36F0168B1
:10238000222B04D0886940F00800886110BD898C38
:10239000114050F8542F11700168491C0160C18828
:1023A000491EC180C18854380029EFD1016851E825
:1023B000002F22F4907241E80023002BF6D101682F
:1023C000083151E8002F22F0010241E80023002BE0
:1023D000F5D12021C16700214166026E012A02D099
:1023E000FFF77CFC10BD0166016851E8002F22F068
:1023F000100241E80023002BF6D10168CA69D243DC
:10240000D20601D410220A62B0F85810FFF71DFA64
:1024100010BD000070B504460025A1682069E2697E
:1024200001436069104301432068026849F20C636C
:102430009A430A43026020684168E26821F44051EF
:1024400011434160A069216A01432068826822F437
:1024500030620A438260704A20687049904213D10A
:10246000086B10F0030007D0012809D0022809D01A
:10247000032803D0102170E001216EE002216CE0FE
:1024800004216AE0082168E0654A904216D1086B91
:1024900010F440300AD0B0F5803F0BD0B0F5003FCB
:1024A0000AD0B0F5403F03D0102156E0002154E09F
:1024B000022152E0042150E008214EE0594A9042A6
:1024C00016D1086B10F440200AD0B0F5802F0BD045
:1024D000B0F5002F0AD0B0F5402F03D010213CE01A
:1024E00000213AE0022138E0042136E0082134E0FE
:1024F0004D4A904216D1086B10F440100AD0B0F546
:10250000801F0BD0B0F5001F0AD0B0F5401F03D0DC
:10251000102122E0002120E002211EE004211CE025
:1025200008211AE0414A904216D1086B10F440008D
:102530000AD0B0F5800F0BD0B0F5000F0AD0B0F57F
:10254000400F03D0102108E0002106E0022104E042
:10255000042102E0082100E01021E3694FF400406B
:10256000334A4FF6EF7683422CD1092911D2DFE8A6
:1025700001F005080B100D1010101200FEF7DCFD25
:1025800009E0FEF7EFFD06E0104604E0FEF700FE6E
:1025900001E000200125C0B34100606801EB50015B
:1025A000B1FBF0F080B2A0F11001B14208D84FF6B3
:1025B000F0710140C0F3420001432068C16026E091
:1025C000012524E0092911D2DFE801F005080B10EC
:1025D0000D1010101200FEF7AFFD09E0FEF7C2FD6E
:1025E00006E0104604E0FEF7D3FD01E000200125DF
:1025F00058B1616800EB5100B0FBF1F080B2A0F17E
:102600001001B14202D82168C86000E00125002015
:102610006066A066284670BD003801400010024088
:102620000044004000480040004C00400050004082
:1026300000127A0030B54165A0F85820A0F85A2061
:102640000024446681684FF48055FF22A94209D1D5
:10265000016911B1A0F85C2007E040F2FF11A0F879
:102660005C1002E019B3A0F85C40C0F88040222161
:10267000C1670168083151E8002F42F0010241E8CA
:102680000023002BF5D18168A94201D10169B9B1BC
:102690000D49416680F87440016851E8002F42F40A
:1026A000907241E80023002BF6D1002030BD016973
:1026B00019B17F21A0F85C10D7E7A0F85C20D4E71F
:1026C00002494166E6E7000077230008DB220008A4
:1026D000816F212910D1B0F8521071B1C16C02681C
:1026E0000988C1F308011185C16C891CC164B0F867
:1026F0005210491EA0F852107047016851E8002F8F
:1027000022F0800241E80023002BF6D1016851E855
:10271000002F42F0400241E80023002BF6D1704721
:10272000816F21290ED1B0F8521061B1C16C0268DD
:1027300009781185C16C491CC164B0F85210491E5A
:10274000A0F852107047016851E8002F22F0800273
:1027500041E80023002BF6D1016851E8002F42F038
:10276000400241E80023002BF6D170472DE9F047E5
:102770000446089D884691469A460027202648E050
:10278000681C46D0FEF752F9A0EB0A00A84227D8F1
:1027900035B32068016849073BD5C069C0430005CF
:1027A00037D421684FF400600862206850E8001FA9
:1027B00021F4D07140E80012002AF6D120680830D8
:1027C00050E8001F21F0010140E80012002AF5D175
:1027D00074346660A660E66027700320BDE8F08769
:1027E000206850E8001F21F4D07140E80012002A50
:1027F000F6D12068083050E8001F21F0010140E8C0
:102800000012002AF5D1A667E66784F874700320E9
:10281000E4E72068C06938EA000004D00020484599
:10282000AED00020DAE70120F9E700000148FFF709
:102830006FB8000010740020FEE7002809DB00F0EC
:102840001F02012191404009800000F1E020C0F802
:10285000001170470907090E002804DB00F1E02091
:1028600080F80014704700F00F0000F1E02080F8BD
:10287000141D70470907090E002804DB00F1E02051
:1028800080F80014704700F00F0000F1E02080F89D
:10289000141D7047FEF7D8F8FFF786FBFFF788FA9C
:1028A000FFF724FBFFF7DCFAFFF7F2FAFFF708FB6C
:1028B000FFF732FB5D48FEF735FA5C483430FEF72F
:1028C00031FA5A486830FEF72DFA58489C30FEF726
:1028D00029FAFDF7A5FDFDF77FFEFFF7B3FBFFF734
:1028E000DBFB534D0126EE705048012205F11C011F
:1028F000D030FFF7CDF9DFF83C814F4FDFF83C9146
:10290000002405F11C0A9AF80000012834D19AF835
:10291000011081B30E292FD82970D8F8000040F09B
:102920000100C8F8000068690028ECD1A8690128F6
:10293000E9D18AF800408AF801402869401EA87051
:10294000E8684FF6FF7101EA4020A8806878A9780E
:1029500040EA0120A98840EA014039490860EC605A
:10296000AC612C616E61A888001D82B22F48D03006
:10297000FFF7CEF9C7E7FFE7022813D003281AD0E4
:1029800004281BD0052822D006283DD00728BAD11C
:102990008AF800409AF802009AF8031000EB012030
:1029A0002881B0E78AF80040D8F8000020F0010044
:1029B000C8F80000A7E7FEF7D1F8A4E78AF80040BE
:1029C0001A4804221FA1D030FFF7A2F99BE78AF82A
:1029D0000040288906EB9010E8800020402804D2AF
:1029E000E988414327F8101007E0EA88C0F1400168
:1029F0002B8901FB023127F81010401C80B280287F
:102A0000ECD3C9F800707EE78AF80040288906EB0D
:102A1000D010E8800020E988414327F81010401CBE
:102A200080B28028F7D3C9F800706CE740730020AB
:102A300000000020003401403C0000203C04024023
:102A40003C01002054455354000000004FF04070FA
:102A5000E1EE100A7047000040008000C000000155
:102A600040018001C001000240028002C002000358
:102A700040038003C003000440048004C004000538
:102A800040058005C005000640068006C006000718
:102A900040078007C00700083F087F08BF08FF08FD
:102AA0003F097F09BF09FF093F0A7F0ABF0AFF0AE2
:102AB0003F0B7F0BBF0BFF0B3F0C7F0CBF0CFF0CC2
:102AC0003F0D7F0DBF0DFF0D3F0E7F0EBF0EFF0EA2
:102AD0003F0F7F0FBF0FFF0FBF0F7F0F3F0FFF0E87
:102AE000BF0E7F0E3F0EFF0DBF0D7F0D3F0DFF0C84
:102AF000BF0C7F0C3F0CFF0BBF0B7F0B3F0BFF0A84
:102B0000BF0A7F0A3F0AFF09BF097F093F09FF0883
:102B1000BF087F083F080008C0078007400700077C
:102B2000C006800640060006C00580054005000579
:102B3000C004800440040004C00380034003000379
:102B4000C002800240020002C00180014001000179
:102B5000C0008000400002030405060708090A0BB4
:102B60000C0D0E0F10100102030405060708090AD8
:102B70000B0C0D0E0F100000000000000000010201
:102B80000304060708090000000001020304000016
:102B9000B02B0008000000203C000000C401000829
:102BA000EC2B00083C000020BC7C0000E001000889
:102BB0000A01000000000000FF0F000000000000FC
:102BC0000000000000000000000000000000000005
:102BD00000000000000000000000000001000000F4
:0C2BE000100000000000000000127A004D
:040000050800018965
:00000001FF
