:020000040800F2
:10000000005B002029020008EF1F0008451E0008C1
:10001000ED1F000889060008D12800080000000034
:10002000000000000000000000000000F31F0008B6
:100030008D08000800000000F11F0008F51F0008EF
:10004000430200084302000843020008430200087C
:10005000430200084302000843020008430200086C
:100060004302000843020008430200086107000839
:10007000430200084302000843020008430200084C
:10008000430200084302000843020008430200083C
:10009000430200084302000843020008430200082C
:1000A000430200084302000843020008430200081C
:1000B000C920000843020008430200084302000868
:1000C00043020008430200084302000843020008FC
:1000D00043020008C5280008430200084302000844
:1000E00043020008430200084302000843020008DC
:1000F0008D21000843020008430200084302000863
:1001000000000000000000000000000043020008A2
:1001100043020008430200084302000843020008AB
:1001200043020008430200082508000843020008B3
:100130004302000843020008000000000000000025
:1001400043020008430200084302000800000000C8
:10015000000000000000000000000000000000009F
:1001600000000000000000004302000843020008F5
:100170004302000800000000000000000000000032
:10018000000000004302000800F002F800F03CF814
:100190000AA090E8000C82448344AAF10107DA45E2
:1001A00001D100F031F8AFF2090EBAE80F0013F0F8
:1001B000010F18BFFB1A43F0010318474C3E000023
:1001C0006C3E0000103A24BF78C878C1FAD85207B4
:1001D00024BF30C830C144BF04680C6070470000C1
:1001E0000023002400250026103A28BF78C1FBD840
:1001F000520728BF30C148BF0B6070471FB503F0DE
:10020000CDFD1FBD10B510BD00F02EF91146FFF752
:10021000F5FF03F05DF800F04CF903B4FFF7F2FFCF
:1002200003BC00F04FF90000094880470948004727
:10023000FEE7FEE7FEE7FEE7FEE7FEE7FEE7FEE796
:10024000FEE7FEE704480549054A064B70470000F3
:10025000B92000088901000800550020005B00203B
:10026000005700200057002053EA020C00F069807C
:100270002DE9F04B4FF00006002B1FBFB3FA83F5BA
:1002800003FA05F424FA05F65E4012BF1643B2FAEB
:1002900082F502FA05F4C5F120051EBF22FA05FC1D
:1002A00044EA0C04203556EA044C4FEA144418BFC3
:1002B000641C4FF000084FF00009904271EB030CF2
:1002C00039D3002919BFB1FA81F701FA07F6B0FA5C
:1002D00080F700FA07F6C7F120071EBF20FA07FCD7
:1002E00046EA0C062037B6FBF4FCA7EB0507103FE7
:1002F00007F01F0BCBF120060CFA0BFB2CFA06F6CD
:1003000044BFB3460026202FA4BF5E464FF0000B2B
:100310005BEA060C08BF4FF0010B19EB0B09ABFBB6
:10032000027C48EB0608C01B06FB02CC0BFB03CC8F
:1003300071EB0C01C1E70B46024641464846BDE859
:10034000F08B13B54FF000004FF00001AFF30080C9
:10035000BDE81C40704740EA010370B59B072ED1F1
:100360004FF00136042A2AD308C810C99D1B9D43AB
:10037000121F15EAC61517D0D8B2E1B2401A50EADA
:10038000056110D198B2A1B2401A50EA05410AD1D4
:1003900023F07F4024F07F41401A50EA052102D12A
:1003A000180EA0EB146070BDA342DBD018BA21BABE
:1003B000884201D9012070BD4FF0FF3070BD0AB9ED
:1003C000002070BD10F8013B11F8014B63B1A3424E
:1003D0000AD1521E08D010F8013B11F8014B1BB195
:1003E000A34201D1521EEDD1181B70BD4FF0000287
:1003F00000B5134694469646203922BFA0E80C501B
:10040000A0E80C50B1F12001BFF4F7AF090728BFF5
:10041000A0E80C5048BF0CC05DF804EB890028BF71
:1004200040F8042B08BF704748BF20F8022B11F09A
:10043000804F18BF00F8012B704770477047704716
:1004400010B500F009F8006810BD10B5044600F0C2
:1004500003F8046010BD0000004870479C54002061
:10046000004870479C5400207546FFF7F9FFAE46E0
:1004700005006946534620F00700854618B020B5B0
:10048000FFF7E0FEBDE820404FF000064FF0000708
:100490004FF000084FF0000B21F00701AC46ACE82C
:1004A000C009ACE8C009ACE8C009ACE8C0098D4699
:1004B000704710B50446AFF300802046BDE81040F9
:1004C000FFF7ABBE01491820ABBEFEE726000200D5
:1004D0007047000010B56849486940F08050486195
:1004E000486940F0010048614FF0A040D0F808236F
:1004F00042F48032C0F80823CA6A42F48072CA62A9
:100500004A6942F080524A61D0F8081341F006016E
:10051000C0F80813D0F8081341F40051C0F80813CC
:10052000D0F8081341F40041C0F80813D0F80813BC
:1005300021F48071C0F80813C16821F00801C1607E
:10054000C16821F01001C160016B41F0C00101637D
:10055000C16841F02001C160C16821F4707141F4AB
:10056000E071C160C16821F4406141F48061C16003
:10057000416921F4606141F400714161C16841F059
:100580000101C160D0F80C1121F00801C0F80C1174
:10059000D0F80C1121F01001C0F80C11D0F8301176
:1005A00041F0C001C0F83011D0F80C1141F0200129
:1005B000C0F80C11D0F8181121F4606141F40071F9
:1005C000C0F81811816841F00041816081680029FC
:1005D000FCDBD0F8081141F00041C0F80811D0F858
:1005E00008110029FBDB816841F00101816081680D
:1005F00041F004018160D0F8081141F00101C0F818
:1006000008111F481D4901611E494161816841F07F
:1006100002018160816841F004018160816821F0FC
:1006200010018160816841F020018160816821F4BE
:1006300080518160816841F080018160816821F092
:1006400040018160816841F400718160816841F4FA
:1006500000618160C16841F08001C160816841F042
:10066000010181600B2002F04CF90221BDE810402D
:100670000B2002F053B90000001002400C030050A0
:10068000000002409C520020FEE7000010B53048F8
:10069000C16941F00051C161416941F0020141610C
:1006A0002C48016841F001010160016841F480516A
:1006B0000160016821F4706141F4306101600168FA
:1006C00021F0380141F020010160016841F004018E
:1006D0000160001D016821F0010101601E49001D3B
:1006E0000860091D1D4808601B480838016841F072
:1006F00002010160016841F010010160016841F0F0
:1007000020010160016821F480510160016841F01D
:1007100080010160016821F040010160016841F43D
:1007200080710160016841F480610160011D0A6807
:1007300042F080020A60016841F0010101603A2044
:1007400002F0DFF80221BDE810403A2002F0E6B8DE
:10075000001002400074004038040240A63D00082A
:100760002DE9F047274B1868274FDFF8A0C0DFF8C6
:10077000A080DFF8A0A0284D284C294E40074FF05C
:1007800000091BD5586840F00400586038680128FB
:1007900014D1DCF80010D8F8000081420ED80020F7
:1007A00055F82010226800EBC21206EB820251605D
:1007B000401C80B24028F3D38AF800901868800764
:1007C0001ED5586840F0020058603868012817D1DB
:1007D000DCF80000D8F80010884211D8402055F805
:1007E0002010226800EBC21206EB82025160401C0E
:1007F00080B28028F3D32068401C20608AF80090E3
:10080000BDE8F08700000240240000200C0000201A
:100810002C000020100000209C5200200800002026
:100820004401002030B51348006880051ED51148EA
:10083000001D016841F4007101600F4B1868104AF7
:10084000C4070E484FF0000111D00125156004685F
:10085000641C046000680B4C2468A04206D90A4856
:1008600005601160186820F00100186030BD11604B
:10087000016030BD00040240003401400C00002043
:10088000240000202C00002014000020704772B6C5
:10089000FEE710B590F821100022022905D00421AE
:1008A000816380F82020012010BD01680B6823F0CF
:1008B0000E030B6001680B6823F001030B6090F8D6
:1008C0004030012404FA03F1C36B596080F82140E1
:1008D00080F82020002010BD10B5002490F82110D1
:1008E000022903D004218163012418E001680A6809
:1008F00022F00E020A6001680A6822F001020A6012
:1009000090F84020012303FA02F1C26B516080F895
:100910002130002180F82010416B01B1884720462A
:1009200010BD00002DE9F84F0022DFF880914FF054
:10093000010809F1040A03274FF00F0C0AF1040B18
:10094000ACE008FA02F52B40002B72D00C7904F0D1
:100950000304012C01D0022C15D18668540007FA3B
:1009600004FE26EA0E06D1F80CE00EFA04FE4EEA6A
:10097000060EC0F808E04468AC430D79C5F30015D5
:100980009540254345600C79E443A40708D0C56829
:10099000540007FA04F6B5438E68A6402E43C6609D
:1009A0000C7904F00304022C11D1D40800EB840666
:1009B000356A5407E40E0CFA04FE25EA0E05D1F858
:1009C00010E00EFA04FE4EEA050EC6F820E00568B7
:1009D000540007FA04F6B5430E7906F00306A64064
:1009E0002E4306604C6814F4403F56D0304CA56945
:1009F00045F00105A561A46904F0010400942D4CA3
:100A000022F003052E19B56894074FEA147E0CFAFC
:100A10000EF4A543B0F1904F04D0274CA04203D16F
:100A2000012412E0002410E0244CA04202D1022450
:100A30000BE032E0224CA04201D1032405E0214C1E
:100A4000A04201D1042400E0052404FA0EF42C4352
:100A5000B460D9F800409C434D68ED0300D51C43B9
:100A6000C9F80040DAF800409C434D68AD0300D55A
:100A70001C43CAF80040DBF800409C434D68ED027F
:100A800000D51C43CBF80040084D0C352C689C4326
:100A90004E68B60200D51C432C60521C0B6833FA1A
:100AA00002F47FF44EAFBDE8F88F0000000401406F
:100AB0000010024000000140000400480008004807
:100AC000000C004800100048002A01D081617047E6
:100AD0008162704701488068704700003400002040
:100AE0000248816802781144816070473400002018
:100AF00010B50748016841F010010160032000F0C3
:100B00006FF80F2000F006F800F026F8002010BD66
:100B10000020024070B504460D4D4FF47A712878DC
:100B2000B1FBF0F00B490968B1FBF0F000F0CDFE2D
:100B300008B1012070BD102C07D200222146501EA2
:100B400000F02EF86C60002070BD012070BD000028
:100B5000340000204000002008B50948816941F0B8
:100B600001018161816901F001010091C16941F0D8
:100B70008051C161C06900F08050009008BD000044
:100B800000100240002809DB00F01F020121914003
:100B90004009800000F1E020C0F80011704700001B
:100BA000F0B40D460D4B1B68C3F30223C3F10704D9
:100BB000042C00D90424191D072901D2002300E0C8
:100BC000DB1E012606FA04F1491E294099409E4089
:100BD000761E16403143F0BC01F0B0BE0CED00E0D3
:100BE00000F00701054A10684FF6FF03184040EA7D
:100BF0000120034908431060704700000CED00E03D
:100C00000000FA05BFF34F8F05480168054A01F45B
:100C1000E06111430160BFF34F8F00BFFDE70000AB
:100C20000CED00E00400FA0538B504460025002C60
:100C300014D094F83200052812D094F8320002281B
:100C400010D02E48816941F001018161806900F076
:100C50000100009094F8320030B108E0012038BD66
:100C6000012038BD012038BD002084F83100204625
:100C700000F048F860682249402821D060281FD041
:100C8000A2681043D4E903231A4310436269104356
:100C9000A2691043E2691043226A1043626A10435A
:100CA000228D40EAC24094F82C2040EA026220687B
:100CB00003680B401A43026094F83200C8B11BE08D
:100CC000E268A369104322691A431043E2691043A2
:100CD000226A1043626A1043228D40EAC24094F8AF
:100CE0002C2040EA0262206803680B401A4302602D
:100CF000E2E7012084F83200284638BD00100240A7
:100D0000113800E030B587B00446142102A8FFF77F
:100D10006DFB2B4D216800242A4A03234FF090409D
:100D2000A94210D1516941F400315161516901F476
:100D3000003101910E2102910393049402A9FFF75F
:100D4000F1FD07B030BD1E4D2D1DA9420FD15169D7
:100D500041F400315161516901F400310191E02108
:100D600002910393049402A9FFF7DCFDE9E7144D17
:100D700015480835A9420ED1516941F480215161CD
:100D8000516901F48021019102930393049402A913
:100D9000FFF7C8FDD5E70A4D0C35A942D1D15169FD
:100DA00041F480215161516901F4802101914FF496
:100DB000C05102910393049402A9FFF7B3FDC0E769
:100DC00038000140001002400004004800210028C3
:100DD0000AD090F83220052A08D090F83220012A53
:100DE00006D00121084670470121FBE70121F9E700
:100DF0000268136843F001031360042280F8322074
:100E0000F0E700002DE9F84F044600262068804DE9
:100E1000C0036FD5E869C00008D4E86940F080508D
:100E2000E861E86900F0805000900126794F386849
:100E3000C00513D4386840F480703860FFF74AFE6C
:100E4000804608E0FFF746FEA0EB0800642802D9C0
:100E50000320BDE8F88F3868C005F3D5286A00F490
:100E6000407078B3A18801F4407181424DD0286A66
:100E700020F440704FF4803191FAA1F2B2FA82F27C
:100E80009300654A4FF001081344C3F8008491FAB7
:100E9000A1F1B1FA81F102EB81010023C1F8003424
:100EA0002862C00731D0FFF715FE074641F2883AA5
:100EB0004FF0020907E0FFF70DFEC01B504502D9B5
:100EC0000320C6E721E099FAA9F0B0FA80F040F0DB
:100ED00040004146B8EB501F01D128680CE099FA58
:100EE000A9F0B0FA80F040F04000B9EB501F02D1F9
:100EF000286A01E015E0686A99FAA9F2B2FA82F26A
:100F000002F01F0291400842D5D0286A616820F49F
:100F1000407008432862012E03D1E86920F0805018
:100F2000E8612078C00705D0286BA16820F0030095
:100F3000084328632078800705D5286BE16820F4F2
:100F40004030084328632078400705D5286B216985
:100F500020F44020084328632078800605D5286BBC
:100F6000E16920F01000084328632068800305D55C
:100F70006868A16B20F48000084368602078400610
:100F800005D5286B216A20F02000084328632078CB
:100F9000000705D5286B616920F4401008432863D9
:100FA0002078C00605D5286BA16920F440000843CD
:100FB00028632088800505D56868E16A20F4000070
:100FC000084368602078000605D5E86A616A20F465
:100FD000F8700843E8622088C00505D5E86AA16A70
:100FE00020F478500843E8622088C00405D5286BB7
:100FF000216B20F48070084328632088800405D585
:10100000286B616B20F4007008432863002020E700
:101010000010024000700040000042422DE9F047FD
:1010200004460D46002C17D0DFF89481D8F8000054
:1010300000F00700A84211D2D8F8000020F0070005
:101040002843C8F80000D8F8000000F00700A842C4
:1010500004D00120BDE8F0870120FBE72078594E3D
:10106000800705D57068A16820F0F0000843706023
:101070002078C00765D06068012201280CD00228C2
:1010800022D0022393FAA3F1B1FA81F141F02001B9
:10109000490931D0316830E04FF4003393FAA3F1BD
:1010A000B1FA81F141F02001490901D0316800E035
:1010B000716A93FAA3F3B3FA83F303F01F039A4020
:1010C000114225D10120C5E74FF0007393FAA3F137
:1010D000B1FA81F141F02001490901D0316800E005
:1010E000716A93FAA3F3B3FA83F303F01F039A40F0
:1010F00011420DD10120ADE7716A93FAA3F3B3FA5F
:1011000083F303F01F039A40114201D10120A1E7AC
:10111000716821F0030101437160FFF7DBFC0746B2
:1011200041F2883906E0FFF7D5FCC01B484501D9DC
:1011300003208FE77068616800F00C00B0EB810F4E
:10114000F1D1D8F8000000F00700A8420ED9D8F875
:10115000000020F007002843C8F80000D8F800007D
:1011600000F00700A84201D0012073E72078400773
:1011700005D57068E16820F4E0600843706020786D
:10118000000706D57068216920F4605040EAC1006C
:10119000706000F051F87168F02292FAA2F201F04A
:1011A000F001B2FA82F2D140074A515CC8400749C7
:1011B000086007480068FFF7ADFC00204AE7000020
:1011C0000020024000100240C63E000840000020FF
:1011D00038000020014800687047000040000020EF
:1011E00000B5FFF7F7FF074949684FF4E06292FA4C
:1011F000A2F201F4E061B2FA82F2D140024A515CFB
:10120000C84000BD00100240D63E000800B5FFF700
:10121000E1FF074949684FF4605292FAA2F201F4E3
:101220006051B2FA82F2D140024A515CC84000BD1E
:1012300000100240D63E000810B5164B59681648FB
:1012400001F00C02042A20D0082A1ED14FF4701499
:1012500094FAA4F401F47012B4FA84F4E2400F4C4E
:10126000A45CDA6A0F2393FAA3F302F00F02B3FA35
:1012700083F3DA40094B10339A5CC90306D5002387
:101280001946FEF7F1FFA0FB040110BD0448A4FBC2
:10129000000110BD0010024000127A00A63E0008B6
:1012A00000093D002DE9F84F0446002C12D02078AB
:1012B000F84EC0074FF001055ED070684FF400385B
:1012C000C0F3810001280BD07068C0F381000228B0
:1012D00003D01EE00120BDE8F88F7068C00318D568
:1012E00098FAA8F0B0FA80F040F02000400901D050
:1012F000306800E0706A98FAA8F1B1FA81F101F063
:101300001F0105FA01F1084275D06068A0BB0120F9
:10131000E1E76068B0F5803F17D0D8B1B0F5A02FF5
:1013200021D0306820F480303060306820F4802094
:101330003060F06AA16820F00F000843F062606836
:10134000C0B3FFF7C7FB07461EE0306840F48030AB
:101350003060EEE7306820F480303060306820F490
:1013600080203060E5E7306840F4802030603068ED
:1013700040F480303060DCE73DE0FFF7ABFBC01BA2
:10138000642801D90320A6E798FAA8F0B0FA80F003
:1013900040F02000400901D0306800E0706A98FAFF
:1013A000A8F1B1FA81F101F01F0105FA01F108423B
:1013B000E3D020E0FFE7FFF78DFB074606E0FFF7ED
:1013C00089FBC01B642801D9032084E798FAA8F0A0
:1013D000B0FA80F040F02000400901D0306800E011
:1013E000706A98FAA8F1B1FA81F101F01F0105FACB
:1013F00001F10842E3D12078DFF89C8280074FF0AA
:10140000000B4FF0020732D570684FF0F80A10F069
:101410000C0F07D07068C0F38100022828D17068D3
:10142000C00325D497FAA7F0B0FA80F040F020006E
:10143000400901D0306800E0706A97FAA7F1B1FA6C
:1014400081F101F01F0105FA01F1084204D0206981
:10145000012801D001203EE730689AFAAAF26169BA
:10146000B2FA82F220F0F8009140084330605CE06C
:10147000206990B395FAA5F0B0FA80F048F82050B2
:10148000FFF728FB814607E0FFF724FBA0EB0900EC
:10149000022801D903201EE797FAA7F0B0FA80F0DE
:1014A00040F02000400901D0306800E0706A97FAEF
:1014B000A7F1B1FA81F101F01F0105FA01F108422B
:1014C000E2D030689AFAAAF26169B2FA82F220F0A8
:1014D000F80091400843306027E0FFE795FAA5F057
:1014E000B0FA80F048F820B0FFF7F4FA814607E040
:1014F000FFF7F0FAA0EB0900022801D90320EAE681
:1015000097FAA7F0B0FA80F040F02000400901D02F
:10151000306800E0706A97FAA7F1B1FA81F101F042
:101520001F0105FA01F10842E2D1207800076DD5CC
:10153000A069A8B395FAA5F0B0FA80F008EB800096
:10154000C0F88054FFF7C6FA814607E0FFF7C2FAF9
:10155000A0EB0900022801D90320BCE697FAA7F006
:10156000B0FA80F040F06000B5EB501F01D1306858
:101570000BE097FAA7F0B0FA80F040F06000B7EB0C
:10158000501F01D1306A00E0706A97FAA7F1B1FAF2
:1015900081F101F01F0205FA02F10842D6D035E0D0
:1015A000FFE795FAA5F0B0FA80F008EB8000C0F8EC
:1015B00080B4FFF78FFA814607E0FFF78BFAA0EBC4
:1015C0000900022801D9032085E697FAA7F0B0FAAE
:1015D00080F040F06000B5EB501F01D130680BE0A7
:1015E00097FAA7F0B0FA80F040F06000B7EB501F18
:1015F00001D1306A00E0706A97FAA7F1B1FA81F17F
:1016000001F01F0205FA02F10842D6D12078400706
:101610006ED54FF00009F069C00009D4F06940F0C0
:101620008050F061F06900F0805000904FF00109A7
:101630001A480168C90513D4016841F4807101603A
:10164000FFF748FA824607E0FFF744FAA0EB0A00EA
:10165000642801D903203EE610480068C005F3D590
:10166000E068012810D0D8B1052822D0306A20F0D7
:1016700001003062306A20F004003062E068B0B3EC
:10168000FFF728FA824627E0306A40F00100306216
:10169000F4E70000001002400000424200700040E9
:1016A000306A20F001003062306A20F004003062BD
:1016B000E4E7306A40F004003062306A40F0010034
:1016C0003062DBE7FFF706FAA0EB0A0141F288304F
:1016D000814201D90320FEE597FAA7F0B0FA80F025
:1016E00040F04000B5EB501F03D130680DE017E02B
:1016F0004CE097FAA7F0B0FA80F040F04000B7EB6A
:10170000501F01D1306A00E0706A97FAA7F1B1FA70
:1017100081F101F01F0105FA01F21042D2D02EE052
:10172000FFF7D8F9824609E0FFF7D4F9A0EB0A01E8
:1017300041F28830814201D90320CCE597FAA7F025
:10174000B0FA80F040F04000B5EB501F01D1306896
:101750000BE097FAA7F0B0FA80F040F04000B7EB4A
:10176000501F01D1306A00E0706A97FAA7F1B1FA10
:1017700081F101F01F0105FA01F21042D4D1B9F153
:10178000010F03D1F06920F08050F061E06980B36F
:101790007168C1F38101022977D04FF080794FF051
:1017A0000077022809D099FAA9F0B0FA80F048F839
:1017B00020B0FFF78FF904465DE099FAA9F0B0FA7E
:1017C00080F048F820B0FFF785F9824607E0FFF780
:1017D00081F9A0EB0A00022801D903207BE597FAE2
:1017E000A7F0B0FA80F040F02000400902D0306845
:1017F00001E068E0706A97FAA7F1B1FA81F101F0AF
:101800001F0105FA01F10842E1D1D4E908100843AB
:10181000716821F474110843706099FAA9F0B0FA64
:1018200080F048F82050FFF755F9044606E0FFF72E
:1018300051F9001B022801D903204CE597FAA7F0C3
:10184000B0FA80F040F02000400901D0316800E09B
:10185000716A97FAA7F0B0FA80F000F01F0005FA5D
:1018600000F00142E3D02EE0FFF734F9001B02281C
:1018700001D903202FE597FAA7F0B0FA80F040F0E5
:101880002000400902D0316801E00BE0716A97FA4C
:10189000A7F0B0FA80F000F01F0005FA00F0014256
:1018A000E2D110E001280CD07068226A00F4803187
:1018B000914204D1616A00F47010884203D0012083
:1018C00009E5012007E5002005E510B5401EB0F14F
:1018D000807F01D3012010BD4FF0E02460610F2113
:1018E000601701F02BF80020A06107202061002084
:1018F00010BD70477047704770B50446206850E8C7
:10190000001F21F4907140E80012002AF6D12068EF
:10191000083050E8001F21F0010140E80012002AC1
:10192000F5D1206E012808D1206850E8001F21F071
:10193000100140E80012002AF6D1206881684FF0BB
:10194000000349064FF00F054FF0200625D520680B
:10195000083050E8001F21F0400140E80012002A42
:10196000F5D1206F48B112494163206FFEF7B4FFF3
:10197000E0B1206F416B884718E0A4F85A306365E6
:10198000206805622068816941F008018161E6678D
:1019900023662046FFF7AFFF08E0A4F85A306365DE
:1019A0000562E66723662046FFF7A5FF002070BDAD
:1019B000E1220008704700002DE9F041044622684A
:1019C000D0691168936840F60F0500EA0506002EFD
:1019D0000AD1850608D58D0606D5616E00297DD011
:1019E0002046BDE8F04108470025002E77D0984FEB
:1019F00003F001060F40374371D0C70709D0CF0568
:101A000007D501271762D4F8802042F00102C4F8FC
:101A1000802082070AD5DA0708D0276802223A62B6
:101A2000D4F8802042F00402C4F8802042070AD58E
:101A3000DA0708D0236804221A62D4F8802042F022
:101A40000202C4F8802002070CD501F020023243C4
:101A500008D0236808221A62D4F8802042F00802D5
:101A6000C4F8802002050BD54A0109D523684FF43C
:101A700000621A62D4F8802042F02002C4F880206C
:101A8000D4F88020002A35D0800605D5880603D5F5
:101A9000616E09B120468847D4F8800021688968C2
:101AA000490602D410F0280F2AD0204600F02BFC63
:101AB0002068806840061FD52068083050E8001F65
:101AC00021F0400140E80012002AF5D1206F70B1EA
:101AD00060494163206FFEF7FFFE01E00AE015E078
:101AE000002807D0206F416BBDE8F0410847204631
:101AF000FFF760FFBDE8F0812046FFF75BFFF9E7E5
:101B00002046FFF757FFC4F88050F3E7266E012EFA
:101B10007ED1C6067CD5CE067AD51020106220680C
:101B200080684FF02003400643D5216F0868406865
:101B300080B20028DED0B4F858208242DAD9A4F866
:101B40005A00886920282AD0206850E8001F21F414
:101B5000807140E80012002AF6D12068083050E871
:101B6000001F21F0010140E80012002AF5D1206891
:101B7000083050E8001F21F0400140E80012002A20
:101B8000F5D1E3672566206850E8001F21F01001B9
:101B900040E80012002AF6D1206FFEF77AFEB4F872
:101BA0005800B4F85A10401A81B22046FFF7A1FE3F
:101BB000A0E734F8580F6188401A81B26088583C19
:101BC000002897D0002995D0206850E8002F22F4F3
:101BD000907240E80026002EF6D12068083050E8C8
:101BE000002F22F0010240E80026002EF5D1E36725
:101BF00025666566206850E8002F22F0100240E854
:101C00000023002BF6D12046FFF773FE72E7FFE7B3
:101C1000C50209D55B0207D54FF48010106220463B
:101C2000BDE8F041FFF766BE020608D50A0606D5F4
:101C3000A16E0029BCD02046BDE8F041084740060F
:101C4000B6D54806B4D52046BDE8F04100F080BBCB
:101C500020010004CD22000810B50446002C02D05B
:101C6000A06F10B107E0012010BD002084F87400BF
:101C7000204600F027F82420A0672068016821F0A2
:101C800001010160204600F011FC012818D0606AB3
:101C900010B1204600F086FA2068416821F4904196
:101CA00041602068816821F02A0181602068016814
:101CB00041F0010101602046BDE8104000F0D6BAB5
:101CC000012010BD10B586B00446142101A8FEF70E
:101CD0008DFB17492068884228D11648816941F454
:101CE00080418161816901F480410091416941F441
:101CF00000314161406900F4003000904FF4C06051
:101D000001900220029000200390032004900720FD
:101D1000059001A94FF09040FEF704FE0022114605
:101D20002520FEF73DFF2520FEF72CFF06B010BD55
:101D3000003801400010024030B4C36F202B02D0A5
:101D4000022030BC7047C9B1C2B190F87430012B89
:101D500016D0012380F874300023036603685B68A3
:101D60001B0208D5036853E8004F44F0806443E841
:101D70000045002DF6D130BC00F0A8BC0120E0E702
:101D80000220DEE7084988420DD108480178002981
:101D900009D0074A01211170002101700322054971
:101DA0000148FFF7C9BF7047185200200200002009
:101DB0002800002021000020836F202B01D002206A
:101DC0007047B9B1B2B190F87430012B14D001232F
:101DD00080F87430C164A0F85020A0F8522000218F
:101DE0008166C0F88010212282678268B2F5805F28
:101DF00004D005E00120704702207047026972B1EB
:101E0000084A826680F87410016851E8002F42F099
:101E1000800241E80023002BF6D100207047024ADF
:101E20008266EFE7B927000869270008034988425E
:101E300002D10349012008707047000018520020A9
:101E400010000020FEE7000070B586B0142101A844
:101E5000FEF7CCFA2648416941F40021416141690D
:101E600001F400210091416941F48001416141691F
:101E700001F480010091416941F4003141614169FF
:101E800001F400310091416941F4802141614069D0
:101E900000F480200090174D4FF40054002221469A
:101EA0002846FEF711FE01940121029100240394BB
:101EB000049401A92846FEF735FD10200190032562
:101EC000029503944FF0904601A93046FEF72AFD93
:101ED0004FF40041019112210291039404950421D1
:101EE000059101A93046FEF71DFD06B070BD00004A
:101EF000001002400008004810B50A480849016077
:101F0000002141600C22C260202282600161416296
:101F1000FEF78AFE002801D0FEF7B9FC10BD0000D4
:101F2000380001404851002010B50A4808490160B6
:101F3000002141600C22C260202282600161416266
:101F4000FEF772FE002801D0FEF7A1FC10BD0000D4
:101F50003C0001407C51002010B509480749016050
:101F6000602141600C21C160002101614162FEF7E6
:101F70005BFE002801D0FEF78AFC10BD4000014046
:101F8000B051002010B50948074901606021416047
:101F90000421C160002101614162FEF745FE002875
:101FA00001D0FEF774FC10BD44000140E451002054
:101FB00010B50C480A4901600B494160002181605D
:101FC000C16001610C2242618161C16101624162B3
:101FD000FFF742FE002801D0FEF759FC10BD0000BB
:101FE0000038014018520020C0C62D00FEE7FEE771
:101FF0007047704770B5FEF773FD0D4D0D4C002610
:10200000287808B1268070BD2088401C80B22080CE
:102010001928F8D30848FFF76FFC012028702680A4
:10202000BDE87040012205490348FFF785BE000066
:102030000200002030000020185200202000002064
:1020400070B59EB0282114A8FEF7D0F914210FA86E
:10205000FEF7CCF93C216846FEF7C8F90125149536
:102060002804159000241694189502261B961C909F
:102070004FF4E0101D9014A8FFF714F908B1FEF713
:1020800006FC0F200F90109611944FF48060129070
:10209000139402210FA8FEF7C1FF08B1FEF7F7FB6A
:1020A000009502946846FEF7ADFE002801D0FEF7C9
:1020B000EEFB1EB070BD00000248016841F47001E3
:1020C0000160704788ED00E04FF080400169C9076A
:1020D00003D0016921F00101016170471248C16913
:1020E00041F00101C16180048168104A11408160A2
:1020F00000210160816240F2F311C162C16841F0C8
:102100000101C160016821F010010160416821F006
:10211000700141F020014160016841F0010101605E
:102120001C2000F0EEBB000000100240F8FFFEFF94
:102130001348816941F40051816112480168124AD3
:10214000114001600F480021083801600D4A20321B
:1021500011607C21121D11600A49091D0A6842F0B4
:1021600001020A60016821F010010160001D016890
:1021700021F0700141F0200101602C2000F0C1BB72
:102180000010024008340140F8FFFEFF04480168D7
:10219000C90703D0016821F0010101607047000008
:1021A0001034014090F82410C90706D001684A682D
:1021B000836A22F400321A434A6090F82410890797
:1021C00006D501684A68C36A22F480321A434A601D
:1021D00090F82410490706D501684A68036B22F479
:1021E00080221A434A6090F82410090706D5016836
:1021F0004A68436B22F400421A434A6090F8241064
:10220000C90606D501688A68836B22F480521A4396
:102210008A6090F82410890606D501688A68C36B25
:1022200022F400521A438A6090F82410490611D50E
:1022300001684A68036C22F480121A434A60016CF8
:10224000B1F5801F06D101684A68436C22F4C002D0
:102250001A434A6090F82410090606D501684A68B6
:10226000806C22F4002202434A607047F8B50446AD
:102270000025C4F88050FEF72DFC07462068006852
:102280006FF07E4600070AD53B4600224FF400114E
:102290002046009600F0B6FA08B10320F8BD206889
:1022A000006840070AD53B4600224FF480012046D3
:1022B000009600F0A7FA08B10320F8BD2020A0671F
:1022C000E067256684F874500020F8BD10B5406AB8
:1022D0000021A0F85A10A0F85210FFF76BFB10BDB8
:1022E00010B5406A0022A0F85A2003680F21196235
:1022F00001688B6943F008038B612021C167026686
:10230000FFF7F9FA10BD016851E8002F22F490722E
:1023100041E80023002BF6D10168083151E8002F75
:1023200022F0010241E80023002BF5D1016E0129C2
:1023300008D1016851E8002F22F0100241E8002383
:10234000002BF6D12021C16700210166416670474C
:1023500010B5016851E8002F22F0400241E8002347
:10236000002BF6D12021816700218166FFF75EFDF9
:1023700010BD10B5B0F85C20C36F0168222B04D0EB
:10238000886940F00800886110BD898C50F8543F7E
:10239000114019800168891C0160C188491EC180F3
:1023A000C18854380029EFD1016851E8002F22F488
:1023B000907241E80023002BF6D10168083151E802
:1023C000002F22F0010241E80023002BF5D120214B
:1023D000C16700214166026E012A02D0FFF7D2FCDC
:1023E00010BD0166016851E8002F22F0100241E89B
:1023F0000023002BF6D10168CA69D243D20601D46A
:1024000010220A62B0F85810FFF773FA10BD10B529
:10241000B0F85C20C36F0168222B04D0886940F0BB
:102420000800886110BD898C114050F8542F11703C
:102430000168491C0160C188491EC180C1885438A7
:102440000029EFD1016851E8002F22F4907241E891
:102450000023002BF6D10168083151E8002F22F04B
:10246000010241E80023002BF5D12021C1670021A2
:102470004166026E012A02D0FFF784FC10BD01669E
:10248000016851E8002F22F0100241E80023002BE0
:10249000F6D10168CA69D243D20601D410220A6279
:1024A000B0F85810FFF725FA10BD000070B50446CB
:1024B0000025A1682069E269014360691043014376
:1024C0002068026849F20C639A430A43026020685C
:1024D0004168E26821F4405111434160A069216ADA
:1024E00001432068826822F430620A438260704AA5
:1024F00020687049904213D1086B10F0030007D098
:10250000012809D0022809D0032803D0102170E047
:1025100001216EE002216CE004216AE0082168E0FC
:10252000654A904216D1086B10F440300AD0B0F5DD
:10253000803F0BD0B0F5003F0AD0B0F5403F03D04C
:10254000102156E0002154E0022152E0042150E025
:1025500008214EE0594A904216D1086B10F44020F1
:102560000AD0B0F5802F0BD0B0F5002F0AD0B0F50F
:10257000402F03D010213CE000213AE0022138E056
:10258000042136E0082134E04D4A904216D1086B10
:1025900010F440100AD0B0F5801F0BD0B0F5001F2A
:1025A0000AD0B0F5401F03D0102122E0002120E026
:1025B00002211EE004211CE008211AE0414A904259
:1025C00016D1086B10F440000AD0B0F5800F0BD084
:1025D000B0F5000F0AD0B0F5400F03D0102108E08D
:1025E000002106E0022104E0042102E0082100E0CD
:1025F0001021E3694FF40040334A4FF6EF768342EF
:102600002CD1092911D2DFE801F005080B100D10BB
:1026100010101200FEF7E4FD09E0FEF7F7FD06E0FA
:10262000104604E0FEF708FE01E000200125C0B3DB
:102630004100606801EB5001B1FBF0F080B2A0F105
:102640001001B14208D84FF6F0710140C0F34200CA
:1026500001432068C16026E0012524E0092911D248
:10266000DFE801F005080B100D1010101200FEF746
:10267000B7FD09E0FEF7CAFD06E0104604E0FEF7EC
:10268000DBFD01E00020012558B1616800EB51003D
:10269000B0FBF1F080B2A0F11001B14202D8216884
:1026A000C86000E0012500206066A066284670BD75
:1026B0000038014000100240004400400048004043
:1026C000004C00400050004000127A0030B54165D7
:1026D000A0F85820A0F85A200024446681684FF4DE
:1026E0008055FF22A94209D1016911B1A0F85C20EF
:1026F00007E040F2FF11A0F85C1002E019B3A0F867
:102700005C40C0F880402221C1670168083151E86F
:10271000002F42F0010241E80023002BF5D181682F
:10272000A94201D10169B9B10D49416680F87440EF
:10273000016851E8002F42F4907241E80023002B19
:10274000F6D1002030BD016919B17F21A0F85C10DD
:10275000D7E7A0F85C20D4E702494166E6E700002D
:102760000F24000873230008816F212910D1B0F8CD
:10277000521071B1C16C02680988C1F3080111855A
:10278000C16C891CC164B0F85210491EA0F85210E7
:102790007047016851E8002F22F0800241E80023D1
:1027A000002BF6D1016851E8002F42F0400241E8C9
:1027B0000023002BF6D17047816F21290ED1B0F88C
:1027C000521061B1C16C026809781185C16C491C55
:1027D000C164B0F85210491EA0F852107047016849
:1027E00051E8002F22F0800241E80023002BF6D1AF
:1027F000016851E8002F42F0400241E80023002B1D
:10280000F6D170472DE9F0470446089D8846914669
:102810009A460027202648E0681C46D0FEF75AF961
:10282000A0EB0A00A84227D835B320680168490701
:102830003BD5C069C043000537D421684FF4006020
:102840000862206850E8001F21F4D07140E80012AF
:10285000002AF6D12068083050E8001F21F001015D
:1028600040E80012002AF5D174346660A660E66084
:1028700027700320BDE8F087206850E8001F21F48E
:10288000D07140E80012002AF6D12068083050E8E4
:10289000001F21F0010140E80012002AF5D1A667CF
:1028A000E66784F874700320E4E72068C06938EABA
:1028B000000004D000204845AED00020DAE7012017
:1028C000F9E700000148FFF777B800001852002030
:1028D000FEE703B401984100009850EAC12018BFF8
:1028E00004204A0D18BF40F0010040F2FF72B2EB25
:1028F000515F08BF40F00200012808BF052002B068
:102900007047002809DB00F01F02012191404009B7
:10291000800000F1E020C0F8001170470907090E9F
:10292000002804DB00F1E02080F80014704700F07C
:102930000F0000F1E02080F8141D70470907090E10
:10294000002804DB00F1E02080F80014704700F05C
:102950000F0000F1E02080F8141D70470000000017
:1029600010B51D499FED1A1B2DED020B84B0059883
:1029700020F000408842DCBF01209DED040B21DDEA
:102980001649884209D1049840B94FF00100FDF77B
:102990005CFD00F071FC06B010BD05DB9DED040B85
:1029A00000F05EFC06B010BD68469DED040B00F023
:1029B00017F800F001000121A1EB40009DED021B82
:1029C0009DED000B00F0A4FA06B010BD0000000061
:1029D0000000000000000000FB21E93F0000F07F44
:1029E0002DE9F14F04462DED020B2DED088B8AB039
:1029F0009FEDE70B80ED020B139EE74826F00045A4
:102A000085420ADC9DED120B002084ED000B0AB01C
:102A1000BDEC088B03B0BDE8F08FE0489FEDE0AB64
:102A20009FEDE1BBA84247DDE14F9FEDE39B9FEDAA
:102A3000E48B9DED120B53EC1A2B51EC100B002E76
:102A40001CDD01F0C1F841EC100BBD4208D053EC85
:102A50001B2B51EC100B01F0B7F8C4E900010BE09F
:102A600053EC192B51EC100B01F0AEF853EC182B72
:102A700001F0AAF8C4E900010120C8E700F040FD18
:102A800041EC100BBD4208D053EC1B2B51EC100B4A
:102A900000F036FDC4E900010BE053EC192B51ECBA
:102AA000100B00F02DFD53EC182B00F029FDC4E9AC
:102AB00000014FF0FF30AAE7C348A84279DB9DED43
:102AC000120B51EC100B00F0F7FB41EC180B9FEDD3
:102AD000C00B53EC102B00F06DFF9FEDBF1B53ECB0
:102AE000112B00F00DFD00F00BFF074600F037FF43
:102AF00041EC190B53EC1A2B00F05CFF53EC182B34
:102B000001F056F841EC180B53EC1B2B51EC190B50
:102B100000F050FFDFF8C8A241EC100B4FEA155847
:102B20000125FA4453EC102B51EC180B01F04CF832
:102B3000032DC4E900013DD0C1F30A5005EB451156
:102B4000A8EB00001139814234DA0AEB051BB0EE24
:102B500048AA9BED000BF0EE68AA53EC102B51EC49
:102B6000190B00F027FF41EC1B0B51EC1A0B53EC37
:102B70001B2B01F029F841EC180B51EC1A0B53EC0C
:102B8000182B01F021F853EC1B2B01F01DF89BEDE5
:102B9000020B41EC1A0B53EC102B51EC190B00F00B
:102BA00009FF53EC1A2B01F00FF841EC100B6D1CD0
:102BB000B8E70EE0002EA8BF3846BFF628AF94ED68
:102BC000000B51EC100B00F08FFCC4E900017842BF
:102BD0001DE7C6F3130040F4801EC6F30A50A0F2AE
:102BE000F530471100F01F05C5F12000DDF848B0B1
:102BF00008900020069007900520EC467949002DAA
:102C000007EB0002794408BF51F8221009D051F8AF
:102C1000223001EB8201AB404A68089922FA01F1A7
:102C20001943A1FB0E26A1FB0B131A449A4234BF91
:102C30000123002303EB06080CEB8003D3E901A674
:102C40000E448E4234BF0121002192448A4411B1C6
:102C5000924502D903E0924501D2012100E0002112
:102C6000C3E901A641444CF82010011EA0F1010067
:102C7000C4DC029800F10050850F0298DDE903677B
:102C80008000DDF8148000F06AFE41EC1A0B30463B
:102C900000F07CFE9FED541B53EC112B00F08AFEDC
:102CA00041EC1B0B384600F071FE9FED511B53ECBD
:102CB000112B00F07FFE41EC180B404600F066FE41
:102CC0009FED4D1B53EC112B00F074FE41EC190BE2
:102CD00051EC180B53EC192B00F012FC53EC1B2B8E
:102CE00000F00EFC53EC1A2B00F00AFCCDE90801B1
:102CF000002008909DED080B53EC1A2B51EC100BA3
:102D000000F062FF53EC1B2B00F05EFF53EC182B1E
:102D100000F05AFF53EC192B00F04AFF9FED381BCF
:102D200053EC112B00F046FE9FED370B41EC180BD6
:102D300053EC102B9DED080B51EC100B00F03AFEFC
:102D400053EC182B00F0DCFB9FED310B41EC180B22
:102D500053EC102B9DED080B51EC100B00F02AFEEC
:102D600053EC182B00F0CCFB41EC100B139810F037
:102D7000004F06D06D4251EC100B00F0B5FB41EC5A
:102D8000100B284684ED000B41E600000000000017
:102D90000000000000000000FB21E93F7CD9024058
:102DA00000004054FB21F93F3163621A61B4D03D09
:102DB000FB21F93F000000000000601A61B4D03D23
:102DC0007370032E8A19A33BFB21394100000000D8
:102DD00083C8C96D305FE43F000000000000E03FA1
:102DE000BA13000008130000000000000000103EAD
:102DF000000000000000103C000000000000103A3D
:102E0000182D4454FB21F93D3326A611460B113CE5
:102E100000000054FB21F93D70B504462DED028BF6
:102E20004D1E00EBC500B0EE408AF0EE608A90EDDA
:102E3000000B35F0060017D053EC182B51EC100B9B
:102E400000F0B8FD41EC100B6D1E04EBC50090EDD9
:102E5000001B51EC100B53EC112B00F051FB41EC1B
:102E6000100B35F00600E7D1022D36D0042D1CD012
:102E7000062D1CBFBDEC028B70BD53EC182B51EC22
:102E8000100B00F097FD94ED0A1B53EC112B00F092
:102E900037FB53EC182B00F08DFD94ED081B53EC21
:102EA000112B00F02DFB41EC100B53EC182B51ECC7
:102EB000100B00F07FFD94ED061B53EC112B00F07E
:102EC0001FFB53EC182B00F075FD94ED040B53EC35
:102ED000102B00F015FB41EC100B53EC182B51ECB0
:102EE000100B00F067FD94ED021B53EC112B00F06A
:102EF00007FB53EC182B00F05DFD94ED001B53EC29
:102F0000112B00F0FDFABDEC028B41EC100B70BDF3
:102F1000F1B506462DED040BBD482DED0C8B8AB0A6
:102F2000B0EE418AF0EE618A179D25F000449FEDD6
:102F3000BABB9FEDBBCB844208DA9DED160B51EC7A
:102F4000100B00F0DDFC002800F0E980B64FA7422E
:102F500031DC002D0DDA9DED160B51EC100B00F05D
:102F6000C3FACDE9160151EC180B00F0BDFA41ECA3
:102F7000180B9FEDAF0B53EC102B9DED160B51EC86
:102F8000100B00F015FE53EC182B9FEDAB0BCDE9A9
:102F9000040151EC100B00F017FE41EC100B53EC48
:102FA000102B9DED040B51EC100B00F0A9FA9FEDD6
:102FB000A48BCDE916019DED160B53EC102B51ECB3
:102FC000100B00F0F7FCCDE904019DED040B53EC70
:102FD000102B51EC100B00F0EDFC41EC190B9A4852
:102FE0000621B0EE490AF0EE690A7844FFF714FFB3
:102FF0009648B0EE40DAF0EE60DAB0EE490AF0EE54
:10300000690A06217844FFF707FF9DED041B51EC88
:10301000100B53EC112B00F0CDFC9DED040B41EC9B
:103020001A0B53EC102B9DED160B51EC100B00F00E
:10303000C1FC41EC190B53EC1A2B51EC1D0B00F0A9
:103040005FFA53EC192B00F0B5FC53EC182B00F091
:1030500057FA9DED041B53EC112B00F0ABFC53EC25
:10306000182B00F04DFA41EC180B9FED790B51EC49
:10307000190B53EC102B00F09DFC53EC182B00F0B7
:103080003FFA41EC190B9DED160B53EC192B51EC4B
:10309000100B00F035FA41EC180BA74269DC304602
:1030A00000F05DFC41EC1A0B51EC180B53EC1A2BA1
:1030B00000F026FA41EC1B0B53EC182B51EC180BCB
:1030C00000F078FC53EC1B2B00F0C2FA53EC192BE8
:1030D00000F07AFD9DED161B53EC112B00F068FDFE
:1030E0009FED5D1B53EC112B00F064FC53EC1A2B8D
:1030F00000F05EFD41EC180B022000EAA570C0F163
:10310000010000F02CFC53EC182B00F053FC00BF26
:1031100041EC100B0AB0BDEC0C8B05B0F0BD711C7E
:103120001698214308430CD09DED160B012E1CBFB1
:1031300053EC102B51EC1C0B10D000BF00F088FAA0
:10314000E6E79DED160B51EC100B00F0B5F841ECE5
:10315000100B51EC1B0B53EC102BEFE751EC100B49
:10316000FFF7B7FB042808BF00F096F89DED160B9B
:10317000D0E7012E04BFB0EE480AF0EE680AC9D0CD
:103180008DED048B002404949DED040B53EC102B67
:103190009DED160B51EC100B00F00AFD53EC192BB2
:1031A00000F006FD41EC190B53EC182B51EC1C0BF5
:1031B00000F04EFA41EC180B8DED008B00949DED64
:1031C000040B53EC102B9DED000B51EC100B00F099
:1031D000F1FB53EC1B2B00F093F99DED000B41EC40
:1031E0001A0B53EC192B51EC100B00F0E3FB53ECD2
:1031F0001A2B00F085F953EC182B00F0DBFB9DED4A
:10320000001B53EC112B00F07BF981E7000000005C
:103210000000303E00000000000000000000F03F11
:10322000000000000000F0BF2894E53F000000000F
:10323000182D4454FB21E93F075C143326A6813C3A
:103240000000000000000000BA0F0000D00F0000D6
:10325000635555555555D53F00000000000000400E
:1032600010B553EC102B51EC100B00F049F941EC68
:10327000100B10BD000000009FED050B10B553ECC6
:10328000102B51EC100B00F0E3F941EC100B10BDCA
:1032900000000000000000009FED050B10B553EC8E
:1032A000102B51EC100B00F085FB41EC100B10BD06
:1032B000000000000000001082B0CDE9000121F004
:1032C000004001909DED000B02B051EC100B7047D7
:1032D000FDF70EFCFEF7B4FEFEF7B6FDFEF752FE5C
:1032E000FEF70AFEFEF720FEFEF736FEFEF760FE52
:1032F0006B48FDF76BFD6A483430FDF767FD6848A1
:103300006830FDF763FD66489C30FDF75FFDFDF713
:10331000E1F8FDF7BBF9FEF7E1FEFEF709FF614CAE
:103320000120A0705E48012204F12001D030FEF798
:1033300003FD5D4FDFF87481002504F12006594834
:1033400004225BA12030FDF706F8B0B355480422F3
:1033500059A12030FCF7FFFF002857D05148042224
:1033600057A12030FCF7F7FF002854D04D48042225
:1033700055A12030FCF7EFFF00284FD04948042228
:1033800053A12030FCF7E7FF00284FD04548042226
:1033900051A12030FCF7DFFF002869D0414802220C
:1033A0004FA12030FCF7D7FF0028C8D13570B07886
:1033B000F17800EB0120E080C1E7FFE7386840F0DA
:1033C0000100386020690028B9D160690128B6D1B0
:1033D0003570E068401EC1B26170A0684FF6FF72A0
:1033E00002EA4020A080227842EA012141EA00411D
:1033F000A1613C4A1160001D82B229483949D03090
:10340000FEF7DAFC6561A560E56098E7386820F0B2
:103410000100386093E7FDF7F5FB90E73570204831
:10342000042229A1D030FEF7C7FC88E73570E08878
:10343000800900F0ABFA41EC100BFFF791FA51EC68
:10344000100B00F05DFAE0610020402805D2E16930
:103450004143491C28F8101005E0E1694143C1F1DE
:10346000010128F81010401C80B28028EDD366E7D7
:103470003570E088C00900F089FA41EC100BFFF7C5
:103480006FFA51EC100B00F03BFAE0610020E169AB
:10349000414328F81010401C80B28028F7D34EE733
:1034A000485100200000002000340140440000206A
:1034B000535441520000000053544F50000000008C
:1034C000524553450000000054455354000000008D
:1034D00052414D310000000052414D3200000000C9
:1034E000414D00004401002081F00041704780F010
:1034F0000040704721F00041704720F000407047C5
:1035000010B591EA030F48BF83F0004300F16483D4
:10351000841A71EB030C05D2121943EB0C03001B48
:1035200061EB0C01DFF824E14FEA1154A4EB135CCA
:103530001EEA430F18BF9EEA445F73D023EA0E03CE
:10354000DCF1200E21EA045143F4801332D322FA35
:103550000CFE10EB0E0023FA0CFE41EB0E01CCF139
:10356000200E03FA0EFE10EB0E0051F10001B1F532
:10357000801FCCF1200E32D201EB045112FA0EF270
:10358000BDE8104058BF7047401C38BF5FEA420298
:1035900018BF7047002814BF20F0010041F100015E
:1035A0004FEA410313F5001F38BF7047A1F1C04136
:1035B00000F0F8BA012A43EB0302ACF1200CDCF175
:1035C0001F0E32BF4FF0000E23FA0CF310EB030076
:1035D00041EB0451B4EB115FD0D0A1EB045101F5E4
:1035E000801149085FEA300001EB04510ED350F11D
:1035F000000038BF12FA0EFE08D1BDE81040C9E73E
:10360000401C38BF5FEA4202CAD1C3E7BDE81040A0
:103610004FEA410313F5001F38BF7047A1F1C041C5
:1036200000F0C0BA9EEA445F08D011EA5E0FBDE820
:10363000104004BF01F0004100207047BDE8104079
:1036400070B500F061FA00BF64FBBE3E0000E0FF11
:103650002DE9C04130B4DFF8A0C23CEA111418BF14
:103660003CEA131400F0EC8081EA03051CEA111413
:1036700044EAD57418BF1CEA131500F0C780A4EB08
:1036800005044FF0004545EAC12145EAC32341EA5C
:10369000505143EA525304F17F74994204F50034C7
:1036A0004FEAC0204FEAC22208BF904200F09C803F
:1036B0004FEA13650FF24016765D4FEA134506FB9D
:1036C00005F7C7F1807706FB07F74FEAD737A7FB67
:1036D00003687642C8F58038A7FB06CE38BFA8F14C
:1036E000010807FB08E64FF0000EA6FB028CE6FB84
:1036F00003CEDCF1000CCEF1004E38BFAEF1010E6E
:10370000A6FB0C584FF000074FF00005E6FB0E87B4
:10371000A1FB08C6A0FB07CE16EB0E0645F100057F
:10372000E1FB076515F1E04E7EBFA4F580345FEA4A
:1037300046066D4116F1800745F100054FEA17274F
:103740004FEA066647EA0567A6F1DE46B6F1805FF6
:103750004FEA15251FD9384624F0010C05EBC4713A
:10376000BCF1FE6F01EB0C1102D8F0BCBDE800818A
:1037700024425CBF01F5801E9EEAC47F02D4F0BCE7
:10378000BDE80081244238D4F0BCA1F1C041BDE8BD
:10379000004100F007BA4FEAD22242EA43524FEA10
:1037A000D323A7FB02864FEAD02040EA415007FB13
:1037B00003661EEA0E0F4FEAD12105FB026658BFD1
:1037C000A6EB0056B6EB00564FEA520E4EEAC37E09
:1037D00018EB0E0E56EB530EBDD518EB02085E41EA
:1037E0007F1C55F10005B6E74FF480154FF0000738
:1037F0004FF000064FF00008ADE7F0BC4FF00000BE
:1038000001F1C04101F00041BDE8008111EA0C1F47
:103810000CEA131500D00CE013EA0C1F00F0258011
:103820004FF00000F0BC81EA030101F00041BDE867
:103830000081F0BCBDE8004181EA030100F0B2B9AB
:10384000F0BCBDE8004170B500F05EF9097EFC3EB9
:1038500000F007B881EA03014FF0000001F00041D9
:10386000704781EA030100F09DB9F0BCBDE800415A
:103870004FF0000021497047FFFDFBF9F7F5F4F226
:10388000F0EEEDEBE9E8E6E4E3E1E0DEDDDBDAD8FB
:10389000D7D5D4D3D1D0CFCDCCCBCAC8C7C6C5C459
:1038A000C2C1C0BFBEBDBCBBBAB9B8B7B6B5B4B370
:1038B000B2B1B0AFAEADACABAAA9A8A8A7A6A5A45B
:1038C000A3A3A2A1A09F9F9E9D9C9C9B9A9999981F
:1038D0009797969595949393929191908F8F8E8EC2
:1038E0008D8C8C8B8B8A898988888787868585844F
:1038F00084838382828181800000FF070000F87F3B
:103900004FEA41034FEA5353A3F58063D3F11E03FB
:10391000C8BFD3F1210C0CDD4FF0004242EAC122B6
:1039200042EA505232FA03FC8CEAE17CACEBE170E3
:103930007047102BC4BF0020704703F5787CBCF1A2
:10394000FF3F04D06FF0004282EA2100704770B55B
:1039500000F0DAF84992248000207047F2E710F076
:10396000004248BF4042B0FA80F310FA03F10AD097
:10397000C3F11D0303F580634FEA415002EB03528C
:1039800002EBD12170474FF000007047B0FA80F38E
:1039900010FA03F10AD0C3F11D0303F580634FEA67
:1039A00041504FEA035202EBD12170474FF0000023
:1039B00070470000DFF848C170B51CEA111E1EBF39
:1039C0001CEA13159EEA0C0F95EA0C0F00F06F80AD
:1039D00081EA030423EA4C134EEAD47E21EA4C1117
:1039E00041F4801143F48013AE44A1FB024CA0FBD0
:1039F0000365AEF17F7E361955EB0C05A1FB034C38
:103A00004CF10003A0FB021C16EB0C06654153F1C0
:103A10000003094218BF46F0010613F4007F0BD1E2
:103A20004FEA03314FEA0530340341EA155140EAC9
:103A300016506FF003020AE04FEAC3214FEAC52097
:103A4000F40241EA555140EA56506FF0020202EB8F
:103A50002E4201EB025585EACE710AD05FEA440C92
:103A600018BF24F0004450F1000041F1000120EAA9
:103A7000D47040F2FE7C624500D270BDA84214BFF3
:103A80004FF080444FF04044002E08BF0024BEF1A8
:103A9000806FA8BFA1F1C041BDE8704080F2828074
:103AA0004FF0000001F1C04101F0004170479EEA73
:103AB0000C0F0CEA131518BF95EA0C0F06D04FF047
:103AC000000081EA030E0EF0004170BD00F01CF80A
:103AD0008900013E00F007B800F009B84FEA430C36
:103AE0005FEA5C5C08D081EA030100F05BB84FEA52
:103AF000410C5FEA5C5CF6D14FF000000149704771
:103B00000000FF070000F87F0EF1020E2EF0030EFA
:103B10005EF8046B364205D4012A43EB030515F524
:103B2000001F12D8012841EB010C1CF5001F0CD816
:103B30000ED14FEAD17C15F5001F0CEB4C0C0CF1AB
:103B4000020C08BF4CEBD37C04E04FF0080C01E002
:103B50004FEAD37C0CEB4C0526FA05F606F0070677
:103B6000B6F1040C06D20EEB860CBDE870404CF0AA
:103B7000010C6047DFE80CF0090B02024FF0004136
:103B80004FF00000A1F5002170BD19461046012834
:103B900051EB010418BFD4F5001484BF002001F0DC
:103BA000004170BD0808A0F500114FEA31017047CF
:103BB00091EA030F10B581F000413FF5A9AC83F005
:103BC000004300F009B8000010B591EA030F48BFA8
:103BD00083F000433FF59CAC841A71EB030C07D2D1
:103BE00012198CF0004C43EB0C03001B61EB0C0131
:103BF000DFF8A4E14FEA1154A4EB135C1EEA430F73
:103C000018BF9EEA445F00F0B08023EA6E03524280
:103C100021EA0451C3EB6E0338BF5B1EDCF1200EBA
:103C200025D322FA0CFE10EB0E0043FA0CFE41EBFA
:103C30000E01CCF1200E03FA0EFE10EB0E0051F136
:103C40000001CCF1200E29D412FA0EF201EB04513E
:103C5000BDE8104058BF7047401C1CBFB2F1004F78
:103C6000704700280CBF491C20F00100704712EB80
:103C7000020E43EB030218BF4FF0010E4EEA420260
:103C8000ACF1200CDCF11E0E54D943FA0CFE10EB03
:103C90000E0051F1FF31CCF11E0ED5D50EF1010E03
:103CA00012FA0EFE404141EB010101EB445C5FEA78
:103CB0005C5C10D910EBDE7001EB045138BFBEF133
:103CC000004FBDE8104018BF704700280CBF491CCA
:103CD00020F00100704730D24FEAD42C11F50011CA
:103CE00024F400641BD0B1FA81F20B3AA41AA41E8A
:103CF000D2F12003914030FA03F31943904001EBD5
:103D0000CC71002C01EB0451BDE81040A8BF7047F6
:103D100001F1C0414FF0000001F000417047B0FADE
:103D200080F310FA03F100D110BDE41A173C4805E6
:103D3000C90AE4E701EB045110BD491001EB04513D
:103D4000BDE810404FEA300002E04FF0000170473C
:103D50004A0008BF0042F8D0B2F5001F28BF7047E4
:103D600001F000414FF0000070479EEA445F07D029
:103D700011EA5E0FBDE8104004BF0021002070472B
:103D8000BDE8104070B5FFF7BFFE00BF40DFF63E54
:103D900083F00041104670470000E0FF4FF0407094
:103DA000E1EE100A7047000040008000C0000001F2
:103DB00040018001C001000240028002C0020003F5
:103DC00040038003C003000440048004C0040005D5
:103DD00040058005C005000640068006C0060007B5
:103DE00040078007C00700083F087F08BF08FF089A
:103DF0003F097F09BF09FF093F0A7F0ABF0AFF0A7F
:103E00003F0B7F0BBF0BFF0B3F0C7F0CBF0CFF0C5E
:103E10003F0D7F0DBF0DFF0D3F0E7F0EBF0EFF0E3E
:103E20003F0F7F0FBF0FFF0FBF0F7F0F3F0FFF0E23
:103E3000BF0E7F0E3F0EFF0DBF0D7F0D3F0DFF0C20
:103E4000BF0C7F0C3F0CFF0BBF0B7F0B3F0BFF0A20
:103E5000BF0A7F0A3F0AFF09BF097F093F09FF0820
:103E6000BF087F083F080008C00780074007000719
:103E7000C006800640060006C00580054005000516
:103E8000C004800440040004C00380034003000316
:103E9000C002800240020002C00180014001000116
:103EA000C0008000400002030405060708090A0B51
:103EB0000C0D0E0F10100102030405060708090A75
:103EC0000B0C0D0E0F10000000000000000001029E
:103ED00003040607080900000000010203040000B3
:103EE00000004054FB21F93F3163621A61B4D03DB8
:103EF0000000601A61B4D03D7370032E8A19A33B91
:103F00000000002E8A19A33BC14920259A837B39E2
:103F100000000000000000006E83F9A22915444E45
:103F2000D15727FCC0DD34F5999562DB4190433CC5
:103F3000AB6351FE61C5BBDE3A6E24B7E0D24D42A1
:103F4000EA2E49061C92D1091CEB1DFE3EA729B1A1
:103F5000F53582E88444BB2E26709CE9417E5FB42F
:103F600039D69139F43953838B5F849C3B28F9BD52
:103F7000FF97F81F0F9805DE8B112FEF1F6D0A5A60
:103F8000CF7E366DB709CB27663F464F2DEA5F9E41
:103F9000C7BA27757BF1E5EBF739073DEA92528AFC
:103FA000B15FFB6B085D8D1F7AFE10111111C13FCF
:103FB00037D60684F464963F280356C9226D6D3FB8
:103FC0000165F2F2D844433FA69237A0887E143FA1
:103FD000735360DBCB75F3BEFE41B31BBAA1AB3F9D
:103FE00093846EE9E326823F1583E0FEC8DB573FEA
:103FF00068108D1AF726303FE9A7F0320FB8123F4C
:10400000D47ABF74702AFB3E2840000800000020CC
:1040100044000000C40100086C4000084400002077
:10402000BC5A0000E0010008010000000000000090
:104030000000000000000000000000000000000080
:104040000000000000000000000000000000000070
:10405000000000000300000000000000010000005C
:0C406000100000000000000000127A00B8
:040000050800018965
:00000001FF
