:020000040800F2
:100000001810002029020008DF170008391700081F
:10001000DD170008B9050008CB1D0008000000002E
:10002000000000000000000000000000E3170008CE
:10003000D105000800000000E1170008E5170008DE
:10004000430200084302000843020008430200087C
:10005000430200084302000843020008430200086C
:10006000430200084302000843020008BD050008DF
:10007000430200084302000843020008430200084C
:10008000430200084302000843020008430200083C
:10009000430200084302000843020008430200082C
:1000A000430200084302000843020008430200081C
:1000B000430200084302000843020008430200080C
:1000C00043020008430200084302000843020008FC
:1000D00043020008430200084302000843020008EC
:1000E00043020008430200084302000843020008DC
:1000F000E518000843020008430200084302000814
:1001000000000000000000000000000043020008A2
:1001100043020008430200084302000843020008AB
:10012000430200084302000843020008430200089B
:100130004302000843020008000000000000000025
:1001400043020008430200084302000800000000C8
:10015000000000000000000000000000000000009F
:1001600000000000000000004302000843020008F5
:100170004302000800000000000000000000000032
:10018000000000004302000800F002F800F03CF814
:100190000AA090E8000C82448344AAF10107DA45E2
:1001A00001D100F031F8AFF2090EBAE80F0013F0F8
:1001B000010F18BFFB1A43F001031847A41D0000EC
:1001C000C41D0000103A24BF78C878C1FAD852077D
:1001D00024BF30C830C144BF04680C6070470000C1
:1001E0000023002400250026103A28BF78C1FBD840
:1001F000520728BF30C148BF0B6070471FB501F0E0
:100200008DFE1FBD10B510BD00F0CFF81146FFF7F1
:10021000F5FF01F0F9FD00F0EDF803B4FFF7F2FF90
:1002200003BC00F0F5F80000094880470948004782
:10023000FEE7FEE7FEE7FEE7FEE7FEE7FEE7FEE796
:10024000FEE7FEE704480549054A064B70470000F3
:100250006D18000889010008180A002018100020F5
:10026000180C0020180C002053EA020C00F06980E2
:100270002DE9F04B4FF00006002B1FBFB3FA83F5BA
:1002800003FA05F424FA05F65E4012BF1643B2FAEB
:1002900082F502FA05F4C5F120051EBF22FA05FC1D
:1002A00044EA0C04203556EA044C4FEA144418BFC3
:1002B000641C4FF000084FF00009904271EB030CF2
:1002C00039D3002919BFB1FA81F701FA07F6B0FA5C
:1002D00080F700FA07F6C7F120071EBF20FA07FCD7
:1002E00046EA0C062037B6FBF4FCA7EB0507103FE7
:1002F00007F01F0BCBF120060CFA0BFB2CFA06F6CD
:1003000044BFB3460026202FA4BF5E464FF0000B2B
:100310005BEA060C08BF4FF0010B19EB0B09ABFBB6
:10032000027C48EB0608C01B06FB02CC0BFB03CC8F
:1003300071EB0C01C1E70B46024641464846BDE859
:10034000F08B13B54FF000004FF00001AFF30080C9
:10035000BDE81C4070474FF0000200B513469446BC
:100360009646203922BFA0E80C50A0E80C50B1F10D
:100370002001BFF4F7AF090728BFA0E80C5048BF21
:100380000CC05DF804EB890028BF40F8042B08BFBF
:10039000704748BF20F8022B11F0804F18BF00F8BB
:1003A000012B7047704770477047754600F02CF876
:1003B000AE4605006946534620F00700854618B052
:1003C00020B5FFF73FFFBDE820404FF000064FF09B
:1003D00000074FF000084FF0000B21F00701AC467A
:1003E000ACE8C009ACE8C009ACE8C009ACE8C00999
:1003F0008D46704710B50446AFF300802046BDE837
:100400001040FFF70ABF000000487047B409002001
:1004100001491820ABBEFEE726000200704700002D
:10042000604910B5486940F080504861486940F023
:10043000010048614FF0A040D0F8082342F4803218
:10044000C0F80823CA6A42F48072CA624A6942F05C
:1004500080524A61D0F8081341F00601C0F8081331
:10046000D0F8081341F40051C0F80813D0F808136D
:1004700041F40041C0F80813D0F8081321F480714A
:10048000C0F80813C16821F00801C160C16821F0FB
:100490001001C16001210163C16821F02001C16028
:1004A000C16821F4707141F4E071C160C16821F448
:1004B000406141F48061C160416921F00701491C3C
:1004C0004161C16841F00101C160D0F80C1121F017
:1004D0000801C0F80C11D0F80C1121F01001C0F87F
:1004E0000C110021C0F83411C0F83811D0F80C11EB
:1004F00041F44061C0F80C11D0F80C1141F4707156
:10050000C0F80C11D0F80C1121F02001C0F80C112A
:10051000D0F8181121F00701491CC0F818118168A2
:1005200041F001018160816841F004018160D0F8EF
:10053000081141F00101C0F808111C481A49016175
:100540001B494161816841F002018160816821F0AD
:1005500010018160816841F020018160816821F48F
:1005600080518160816841F080018160816821F063
:1005700040018160816841F480718160816841F44B
:1005800080618160C16841F40071C160816841F09F
:10059000010181600B2001F019FC0649102081F84F
:1005A000000410BD001002400C0300500000024087
:1005B000B40100200BE000E0FEE700000348016802
:1005C000890701D502210160704700000000024048
:1005D000704700002DE9F04FDFF8AC91002309F1DE
:1005E000040A03250AF1040B85B04FF0010C0F2714
:1005F0000BF1040EBFE000BF0CFA03F6324075D0D9
:100600000C7904F00304012C01D0022C1BD1846866
:1006100000945C0005FA04F80494009C24EA0804A1
:100620000094D1F80C80049C08FA04F8009C48EA75
:100630000408C0F808804468B4430E79C6F3001675
:100640009E40264346600C79E443A4070AD0C46860
:100650004FEA430805FA08F6B4438E6806FA08F62E
:100660002643C6600C7904F00304022C10D1DC0888
:1006700000EB84040294246A5E074FEAD66807FA06
:1006800008F6B4430E6906FA08F62643029C266271
:1006900004684FEA430805FA08F6B4430E7906F0F9
:1006A000030606FA08F6264306604C6814F4403F39
:1006B00060D0364CA66946F00106A661A46923F015
:1006C000030604F001040094314C34440294A468FD
:1006D0009E074FEA167807FA08F6B443B0F1904F38
:1006E00005D02C4EB04204D1012612E042E0002693
:1006F0000FE0294EB04201D102260AE0274EB04257
:1007000001D1032605E0264EB04201D1042600E0C7
:10071000052606FA08F62643029CA660D9F8006072
:100720004C46D1F8048096435FEAC83800D516439A
:100730002660DAF800405646D1F8048094435FEA18
:10074000883800D514433460DBF800405E46D1F8A9
:10075000048094435FEAC82800D514433460DEF86F
:1007600000407646D1F8048094435FEA882800D59B
:10077000144334605B1C0A6832FA03F47FF43CAF24
:1007800005B0BDE8F08F00000004014000100240F9
:10079000000001400004004800080048000C004828
:1007A00000100048014880687047000004000020E5
:1007B000024881680278114481607047040000207B
:1007C000074810B5016841F010010160032000F0F6
:1007D0005FF80F2000F006F800F024F8002010BDAC
:1007E0000020024070B50D4D04464FF47A71287810
:1007F000B1FBF0F00A490968B1FBF0F000F018FE17
:1008000048B9102C07D200222146501E00F020F8D3
:1008100000206C6070BD012070BD0000040000204D
:1008200010000020094808B5816941F0010181618B
:10083000816901F001010091C16941F08051C161FC
:10084000C06900F08050009008BD00000010024018
:10085000F0B40E4B1B680C46C3F30223C3F107052B
:10086000042D00D90425191D072901D2002300E019
:10087000DB1E012606FA05F1491E214099409E40E3
:10088000761E16403143F0BC01F0ADBA0CED00E02D
:10089000064900F0070208684FF6FF03184040EAD7
:1008A0000220034A10430860704700000CED00E08E
:1008B0000000FA0538B504004FF0000514D094F894
:1008C0003200052810D094F8320002280CD02348BA
:1008D000816941F001018161806900F001000090AF
:1008E00094F8320010B104E0012038BD002084F8F3
:1008F0003100204600F036F860681949402821D0C0
:1009000060281FD0A2681043D4E903231A43104380
:1009100062691043A2691043E2691043226A1043DE
:10092000626A1043228D40EAC24094F82C2040EACB
:100930000262206803680B401A43026094F8320098
:1009400030B108E0E268A369104322691A43E2E784
:10095000012084F83200284638BD00000010024013
:10096000113800E030B587B0044614216846FFF71F
:10097000F2FC2468234D0023234903224FF09040CA
:10098000AC4209D14C6944F400344C61496901F42A
:10099000003105910E210CE01A4D2D1DAC420FD1F6
:1009A0004C6944F400344C61496901F4003105910B
:1009B000E0218DE80E006946FFF70CFE07B030BD60
:1009C000104D12480835AC420CD14C6944F48024D7
:1009D0004C614969009201F4802105916946CDE995
:1009E0000123E9E7074D0C35AC42E7D14C6944F4EB
:1009F00080244C61496901F4802105914FF4C05174
:100A0000D7E7000038000140001002400004004811
:100A1000002138B190F83220052A03D090F8322016
:100A2000012A02D00121084670470268136843F08A
:100A300001031360042280F83220F4E72DE9F84F17
:100A4000044600680026804DC0036ED5E869C000EA
:100A500008D4E86940F08050E861E869012600F0B8
:100A60008050009079480168C90512D40168804619
:100A700041F480710160FFF795FE074605E000BF75
:100A8000FFF790FEC01B642835D8D8F80000C005D9
:100A9000F6D5286A10F4407053D0A18801F4407153
:100AA00081424ED0286A4FF4803191FAA1F2B2FA15
:100AB00082F29700664A4FF00108174420F4407014
:100AC000C7F8008491FAA1F1B1FA81F102EB81013A
:100AD0000023C1F800342862C00732D0FFF762FE5D
:100AE000074641F2883A4FF0020907E0FFF75AFE45
:100AF000C11B514502D90320BDE8F88F99FAA9F02E
:100B0000B0FA80F040F040024946B8EB521F01D1E4
:100B10002A680CE091FAA1F2B2FA82F242F04002A5
:100B2000B1EB521F02D12A6A01E015E06A6A99FA14
:100B3000A9F1B1FA81F101F01F0108FA01F00242B6
:100B4000D4D0286A616820F44070084328621EB13E
:100B5000E86920F08050E8612078C00705D0286B54
:100B6000A16820F00300084328632078800705D59A
:100B7000286BE16820F44030084328632078400760
:100B800005D5286B216920F440200843286320788C
:100B9000800605D5286BE16920F010000843286322
:100BA0002068800305D56868A16B20F480000843A5
:100BB00068602078400605D5286B216A20F0200067
:100BC000084328632078000705D5286B616920F465
:100BD0004010084328632078C00605D5286BA1691A
:100BE00020F44000084328632088800505D5686804
:100BF000E16A20F40000084368602078000605D50B
:100C0000E86A616A20F4F8700843E8622088C00549
:100C100005D5E86AA16A20F478500843E862208884
:100C2000C00405D5286B216B20F48070084328632D
:100C30002088800405D5286B616B20F40070084380
:100C40002863002058E700000010024000700040B8
:100C5000000042422DE9F0470F46050069D04A4E98
:100C6000306800F00700B84209D2306820F0070071
:100C700038433060306800F00700B84259D1287816
:100C8000424C800705D56068A96820F0F000084351
:100C900060602878C0073DD06968012001290DD027
:100CA000022923D05FF0020393FAA3F2B2FA82F290
:100CB00042F02002520904D0226803E04FF40033CE
:100CC000F2E7626A93FAA3F3B3FA83F303F01F0324
:100CD000984002422DD0606820F003000843606015
:100CE000FFF760FD804641F288390CE04FF0007359
:100CF000DAE700BFFFF756FDA0EB0801494502D92E
:100D00000320BDE8F0876068696800F00C00B0EB74
:100D1000810FEFD1306800F00700B8420BD930687E
:100D200020F0070038433060306800F00700B84218
:100D300001D00120E5E72878400705D56068E9681B
:100D400020F4E060084360602878000706D56068FA
:100D5000296920F4605040EAC100606000F04EF85C
:100D60006168F02292FAA2F201F0F001B2FA82F286
:100D7000D140074A515CC8400649086006480068EF
:100D8000FFF730FD0020BCE70020024000100240C9
:100D9000461F0008100000200800002008480949EC
:100DA000006849684FF4E06292FAA2F201F4E0614F
:100DB000B2FA82F2D140044A515CC8407047000048
:100DC0001000002000100240561F00080848094982
:100DD000006849684FF4605292FAA2F201F460513F
:100DE000B2FA82F2D140044A515CC8407047000018
:100DF0001000002000100240561F0008164A10B5CF
:100E00005168164801F00C03042B20D0082B1ED18A
:100E10004FF4701494FAA4F401F47013B4FA84F447
:100E2000E3400F4CD26AE45C0F2393FAA3F302F081
:100E30000F02B3FA83F3DA40094B1033C9039A5C0B
:100E400006D500231946FFF70FFAA0FB040110BDD9
:100E50000448A4FB000110BD0010024000127A00FB
:100E6000261F000800093D002DE9F84F050071D04C
:100E70002878FC4EC0074FF0010425D07068670445
:100E8000C0F38100012807D07068C0F381000228F8
:100E90001BD17068C00318D597FAA7F0B0FA80F09C
:100EA00040F02000400901D0306800E0706A97FAF5
:100EB000A7F1B1FA81F101F01F0104FA01F1084232
:100EC00065D068680028D2D061E06868B0F5803FDE
:100ED0000BD010B1B0F5A02F17D0306820F48030BF
:100EE0003060306820F4802002E0306840F48030C8
:100EF0003060F06AA96820F00F000843F06268686B
:100F000020B3FFF74FFC80460AE0306840F48020B1
:100F10003060EAE7FFF746FCA0EB0800642871D8D0
:100F200097FAA7F0B0FA80F040F02000400901D015
:100F3000306800E0706A97FAA7F1B1FA81F101F028
:100F40001F0104FA01F10842E4D020E0FFF72AFC77
:100F5000804607E0C2E000BFFFF724FCA0EB0800DA
:100F60006428DCD897FAA7F0B0FA80F040F02000AF
:100F7000400901D0306800E0706A97FAA7F1B1FA31
:100F800081F101F01F0104FA01F10842E4D128784F
:100F9000DFF8D48280074FF0000A4FF0020730D507
:100FA00070684FF0F80B10F00C0F07D07068C0F3AA
:100FB0008100022827D17068C00324D497FAA7F0D3
:100FC000B0FA80F040F02000400901D0306800E025
:100FD000706A97FAA7F1B1FA81F101F01F0104FAE2
:100FE00001F1084202D02869012877D130689BFAC4
:100FF000ABF220F0F8016869B2FA82F29040014346
:1010000031605AE064E1286988B394FAA4F0B0FA38
:1010100080F048F82040FFF7C5FB814606E000BF9E
:10102000FFF7C0FBA0EB090002289AD897FAA7F0B7
:10103000B0FA80F040F02000400901D0306800E0B4
:10104000706A97FAA7F1B1FA81F101F01F0104FA71
:1010500001F10842E4D030689BFAABF26969B2FA58
:1010600082F220F0F80091400843306025E0FFE76D
:1010700094FAA4F0B0FA80F048F820A0FFF792FBB1
:10108000814605E0FFF78EFBA0EB09000228CCD8D3
:1010900097FAA7F0B0FA80F040F02000400901D0A4
:1010A000306800E0706A97FAA7F1B1FA81F101F0B7
:1010B0001F0104FA01F10842E4D1287800076CD539
:1010C000A869A8B394FAA4F0B0FA80F008EB800005
:1010D000C0F88044FFF766FB814607E0A4E100BF4B
:1010E000FFF760FBA0EB090002289ED897FAA7F053
:1010F000B0FA80F040F06000B4EB501F01D13068CE
:101100000BE097FAA7F0B0FA80F040F06000B7EB80
:10111000501F01D1306A00E0706A97FAA7F1B1FA66
:1011200081F101F01F0104FA01F21042D8D034E03D
:10113000FFE794FAA4F1B1FA81F108EB8101C1F85B
:1011400080A4FFF72FFB814606E000BFFFF72AFBD4
:10115000A0EB090002289AD897FAA7F0B0FA80F01D
:1011600040F06000B4EB501F01D130680BE097FAFB
:10117000A7F0B0FA80F040F06000B7EB501F01D14B
:10118000306A00E0706A97FAA7F1B1FA81F101F0D4
:101190001F0104FA01F21042D8D12878400768D51F
:1011A000F0694FF00009C00009D4F06940F08050A8
:1011B000F061F0694FF0010900F0805000902B4879
:1011C0000168C90512D4016841F480710160FFF71C
:1011D000E9FA834606E000BFFFF7E4FAA0EB0B0054
:1011E000642875D821480068C005F5D5E86801284D
:1011F0000AD008B1052811D0306A20F00100306211
:10120000306A20F0040002E0306A40F001003062F1
:10121000E86868B3FFF7C6FA83460DE0306A40F02D
:1012200004003062F0E700BFFFF7BCFAA0EB0B014F
:1012300041F2883081424BD897FAA7F0B0FA80F09B
:1012400040F04000B4EB501F01D1306813E097FA32
:10125000A7F0B0FA80F040F04000B7EB501F09D182
:10126000306A08E000100240000042420070004076
:101270000CE040E0706A97FAA7F1B1FA81F101F051
:101280001F0104FA01F21042CED02DE0FFF78AFAD6
:10129000834607E0FFF786FAA0EB0B0141F28830A6
:1012A000814215D897FAA7F0B0FA80F040F04000DC
:1012B000B4EB501F01D130680CE097FAA7F0B0FAF8
:1012C00080F040F04000B7EB501F02D1306A01E0DF
:1012D00083E0706A97FAA7F1B1FA81F101F01F017A
:1012E00004FA01F21042D5D1B9F1000F03D0F06930
:1012F00020F08050F061E86980B37168C1F381012A
:10130000022977D04FF080714F000228504609D053
:1013100091FAA1F1B1FA81F148F82100FFF742FA00
:1013200005465DE0894691FAA1F1B1FA81F1C24624
:1013300048F82100FFF736FA804605E0FFF732FA59
:10134000A0EB0800022848D897FAA7F0B0FA80F07E
:1013500040F02000400902D0306801E066E0706A89
:1013600097FAA7F1B1FA81F101F01F0104FA01F136
:101370000842E3D1D5E908100843716821F47411DB
:101380000843706099FAA9F0B0FA80F04AF820405A
:10139000FFF708FA054604E0FFF704FA401B0228AD
:1013A0001BD897FAA7F0B0FA80F040F0200040096F
:1013B00001D0306800E0706A97FAA7F1B1FA81F1C4
:1013C00001F01F0104FA01F10842E5D02EE000BF50
:1013D000FFF7E8F9401B022802D90320BDE8F88F87
:1013E00097FAA7F0B0FA80F040F02000400902D050
:1013F000306801E00BE0706A97FAA7F1B1FA81F169
:1014000001F01F0104FA01F10842E1D10EE00128C8
:10141000E4D070682A6A00F48031914204D1696A8C
:1014200000F47010884201D00120D7E70020D5E7F2
:1014300010B5401EB0F1807F01D3012010BD4FF0E8
:10144000E02460610F21601700F0CDFC0020A06156
:1014500007202061002010BDF0B590F83C20012A43
:1014600036D0012480F83C40022280F83D200268FA
:1014700053689568174E184FB24201D0BA4204D152
:1014800023F4700C4B6843EA0C0323F0700C0B68D8
:1014900043EA0C0353600268B2420DD0B2F1804FB0
:1014A0000AD00E4B9A4207D00D4B9A4204D0BA4252
:1014B00002D00C4B9A4204D1896825F0800319436D
:1014C000916080F83D40002180F83C100846F0BD56
:1014D0000220F0BD002C0140003401400004004017
:1014E000000800400040014010B5040003D094F80B
:1014F0003D0010B107E0012010BD002084F83C0041
:10150000204600F023F8022084F83D00211D2068C9
:1015100000F0F4F9012084F8480084F83E0084F8D3
:101520003F0084F8400084F8410084F8420084F8C9
:10153000430084F8440084F8450084F8460084F8A9
:10154000470084F83D00002010BD000008B50C4A9B
:1015500001680C48914207D1C16941F00401C161A1
:10156000C06900F0040009E0074A914207D181698F
:1015700041F400518161806900F40050009008BD81
:1015800000080040001002400034014070B50446DD
:1015900090F83C000025012817D0012684F83C6013
:1015A000022084F83D00226890682F4B184020F4F8
:1015B0007F4090600868502838D00DDC20284FD03C
:1015C00005DC90B3102811D14AE0022070BD30280C
:1015D00046D040280AD13BE060282FD070280DD09B
:1015E000B0F5805F03D0B0F5005F12D0012584F81C
:1015F0003D60002084F83C00284670BDCB68D1E9EE
:101600000121206800F0D2F92068816841F077015B
:1016100009E0CB68D1E90121206800F0C7F9206812
:10162000816841F480418160E1E719E0CA68496856
:10163000206800F0CDF95021206806E0CA684968AA
:10164000206800F0D6F96021206800F0B9F9CEE7F3
:10165000CA684968206800F0BBF940212068F4E7B7
:10166000226801461046F0E788FFFEFF10B504002F
:1016700002D0A06F10B107E0012010BD002084F857
:101680007400204600F026F82420A0672068016836
:1016900021F001010160204600F050FA0128ECD051
:1016A000606A10B1204600F0B6F92068416821F464
:1016B000904141602068816821F02A0181602068A2
:1016C000016841F0010101602046BDE8104000F0D2
:1016D00006BA000010B586B0044614216846FEF72D
:1016E0003AFE13492068884220D11248816941F4AA
:1016F00080418161816901F480410591416941F432
:10170000003141614069694600F4003005904FF4B2
:10171000C0600090022001900020029003200390FE
:10172000072004904FF09040FEF754FF06B010BD24
:101730000038014000100240FEE7000010B588B0FC
:10174000002417480094019402940394049405948F
:1017500012490694C0E900144FF6FF71C0E9024136
:1017600004618461FFF7C0FE08B172B6FEE74FF472
:101770008050009069460A48FFF708FF08B172B62A
:10178000FEE7049404A906480694FFF765FE0028C6
:1017900001D072B6FEE708B010BD0000000800409E
:1017A000E40000200C4810B50A4901604FF41641CE
:1017B0004160002181600C22C160C0E90412816196
:1017C000C16101624162FFF751FF002801D072B68A
:1017D000FEE710BD0038014030010020FEE7FEE7C3
:1017E00070477047FEF7E4BF30B59FB028210FA8BF
:1017F000FEF7B1FD142119A8FEF7ADFD3C216846A6
:10180000FEF7A9FD0225012013900F9510201490DA
:10181000002416954FF46010CDE917400FA8FFF78C
:1018200023FB08B172B6FEE70F20CDE919054FF48E
:101830008060CDE91B40022119A81D94FFF70AFA28
:1018400008B172B6FEE742F2811000904FF480704A
:10185000099040010A9002940D946846FFF7EEF853
:10186000002801D072B6FEE71FB030BD0248016803
:1018700041F470010160704788ED00E0164881690D
:1018800041F40051816115480168154A1140016019
:101890001248002108380160104A022120321160EC
:1018A0002021121D11600D49091D0A6842F0010234
:1018B0000A60016821F010010160011D0A6822F030
:1018C000700242F020020A60016841F001010160EB
:1018D0002C2000F07BBA00000010024008340140C8
:1018E000F8FFFEFF04480168C90703D0016821F032
:1018F0000101016070470000103401402DE9F04300
:101900000268234B234D244E244C4FF080499842CB
:1019100007D0484505D0A84203D0B04201D0A0422C
:1019200003D122F070074A683A431D4FDFF874C0B4
:10193000DFF8748098420DD048450BD0A84209D0FA
:10194000B04207D0A04205D0B84203D0604501D0D4
:10195000404503D122F44075CA682A434D6922F0FC
:1019600080022A4302608A68C2620A6882629842E0
:1019700007D0A04205D0B84203D0604501D0404511
:1019800001D10969016301214161BDE8F0830000D3
:10199000002C0140000400400008004000340140D9
:1019A00000400140004401400048014010B58468F7
:1019B00042EA032224F47F440A432243826010BD9A
:1019C000826822F070020A4342F00701816070478A
:1019D00010B5036A046A24F001040462846924F0E7
:1019E000F00444EA021423F00A020A43846102620A
:1019F00010BD10B5036A23F0100303628369046A03
:101A000023F4704343EA023224F0A00343EA0111B5
:101A10008261016210BD90F82410C90706D00168E8
:101A20004A68836A22F400321A434A6090F824100C
:101A3000890706D501684A68C36A22F480321A43CE
:101A40004A6090F82410490706D501684A68036B7C
:101A500022F480221A434A6090F82410090706D520
:101A600001684A68436B22F400421A434A6090F8C6
:101A70002410C90606D501688A68836B22F4805257
:101A80001A438A6090F82410890606D501688A688E
:101A9000C36B22F400521A438A6090F8241049065E
:101AA00011D501684A68036C22F480121A434A6017
:101AB000016CB1F5801F06D101684A68436C22F4BD
:101AC000C0021A434A6090F82410090606D501683E
:101AD0004A68806C22F4002202434A607047F8B5DD
:101AE00000260446C0F88060FEF75CFE05462068CC
:101AF00000686FF07E47000708D52B4600224FF4A0
:101B000000112046009700F0FDF860B920680068D9
:101B100040070AD52B4600224FF48001204600974B
:101B200000F0F0F808B10320F8BD2020A067E067BE
:101B3000266684F874600020F8BD000070B5044685
:101B400080682169E26908436169002511432268C0
:101B50000843116849F20C639943014311602068FE
:101B60004168E26821F4405111434160216AA06953
:101B700001432068826822F430620A4382605A4A34
:101B800020685A4990420CD1086B10F0030006D02F
:101B900001285FD002285FD0032845D158E00121F9
:101BA00043E0534A90420DD1086B10F440304DD0C1
:101BB000B0F5803F4ED0B0F5003F4DD0B0F5403F7E
:101BC00032D145E04B4A90420DD1086B10F44020D1
:101BD0003CD0B0F5802F3DD0B0F5002F3CD0B0F513
:101BE000402F21D134E0444A90420DD1086B10F4CB
:101BF00040102BD0B0F5801F2CD0B0F5001F2BD09B
:101C0000B0F5401F10D123E03C4A90420CD1086B44
:101C100010F440001AD0B0F5800F1BD0B0F5000FC3
:101C20001AD0B0F5400F13D01021E3694FF40040F3
:101C3000334A4FF6EF7683422ED109294AD2DFE8A4
:101C400001F00D1013491549494918000021ECE72E
:101C50000221EAE70421E8E70821E6E7FFF79EF81A
:101C600006E0FFF7B3F803E0104602E0FFF7C6F81E
:101C700088B34100606801EB5001B1FBF0F081B224
:101C8000A1F11000B04225D84FF6F07201EA02002F
:101C9000C1F3420108431FE009291BD2DFE801F02C
:101CA00005080B1A0D1A1A1A1000FFF777F806E04C
:101CB000FFF78CF803E0104602E0FFF79FF850B101
:101CC000616800EB5100B0FBF1F080B2A0F11001AF
:101CD000B14201D9012501E02168C8600020606699
:101CE000A066284670BD0000003801400010024088
:101CF0000044004000480040004C004000500040BC
:101D000000127A002DE9F0479A4617460E4604461F
:101D10004FF000094FF02008089D4AE0681C48D0A9
:101D2000FEF740FDA0EB0A00A8422AD84DB3206878
:101D3000016849073DD5C069C043000539D4216811
:101D40004FF400600862206850E8001F21F4D07151
:101D500040E80012002AF6D12068083050E8001F41
:101D600021F0010140E80012002AF5D1C4F8788082
:101D7000C4F87C80C4F8808084F874900320BDE8A7
:101D8000F087216851E8000F20F4D07041E800028C
:101D9000002AF6D12068083050E8001F21F0010128
:101DA00040E80012002AF5D1C4F87880C4F87C809D
:101DB000E2E72068C06936EA000004D00020B8429B
:101DC000ACD00020DBE70120F9E7FEE7002809DBC3
:101DD00000F01F02012191404009800000F1E02045
:101DE000C0F8001170470907090E002804DB00F154
:101DF000E02080F80014704700F00F0000F1E020B0
:101E000080F8141D7047000086B0FEF7D9FCFFF77C
:101E1000EBFC14216846FEF79EFA3C48416941F408
:101E200000314161416901F400310591416941F49A
:101E3000802141614069002400F4802005904FF426
:101E4000004000901220CDE9010403200425CDE9D3
:101E5000030569464FF09040FEF7BCFB2D482C4926
:101E60000C27202680E8D20004614462FEF722FDA0
:101E700008B172B6FEE7274825493430091D80E8CD
:101E8000D20004614462FEF715FD08B172B6FEE7A8
:101E900020481F4968300831C0E903746026446255
:101EA000C0E90016FEF706FD08B172B6FEE7194854
:101EB00017499C300C31C0E903544462C0E9001654
:101EC000FEF7F8FC08B172B6FEE7FFF76BFCFFF710
:101ED00035FCFFF7D3FC0F48FEF79AFD0D48343070
:101EE000FEF796FD0B486830FEF792FD09489C30DE
:101EF000FEF78EFDFEF794FA07494FF47A720868F0
:101F0000401C08609042FAD10C60F8E700100240D3
:101F10003800014014000020000000204FF0407005
:101F2000E1EE100A704702030405060708090A0BD0
:101F30000C0D0E0F10100102030405060708090A14
:101F40000B0C0D0E0F10000000000000000001023D
:101F50000304060708090000000001020304000052
:101F6000801F00080000002014000000C4010008C9
:101F7000941F00081400002004100000E001000875
:101F80000000000001000000100000000000000040
:041F900000127A00C1
:040000050800018965
:00000001FF
